{
  "contractName": "DerivedWallet",
  "abi": [
    {
      "inputs": [
        {
          "internalType": "address",
          "name": "wallet",
          "type": "address"
        },
        {
          "internalType": "bytes32",
          "name": "userSecret",
          "type": "bytes32"
        }
      ],
      "name": "deriveWallet",
      "outputs": [
        {
          "internalType": "bytes32",
          "name": "",
          "type": "bytes32"
        }
      ],
      "stateMutability": "pure",
      "type": "function"
    },
    {
      "inputs": [
        {
          "internalType": "bytes32",
          "name": "derivedWallet",
          "type": "bytes32"
        }
      ],
      "name": "getInbox",
      "outputs": [
        {
          "internalType": "bytes32[]",
          "name": "",
          "type": "bytes32[]"
        }
      ],
      "stateMutability": "view",
      "type": "function"
    },
    {
      "inputs": [
        {
          "internalType": "bytes32",
          "name": "derivedWallet",
          "type": "bytes32"
        }
      ],
      "name": "getAsset",
      "outputs": [
        {
          "internalType": "bytes32[]",
          "name": "",
          "type": "bytes32[]"
        }
      ],
      "stateMutability": "view",
      "type": "function"
    }
  ],
  "bytecode": "0x608060405234801561001057600080fd5b506104ac806100206000396000f3fe608060405234801561001057600080fd5b50600436106100415760003560e01c80632cc3ce80146100465780639e9516c414610076578063f7ae3e77146100a6575b600080fd5b610060600480360381019061005b9190610244565b6100d6565b60405161006d919061035b565b60405180910390f35b610090600480360381019061008b9190610244565b610141565b60405161009d919061035b565b60405180910390f35b6100c060048036038101906100bb9190610208565b6101ab565b6040516100cd919061037d565b60405180910390f35b60606001600083815260200190815260200160002080548060200260200160405190810160405280929190818152602001828054801561013557602002820191906000526020600020905b815481526020019060010190808311610121575b50505050509050919050565b606060008083815260200190815260200160002080548060200260200160405190810160405280929190818152602001828054801561019f57602002820191906000526020600020905b81548152602001906001019080831161018b575b50505050509050919050565b600082826040516020016101c092919061032f565b60405160208183030381529060405280519060200120905092915050565b6000813590506101ed81610448565b92915050565b6000813590506102028161045f565b92915050565b6000806040838503121561021b57600080fd5b6000610229858286016101de565b925050602061023a858286016101f3565b9150509250929050565b60006020828403121561025657600080fd5b6000610264848285016101f3565b91505092915050565b600061027983836102fa565b60208301905092915050565b610296610291826103d1565b61040d565b82525050565b60006102a7826103a8565b6102b181856103c0565b93506102bc83610398565b8060005b838110156102ed5781516102d4888261026d565b97506102df836103b3565b9250506001810190506102c0565b5085935050505092915050565b610303816103e3565b82525050565b610312816103e3565b82525050565b610329610324826103e3565b61041f565b82525050565b600061033b8285610285565b60148201915061034b8284610318565b6020820191508190509392505050565b60006020820190508181036000830152610375818461029c565b905092915050565b60006020820190506103926000830184610309565b92915050565b6000819050602082019050919050565b600081519050919050565b6000602082019050919050565b600082825260208201905092915050565b60006103dc826103ed565b9050919050565b6000819050919050565b600073ffffffffffffffffffffffffffffffffffffffff82169050919050565b600061041882610429565b9050919050565b6000819050919050565b60006104348261043b565b9050919050565b60008160601b9050919050565b610451816103d1565b811461045c57600080fd5b50565b610468816103e3565b811461047357600080fd5b5056fea264697066735822122057a9169a25b21549cf3895dbd3dca5f16fb0e41b7c5d585abec8c178bcad4b2064736f6c63430008000033",
  "immutableReferences": {},
  "source": "// SPDX-License-Identifier: MIT\npragma solidity ^0.8.0;\n\ncontract DerivedWallet {\n    // Mapping for derived wallet inbox\n    mapping(bytes32 => bytes32[]) internal inbox; // Derived wallet => transactionHashes\n\n    // Mapping for derived wallet assets\n    mapping(bytes32 => bytes32[]) internal asset; // Derived wallet => transactionHashes (IMPORTED items)\n\n    // Derive a unique wallet address for privacy\n    function deriveWallet(address wallet, bytes32 userSecret) public pure returns (bytes32) {\n        return keccak256(abi.encodePacked(wallet, userSecret));\n    }\n\n    // Add to inbox\n    function addToInbox(bytes32 derivedWallet, bytes32 transactionHash) internal {\n        inbox[derivedWallet].push(transactionHash);\n    }\n\n    // Remove from inbox\n    function removeFromInbox(bytes32 derivedWallet, bytes32 transactionHash) internal {\n        bytes32[] storage userInbox = inbox[derivedWallet];\n        for (uint256 i = 0; i < userInbox.length; i++) {\n            if (userInbox[i] == transactionHash) {\n                userInbox[i] = userInbox[userInbox.length - 1];\n                userInbox.pop();\n                break;\n            }\n        }\n    }\n\n    // Add to asset\n    function addToAsset(bytes32 derivedWallet, bytes32 transactionHash) internal {\n        asset[derivedWallet].push(transactionHash);\n    }\n\n    // Get inbox for a derived wallet\n    function getInbox(bytes32 derivedWallet) public view returns (bytes32[] memory) {\n        return inbox[derivedWallet];\n    }\n\n    // Get assets for a derived wallet\n    function getAsset(bytes32 derivedWallet) public view returns (bytes32[] memory) {\n        return asset[derivedWallet];\n    }\n}",
  "sourcePath": "/Users/nicholasliem/Desktop/Repository/Personal/Blockchain/contract/contracts/DerivedWallet.sol",
  "compiler": {
    "name": "solc",
    "version": "0.8.0+commit.c7dfd78e.Emscripten.clang"
  },
  "schemaVersion": "3.4.16",
  "updatedAt": "2024-12-26T14:51:33.094Z",
  "devdoc": {
    "kind": "dev",
    "methods": {},
    "version": 1
  },
  "userdoc": {
    "kind": "user",
    "methods": {},
    "version": 1
  }
}