{
  "contractName": "DerivedWallet",
  "abi": [
    {
      "inputs": [
        {
          "internalType": "address",
          "name": "wallet",
          "type": "address"
        }
      ],
      "name": "deriveWallet",
      "outputs": [
        {
          "internalType": "bytes32",
          "name": "",
          "type": "bytes32"
        }
      ],
      "stateMutability": "pure",
      "type": "function"
    },
    {
      "inputs": [
        {
          "internalType": "bytes32",
          "name": "derivedWallet",
          "type": "bytes32"
        }
      ],
      "name": "getInbox",
      "outputs": [
        {
          "internalType": "bytes32[]",
          "name": "",
          "type": "bytes32[]"
        }
      ],
      "stateMutability": "view",
      "type": "function"
    },
    {
      "inputs": [
        {
          "internalType": "bytes32",
          "name": "derivedWallet",
          "type": "bytes32"
        }
      ],
      "name": "getAsset",
      "outputs": [
        {
          "internalType": "bytes32[]",
          "name": "",
          "type": "bytes32[]"
        }
      ],
      "stateMutability": "view",
      "type": "function"
    }
  ],
  "bytecode": "0x608060405234801561001057600080fd5b50610464806100206000396000f3fe608060405234801561001057600080fd5b50600436106100415760003560e01c8063140dab44146100465780632cc3ce80146100765780639e9516c4146100a6575b600080fd5b610060600480360381019061005b9190610205565b6100d6565b60405161006d919061033f565b60405180910390f35b610090600480360381019061008b919061022e565b610106565b60405161009d919061031d565b60405180910390f35b6100c060048036038101906100bb919061022e565b610171565b6040516100cd919061031d565b60405180910390f35b6000816040516020016100e99190610302565b604051602081830303815290604052805190602001209050919050565b60606001600083815260200190815260200160002080548060200260200160405190810160405280929190818152602001828054801561016557602002820191906000526020600020905b815481526020019060010190808311610151575b50505050509050919050565b60606000808381526020019081526020016000208054806020026020016040519081016040528092919081815260200182805480156101cf57602002820191906000526020600020905b8154815260200190600101908083116101bb575b50505050509050919050565b6000813590506101ea81610400565b92915050565b6000813590506101ff81610417565b92915050565b60006020828403121561021757600080fd5b6000610225848285016101db565b91505092915050565b60006020828403121561024057600080fd5b600061024e848285016101f0565b91505092915050565b600061026383836102e4565b60208301905092915050565b61028061027b82610393565b6103cf565b82525050565b60006102918261036a565b61029b8185610382565b93506102a68361035a565b8060005b838110156102d75781516102be8882610257565b97506102c983610375565b9250506001810190506102aa565b5085935050505092915050565b6102ed816103a5565b82525050565b6102fc816103a5565b82525050565b600061030e828461026f565b60148201915081905092915050565b600060208201905081810360008301526103378184610286565b905092915050565b600060208201905061035460008301846102f3565b92915050565b6000819050602082019050919050565b600081519050919050565b6000602082019050919050565b600082825260208201905092915050565b600061039e826103af565b9050919050565b6000819050919050565b600073ffffffffffffffffffffffffffffffffffffffff82169050919050565b60006103da826103e1565b9050919050565b60006103ec826103f3565b9050919050565b60008160601b9050919050565b61040981610393565b811461041457600080fd5b50565b610420816103a5565b811461042b57600080fd5b5056fea2646970667358221220e62af9dadc034577ac7c976a14838bb69a10351f40ce2792b244be5c2551041564736f6c63430008000033",
  "immutableReferences": {},
  "source": "// SPDX-License-Identifier: MIT\npragma solidity ^0.8.0;\n\ncontract DerivedWallet {\n    // Mapping for derived wallet inbox\n    mapping(bytes32 => bytes32[]) internal inbox; // Derived wallet => transactionHashes\n\n    // Mapping for derived wallet assets\n    mapping(bytes32 => bytes32[]) internal asset; // Derived wallet => transactionHashes (IMPORTED items)\n\n    // Derive a unique wallet address for privacy\n    function deriveWallet(address wallet) public pure returns (bytes32) {\n        return keccak256(abi.encodePacked(wallet));\n    }\n\n    // Add to inbox\n    function addToInbox(bytes32 derivedWallet, bytes32 transactionHash) internal {\n        inbox[derivedWallet].push(transactionHash);\n    }\n\n    // Remove from inbox\n    function removeFromInbox(bytes32 derivedWallet, bytes32 transactionHash) internal {\n        bytes32[] storage userInbox = inbox[derivedWallet];\n        for (uint256 i = 0; i < userInbox.length; i++) {\n            if (userInbox[i] == transactionHash) {\n                userInbox[i] = userInbox[userInbox.length - 1];\n                userInbox.pop();\n                break;\n            }\n        }\n    }\n\n    // Add to asset\n    function addToAsset(bytes32 derivedWallet, bytes32 transactionHash) internal {\n        asset[derivedWallet].push(transactionHash);\n    }\n\n    // Get inbox for a derived wallet\n    function getInbox(bytes32 derivedWallet) public view returns (bytes32[] memory) {\n        return inbox[derivedWallet];\n    }\n\n    // Get assets for a derived wallet\n    function getAsset(bytes32 derivedWallet) public view returns (bytes32[] memory) {\n        return asset[derivedWallet];\n    }\n}",
  "sourcePath": "/Users/nicholasliem/Desktop/Repository/Personal/Blockchain/contract/contracts/DerivedWallet.sol",
  "compiler": {
    "name": "solc",
    "version": "0.8.0+commit.c7dfd78e.Emscripten.clang"
  },
  "schemaVersion": "3.4.16",
  "updatedAt": "2024-12-26T14:16:40.594Z",
  "devdoc": {
    "kind": "dev",
    "methods": {},
    "version": 1
  },
  "userdoc": {
    "kind": "user",
    "methods": {},
    "version": 1
  }
}