{
  "contractName": "SupplyChain",
  "abi": [
    {
      "anonymous": false,
      "inputs": [
        {
          "indexed": false,
          "internalType": "uint256",
          "name": "itemId",
          "type": "uint256"
        },
        {
          "indexed": false,
          "internalType": "string",
          "name": "name",
          "type": "string"
        },
        {
          "indexed": false,
          "internalType": "string",
          "name": "status",
          "type": "string"
        }
      ],
      "name": "ItemAdded",
      "type": "event"
    },
    {
      "anonymous": false,
      "inputs": [
        {
          "indexed": false,
          "internalType": "uint256",
          "name": "itemId",
          "type": "uint256"
        },
        {
          "indexed": false,
          "internalType": "string",
          "name": "newStatus",
          "type": "string"
        }
      ],
      "name": "StatusUpdated",
      "type": "event"
    },
    {
      "inputs": [
        {
          "internalType": "uint256",
          "name": "",
          "type": "uint256"
        }
      ],
      "name": "items",
      "outputs": [
        {
          "internalType": "string",
          "name": "name",
          "type": "string"
        },
        {
          "internalType": "string",
          "name": "status",
          "type": "string"
        }
      ],
      "stateMutability": "view",
      "type": "function",
      "constant": true
    },
    {
      "inputs": [
        {
          "internalType": "uint256",
          "name": "itemId",
          "type": "uint256"
        },
        {
          "internalType": "string",
          "name": "name",
          "type": "string"
        },
        {
          "internalType": "string",
          "name": "status",
          "type": "string"
        }
      ],
      "name": "addItem",
      "outputs": [],
      "stateMutability": "nonpayable",
      "type": "function"
    },
    {
      "inputs": [
        {
          "internalType": "uint256",
          "name": "itemId",
          "type": "uint256"
        },
        {
          "internalType": "string",
          "name": "newStatus",
          "type": "string"
        }
      ],
      "name": "updateStatus",
      "outputs": [],
      "stateMutability": "nonpayable",
      "type": "function"
    },
    {
      "inputs": [
        {
          "internalType": "uint256",
          "name": "itemId",
          "type": "uint256"
        }
      ],
      "name": "getItem",
      "outputs": [
        {
          "internalType": "string",
          "name": "",
          "type": "string"
        },
        {
          "internalType": "string",
          "name": "",
          "type": "string"
        }
      ],
      "stateMutability": "view",
      "type": "function",
      "constant": true
    }
  ],
  "bytecode": "0x608060405234801561001057600080fd5b50610a75806100206000396000f3fe608060405234801561001057600080fd5b506004361061004c5760003560e01c80633129e77314610051578063bfb231d214610082578063cb544212146100b3578063d1b34dd8146100cf575b600080fd5b61006b6004803603810190610066919061066e565b6100eb565b6040516100799291906107f2565b60405180910390f35b61009c6004803603810190610097919061066e565b6102ab565b6040516100aa9291906107f2565b60405180910390f35b6100cd60048036038101906100c891906106eb565b6103df565b005b6100e960048036038101906100e49190610697565b610483565b005b6060806000806000858152602001908152602001600020600001805461011090610987565b905011610152576040517f08c379a000000000000000000000000000000000000000000000000000000000815260040161014990610829565b60405180910390fd5b600080600085815260200190815260200160002060405180604001604052908160008201805461018190610987565b80601f01602080910402602001604051908101604052809291908181526020018280546101ad90610987565b80156101fa5780601f106101cf576101008083540402835291602001916101fa565b820191906000526020600020905b8154815290600101906020018083116101dd57829003601f168201915b5050505050815260200160018201805461021390610987565b80601f016020809104026020016040519081016040528092919081815260200182805461023f90610987565b801561028c5780601f106102615761010080835404028352916020019161028c565b820191906000526020600020905b81548152906001019060200180831161026f57829003601f168201915b5050505050815250509050806000015181602001519250925050915091565b60006020528060005260406000206000915090508060000180546102ce90610987565b80601f01602080910402602001604051908101604052809291908181526020018280546102fa90610987565b80156103475780601f1061031c57610100808354040283529160200191610347565b820191906000526020600020905b81548152906001019060200180831161032a57829003601f168201915b50505050509080600101805461035c90610987565b80601f016020809104026020016040519081016040528092919081815260200182805461038890610987565b80156103d55780601f106103aa576101008083540402835291602001916103d5565b820191906000526020600020905b8154815290600101906020018083116103b857829003601f168201915b5050505050905082565b604051806040016040528083815260200182815250600080858152602001908152602001600020600082015181600001908051906020019061042292919061054e565b50602082015181600101908051906020019061043f92919061054e565b509050507f9a2ee66360acc47ed8f7c49b2492e1777a6fed40c18be4eddb5b242f7098a4af83838360405161047693929190610879565b60405180910390a1505050565b600080600084815260200190815260200160002060000180546104a590610987565b9050116104e7576040517f08c379a00000000000000000000000000000000000000000000000000000000081526004016104de90610829565b60405180910390fd5b80600080848152602001908152602001600020600101908051906020019061051092919061054e565b507fdc280875b120650ffe3edf5f724f07fd086361a32c2a387fe34b495f5679e77d8282604051610542929190610849565b60405180910390a15050565b82805461055a90610987565b90600052602060002090601f01602090048101928261057c57600085556105c3565b82601f1061059557805160ff19168380011785556105c3565b828001600101855582156105c3579182015b828111156105c25782518255916020019190600101906105a7565b5b5090506105d091906105d4565b5090565b5b808211156105ed5760008160009055506001016105d5565b5090565b60006106046105ff846108ef565b6108be565b90508281526020810184848401111561061c57600080fd5b610627848285610945565b509392505050565b600082601f83011261064057600080fd5b81356106508482602086016105f1565b91505092915050565b60008135905061066881610a28565b92915050565b60006020828403121561068057600080fd5b600061068e84828501610659565b91505092915050565b600080604083850312156106aa57600080fd5b60006106b885828601610659565b925050602083013567ffffffffffffffff8111156106d557600080fd5b6106e18582860161062f565b9150509250929050565b60008060006060848603121561070057600080fd5b600061070e86828701610659565b935050602084013567ffffffffffffffff81111561072b57600080fd5b6107378682870161062f565b925050604084013567ffffffffffffffff81111561075457600080fd5b6107608682870161062f565b9150509250925092565b60006107758261091f565b61077f818561092a565b935061078f818560208601610954565b61079881610a17565b840191505092915050565b60006107b060138361092a565b91507f4974656d20646f6573206e6f74206578697374000000000000000000000000006000830152602082019050919050565b6107ec8161093b565b82525050565b6000604082019050818103600083015261080c818561076a565b90508181036020830152610820818461076a565b90509392505050565b60006020820190508181036000830152610842816107a3565b9050919050565b600060408201905061085e60008301856107e3565b8181036020830152610870818461076a565b90509392505050565b600060608201905061088e60008301866107e3565b81810360208301526108a0818561076a565b905081810360408301526108b4818461076a565b9050949350505050565b6000604051905081810181811067ffffffffffffffff821117156108e5576108e46109e8565b5b8060405250919050565b600067ffffffffffffffff82111561090a576109096109e8565b5b601f19601f8301169050602081019050919050565b600081519050919050565b600082825260208201905092915050565b6000819050919050565b82818337600083830152505050565b60005b83811015610972578082015181840152602081019050610957565b83811115610981576000848401525b50505050565b6000600282049050600182168061099f57607f821691505b602082108114156109b3576109b26109b9565b5b50919050565b7f4e487b7100000000000000000000000000000000000000000000000000000000600052602260045260246000fd5b7f4e487b7100000000000000000000000000000000000000000000000000000000600052604160045260246000fd5b6000601f19601f8301169050919050565b610a318161093b565b8114610a3c57600080fd5b5056fea264697066735822122098f1daf3d6253ed2852b3961a71392bcb63864debb7980785ec6773fca5ad98064736f6c63430008000033",
  "immutableReferences": {},
  "source": "// SPDX-License-Identifier: MIT\npragma solidity ^0.8.0;\n\ncontract SupplyChain {\n    struct Item {\n        string name;\n        string status;\n    }\n\n    mapping(uint256 => Item) public items;\n\n    event ItemAdded(uint256 itemId, string name, string status);\n    event StatusUpdated(uint256 itemId, string newStatus);\n\n    function addItem(uint256 itemId, string memory name, string memory status) public {\n        items[itemId] = Item(name, status);\n        emit ItemAdded(itemId, name, status);\n    }\n\n    function updateStatus(uint256 itemId, string memory newStatus) public {\n        require(bytes(items[itemId].name).length > 0, \"Item does not exist\");\n        items[itemId].status = newStatus;\n        emit StatusUpdated(itemId, newStatus);\n    }\n\n    function getItem(uint256 itemId) public view returns (string memory, string memory) {\n        require(bytes(items[itemId].name).length > 0, \"Item does not exist\");\n        Item memory item = items[itemId];\n        return (item.name, item.status);\n    }\n}",
  "sourcePath": "/Users/nicholasliem/Desktop/Repository/Personal/Blockchain/contract/contracts/SupplyChain.sol",
  "compiler": {
    "name": "solc",
    "version": "0.8.0+commit.c7dfd78e.Emscripten.clang"
  },
  "schemaVersion": "3.4.16",
  "updatedAt": "2024-12-23T14:10:10.391Z",
  "networkType": "ethereum",
  "devdoc": {
    "kind": "dev",
    "methods": {},
    "version": 1
  },
  "userdoc": {
    "kind": "user",
    "methods": {},
    "version": 1
  }
}