{
  "contractName": "SupplyChain",
  "abi": [
    {
      "inputs": [],
      "stateMutability": "nonpayable",
      "type": "constructor"
    },
    {
      "anonymous": false,
      "inputs": [
        {
          "indexed": true,
          "internalType": "bytes32",
          "name": "transactionHash",
          "type": "bytes32"
        },
        {
          "indexed": true,
          "internalType": "address",
          "name": "exporter",
          "type": "address"
        },
        {
          "indexed": true,
          "internalType": "address",
          "name": "recipient",
          "type": "address"
        }
      ],
      "name": "ItemExported",
      "type": "event"
    },
    {
      "anonymous": false,
      "inputs": [
        {
          "indexed": true,
          "internalType": "bytes32",
          "name": "transactionHash",
          "type": "bytes32"
        },
        {
          "indexed": false,
          "internalType": "string",
          "name": "newStatus",
          "type": "string"
        },
        {
          "indexed": false,
          "internalType": "uint256",
          "name": "timestamp",
          "type": "uint256"
        }
      ],
      "name": "StatusUpdated",
      "type": "event"
    },
    {
      "anonymous": false,
      "inputs": [
        {
          "indexed": false,
          "internalType": "uint256",
          "name": "timestamp",
          "type": "uint256"
        }
      ],
      "name": "TimeUpdated",
      "type": "event"
    },
    {
      "anonymous": false,
      "inputs": [
        {
          "indexed": true,
          "internalType": "address",
          "name": "wallet",
          "type": "address"
        },
        {
          "indexed": false,
          "internalType": "string",
          "name": "name",
          "type": "string"
        }
      ],
      "name": "WalletNameRegistered",
      "type": "event"
    },
    {
      "inputs": [
        {
          "internalType": "address",
          "name": "wallet",
          "type": "address"
        }
      ],
      "name": "deriveWallet",
      "outputs": [
        {
          "internalType": "bytes32",
          "name": "",
          "type": "bytes32"
        }
      ],
      "stateMutability": "pure",
      "type": "function",
      "constant": true
    },
    {
      "inputs": [
        {
          "internalType": "bytes32",
          "name": "derivedWallet",
          "type": "bytes32"
        }
      ],
      "name": "getAsset",
      "outputs": [
        {
          "internalType": "bytes32[]",
          "name": "",
          "type": "bytes32[]"
        }
      ],
      "stateMutability": "view",
      "type": "function",
      "constant": true
    },
    {
      "inputs": [
        {
          "internalType": "bytes32",
          "name": "derivedWallet",
          "type": "bytes32"
        }
      ],
      "name": "getInbox",
      "outputs": [
        {
          "internalType": "bytes32[]",
          "name": "",
          "type": "bytes32[]"
        }
      ],
      "stateMutability": "view",
      "type": "function",
      "constant": true
    },
    {
      "inputs": [
        {
          "internalType": "string",
          "name": "name",
          "type": "string"
        }
      ],
      "name": "getWalletByName",
      "outputs": [
        {
          "internalType": "address",
          "name": "",
          "type": "address"
        }
      ],
      "stateMutability": "view",
      "type": "function",
      "constant": true
    },
    {
      "inputs": [
        {
          "internalType": "address",
          "name": "wallet",
          "type": "address"
        }
      ],
      "name": "getWalletName",
      "outputs": [
        {
          "internalType": "string",
          "name": "",
          "type": "string"
        }
      ],
      "stateMutability": "view",
      "type": "function",
      "constant": true
    },
    {
      "inputs": [],
      "name": "lastUpdatedTime",
      "outputs": [
        {
          "internalType": "uint256",
          "name": "",
          "type": "uint256"
        }
      ],
      "stateMutability": "view",
      "type": "function",
      "constant": true
    },
    {
      "inputs": [],
      "name": "oracle",
      "outputs": [
        {
          "internalType": "address",
          "name": "",
          "type": "address"
        }
      ],
      "stateMutability": "view",
      "type": "function",
      "constant": true
    },
    {
      "inputs": [
        {
          "internalType": "string",
          "name": "name",
          "type": "string"
        }
      ],
      "name": "registerWalletName",
      "outputs": [],
      "stateMutability": "nonpayable",
      "type": "function"
    },
    {
      "inputs": [
        {
          "internalType": "uint256",
          "name": "",
          "type": "uint256"
        }
      ],
      "name": "transactionHashes",
      "outputs": [
        {
          "internalType": "bytes32",
          "name": "",
          "type": "bytes32"
        }
      ],
      "stateMutability": "view",
      "type": "function",
      "constant": true
    },
    {
      "inputs": [
        {
          "internalType": "address",
          "name": "_oracle",
          "type": "address"
        }
      ],
      "name": "setOracle",
      "outputs": [],
      "stateMutability": "nonpayable",
      "type": "function"
    },
    {
      "inputs": [
        {
          "internalType": "string",
          "name": "product",
          "type": "string"
        },
        {
          "internalType": "uint256",
          "name": "qty",
          "type": "uint256"
        },
        {
          "internalType": "uint256",
          "name": "value",
          "type": "uint256"
        },
        {
          "internalType": "address",
          "name": "recipient",
          "type": "address"
        }
      ],
      "name": "exportItem",
      "outputs": [
        {
          "internalType": "bytes32",
          "name": "",
          "type": "bytes32"
        }
      ],
      "stateMutability": "nonpayable",
      "type": "function"
    },
    {
      "inputs": [
        {
          "internalType": "bytes32",
          "name": "transactionHash",
          "type": "bytes32"
        }
      ],
      "name": "confirmItem",
      "outputs": [],
      "stateMutability": "nonpayable",
      "type": "function"
    },
    {
      "inputs": [
        {
          "internalType": "bytes32",
          "name": "transactionHash",
          "type": "bytes32"
        }
      ],
      "name": "getItemDetails",
      "outputs": [
        {
          "components": [
            {
              "internalType": "string",
              "name": "product",
              "type": "string"
            },
            {
              "internalType": "uint256",
              "name": "qty",
              "type": "uint256"
            },
            {
              "internalType": "uint256",
              "name": "value",
              "type": "uint256"
            },
            {
              "internalType": "address",
              "name": "exporter",
              "type": "address"
            },
            {
              "internalType": "address",
              "name": "recipient",
              "type": "address"
            },
            {
              "internalType": "string",
              "name": "status",
              "type": "string"
            },
            {
              "internalType": "uint256[]",
              "name": "statusTimestamps",
              "type": "uint256[]"
            }
          ],
          "internalType": "struct SupplyChain.Item",
          "name": "",
          "type": "tuple"
        }
      ],
      "stateMutability": "view",
      "type": "function",
      "constant": true
    }
  ],
  "bytecode": "0x608060405234801561001057600080fd5b5033600560006101000a81548173ffffffffffffffffffffffffffffffffffffffff021916908373ffffffffffffffffffffffffffffffffffffffff1602179055504260068190555061231f806100686000396000f3fe608060405234801561001057600080fd5b50600436106100cf5760003560e01c80637f97ecdb1161008c578063bf85689511610066578063bf8568951461024a578063c3b77da814610268578063d1e3d12014610298578063fc9ed250146102c8576100cf565b80637f97ecdb146101ba5780639e9516c4146101ea578063a967028a1461021a576100cf565b8063140dab44146100d4578063177fe9a314610104578063213dafcd146101205780632cc3ce80146101505780637adbf973146101805780637dc0d1d01461019c575b600080fd5b6100ee60048036038101906100e9919061150c565b6102e4565b6040516100fb9190611d81565b60405180910390f35b61011e6004803603810190610119919061155e565b610314565b005b61013a6004803603810190610135919061161a565b610507565b6040516101479190611d81565b60405180910390f35b61016a60048036038101906101659190611535565b61052b565b6040516101779190611d5f565b60405180910390f35b61019a6004803603810190610195919061150c565b610596565b005b6101a461066a565b6040516101b19190611d44565b60405180910390f35b6101d460048036038101906101cf919061155e565b610690565b6040516101e19190611d44565b60405180910390f35b61020460048036038101906101ff9190611535565b61074d565b6040516102119190611d5f565b60405180910390f35b610234600480360381019061022f919061150c565b6107b7565b6040516102419190611d9c565b60405180910390f35b610252610888565b60405161025f9190611f4e565b60405180910390f35b610282600480360381019061027d919061159f565b61088e565b60405161028f9190611d81565b60405180910390f35b6102b260048036038101906102ad9190611535565b610bc3565b6040516102bf9190611f2c565b60405180910390f35b6102e260048036038101906102dd9190611535565b610f52565b005b6000816040516020016102f79190611c8f565b604051602081830303815290604052805190602001209050919050565b6000815111610358576040517f08c379a000000000000000000000000000000000000000000000000000000000815260040161034f90611dde565b60405180910390fd5b600073ffffffffffffffffffffffffffffffffffffffff166003826040516103809190611d2d565b908152602001604051809103902060009054906101000a900473ffffffffffffffffffffffffffffffffffffffff1673ffffffffffffffffffffffffffffffffffffffff1614610405576040517f08c379a00000000000000000000000000000000000000000000000000000000081526004016103fc90611dbe565b60405180910390fd5b80600260003373ffffffffffffffffffffffffffffffffffffffff1673ffffffffffffffffffffffffffffffffffffffff1681526020019081526020016000209080519060200190610458929190611359565b503360038260405161046a9190611d2d565b908152602001604051809103902060006101000a81548173ffffffffffffffffffffffffffffffffffffffff021916908373ffffffffffffffffffffffffffffffffffffffff1602179055503373ffffffffffffffffffffffffffffffffffffffff167fb58d93ac4c67a87abc002d6578e1bea0250b7e405d62d47f0c3043a115834ad1826040516104fc9190611d9c565b60405180910390a250565b6007818154811061051757600080fd5b906000526020600020016000915090505481565b60606001600083815260200190815260200160002080548060200260200160405190810160405280929190818152602001828054801561058a57602002820191906000526020600020905b815481526020019060010190808311610576575b50505050509050919050565b600560009054906101000a900473ffffffffffffffffffffffffffffffffffffffff1673ffffffffffffffffffffffffffffffffffffffff163373ffffffffffffffffffffffffffffffffffffffff1614610626576040517f08c379a000000000000000000000000000000000000000000000000000000000815260040161061d90611f0c565b60405180910390fd5b80600560006101000a81548173ffffffffffffffffffffffffffffffffffffffff021916908373ffffffffffffffffffffffffffffffffffffffff16021790555050565b600560009054906101000a900473ffffffffffffffffffffffffffffffffffffffff1681565b6000806003836040516106a39190611d2d565b908152602001604051809103902060009054906101000a900473ffffffffffffffffffffffffffffffffffffffff169050600073ffffffffffffffffffffffffffffffffffffffff168173ffffffffffffffffffffffffffffffffffffffff161415610744576040517f08c379a000000000000000000000000000000000000000000000000000000000815260040161073b90611dfe565b60405180910390fd5b80915050919050565b60606000808381526020019081526020016000208054806020026020016040519081016040528092919081815260200182805480156107ab57602002820191906000526020600020905b815481526020019060010190808311610797575b50505050509050919050565b6060600260008373ffffffffffffffffffffffffffffffffffffffff1673ffffffffffffffffffffffffffffffffffffffff168152602001908152602001600020805461080390612150565b80601f016020809104026020016040519081016040528092919081815260200182805461082f90612150565b801561087c5780601f106108515761010080835404028352916020019161087c565b820191906000526020600020905b81548152906001019060200180831161085f57829003601f168201915b50505050509050919050565b60065481565b60008073ffffffffffffffffffffffffffffffffffffffff168273ffffffffffffffffffffffffffffffffffffffff1614156108ff576040517f08c379a00000000000000000000000000000000000000000000000000000000081526004016108f690611e3e565b60405180910390fd5b600033834288888860405160200161091c96959493929190611caa565b604051602081830303815290604052805190602001209050600073ffffffffffffffffffffffffffffffffffffffff166004600083815260200190815260200160002060030160009054906101000a900473ffffffffffffffffffffffffffffffffffffffff1673ffffffffffffffffffffffffffffffffffffffff16146109d9576040517f08c379a00000000000000000000000000000000000000000000000000000000081526004016109d090611eac565b60405180910390fd5b600060046000838152602001908152602001600020905086816000019080519060200190610a08929190611359565b50858160010181905550848160020181905550338160030160006101000a81548173ffffffffffffffffffffffffffffffffffffffff021916908373ffffffffffffffffffffffffffffffffffffffff160217905550838160040160006101000a81548173ffffffffffffffffffffffffffffffffffffffff021916908373ffffffffffffffffffffffffffffffffffffffff1602179055506040518060400160405280600881526020017f4558504f52544544000000000000000000000000000000000000000000000000815250816005019080519060200190610aee929190611359565b50806006014290806001815401808255809150506001900390600052602060002001600090919091909150556000610b25856102e4565b9050610b318184611168565b60078390806001815401808255809150506001900390600052602060002001600090919091909150558473ffffffffffffffffffffffffffffffffffffffff163373ffffffffffffffffffffffffffffffffffffffff16847f8cabda4ff5d88802c4200cd965df85fe466ae1fc1e011594df1b44d023c2357f60405160405180910390a4829350505050949350505050565b610bcb6113df565b6000600460008481526020019081526020016000206040518060e0016040529081600082018054610bfb90612150565b80601f0160208091040260200160405190810160405280929190818152602001828054610c2790612150565b8015610c745780601f10610c4957610100808354040283529160200191610c74565b820191906000526020600020905b815481529060010190602001808311610c5757829003601f168201915b5050505050815260200160018201548152602001600282015481526020016003820160009054906101000a900473ffffffffffffffffffffffffffffffffffffffff1673ffffffffffffffffffffffffffffffffffffffff1673ffffffffffffffffffffffffffffffffffffffff1681526020016004820160009054906101000a900473ffffffffffffffffffffffffffffffffffffffff1673ffffffffffffffffffffffffffffffffffffffff1673ffffffffffffffffffffffffffffffffffffffff168152602001600582018054610d4d90612150565b80601f0160208091040260200160405190810160405280929190818152602001828054610d7990612150565b8015610dc65780601f10610d9b57610100808354040283529160200191610dc6565b820191906000526020600020905b815481529060010190602001808311610da957829003601f168201915b5050505050815260200160068201805480602002602001604051908101604052809291908181526020018280548015610e1e57602002820191906000526020600020905b815481526020019060010190808311610e0a575b5050505050815250509050600073ffffffffffffffffffffffffffffffffffffffff16816060015173ffffffffffffffffffffffffffffffffffffffff161415610e9d576040517f08c379a0000000000000000000000000000000000000000000000000000000008152600401610e9490611e5e565b60405180910390fd5b806060015173ffffffffffffffffffffffffffffffffffffffff163373ffffffffffffffffffffffffffffffffffffffff161480610f0a5750806080015173ffffffffffffffffffffffffffffffffffffffff163373ffffffffffffffffffffffffffffffffffffffff16145b610f49576040517f08c379a0000000000000000000000000000000000000000000000000000000008152600401610f4090611eec565b60405180910390fd5b80915050919050565b60006004600083815260200190815260200160002090503373ffffffffffffffffffffffffffffffffffffffff168160040160009054906101000a900473ffffffffffffffffffffffffffffffffffffffff1673ffffffffffffffffffffffffffffffffffffffff1614610ffb576040517f08c379a0000000000000000000000000000000000000000000000000000000008152600401610ff290611e1e565b60405180910390fd5b6040518060400160405280600881526020017f4558504f5254454400000000000000000000000000000000000000000000000081525080519060200120816005016040516110499190611d16565b604051809103902014611091576040517f08c379a000000000000000000000000000000000000000000000000000000000815260040161108890611ecc565b60405180910390fd5b6040518060400160405280600881526020017f494d504f525445440000000000000000000000000000000000000000000000008152508160050190805190602001906110de929190611359565b50806006014290806001815401808255809150506001900390600052602060002001600090919091909150556000611115336102e4565b905061112181846111a5565b61112b818461131b565b827f6f2d58d35fe763ab9b31dd965e80a2ba8746ed797ec9e928ac99c40f0e9e86004260405161115b9190611e7e565b60405180910390a2505050565b6000808381526020019081526020016000208190806001815401808255809150506001900390600052602060002001600090919091909150555050565b6000806000848152602001908152602001600020905060005b81805490508110156113155782828281548110611204577f4e487b7100000000000000000000000000000000000000000000000000000000600052603260045260246000fd5b906000526020600020015414156113025781600183805490506112279190612094565b8154811061125e577f4e487b7100000000000000000000000000000000000000000000000000000000600052603260045260246000fd5b90600052602060002001548282815481106112a2577f4e487b7100000000000000000000000000000000000000000000000000000000600052603260045260246000fd5b9060005260206000200181905550818054806112e7577f4e487b7100000000000000000000000000000000000000000000000000000000600052603160045260246000fd5b60019003818190600052602060002001600090559055611315565b808061130d90612182565b9150506111be565b50505050565b600160008381526020019081526020016000208190806001815401808255809150506001900390600052602060002001600090919091909150555050565b82805461136590612150565b90600052602060002090601f01602090048101928261138757600085556113ce565b82601f106113a057805160ff19168380011785556113ce565b828001600101855582156113ce579182015b828111156113cd5782518255916020019190600101906113b2565b5b5090506113db9190611448565b5090565b6040518060e00160405280606081526020016000815260200160008152602001600073ffffffffffffffffffffffffffffffffffffffff168152602001600073ffffffffffffffffffffffffffffffffffffffff16815260200160608152602001606081525090565b5b80821115611461576000816000905550600101611449565b5090565b600061147861147384611f9a565b611f69565b90508281526020810184848401111561149057600080fd5b61149b84828561210e565b509392505050565b6000813590506114b2816122a4565b92915050565b6000813590506114c7816122bb565b92915050565b600082601f8301126114de57600080fd5b81356114ee848260208601611465565b91505092915050565b600081359050611506816122d2565b92915050565b60006020828403121561151e57600080fd5b600061152c848285016114a3565b91505092915050565b60006020828403121561154757600080fd5b6000611555848285016114b8565b91505092915050565b60006020828403121561157057600080fd5b600082013567ffffffffffffffff81111561158a57600080fd5b611596848285016114cd565b91505092915050565b600080600080608085870312156115b557600080fd5b600085013567ffffffffffffffff8111156115cf57600080fd5b6115db878288016114cd565b94505060206115ec878288016114f7565b93505060406115fd878288016114f7565b925050606061160e878288016114a3565b91505092959194509250565b60006020828403121561162c57600080fd5b600061163a848285016114f7565b91505092915050565b600061164f8383611764565b60208301905092915050565b60006116678383611c5a565b60208301905092915050565b61167c816120c8565b82525050565b61168b816120c8565b82525050565b6116a261169d826120c8565b6121cb565b82525050565b60006116b382611fff565b6116bd818561203a565b93506116c883611fca565b8060005b838110156116f95781516116e08882611643565b97506116eb83612020565b9250506001810190506116cc565b5085935050505092915050565b60006117118261200a565b61171b818561204b565b935061172683611fda565b8060005b8381101561175757815161173e888261165b565b97506117498361202d565b92505060018101905061172a565b5085935050505092915050565b61176d816120da565b82525050565b61177c816120da565b82525050565b6000815461178f81612150565b611799818661205c565b945060018216600081146117b457600181146117c5576117f8565b60ff198316865281860193506117f8565b6117ce85611fea565b60005b838110156117f0578154818901526001820191506020810190506117d1565b838801955050505b50505092915050565b600061180c82612015565b6118168185612067565b935061182681856020860161211d565b61182f81612286565b840191505092915050565b600061184582612015565b61184f8185612078565b935061185f81856020860161211d565b61186881612286565b840191505092915050565b600061187e82612015565b6118888185612089565b935061189881856020860161211d565b80840191505092915050565b60006118b1601283612078565b91507f4e616d6520616c72656164792074616b656e00000000000000000000000000006000830152602082019050919050565b60006118f1601483612078565b91507f4e616d652063616e6e6f7420626520656d7074790000000000000000000000006000830152602082019050919050565b6000611931601083612078565b91507f57616c6c6574206e6f7420666f756e64000000000000000000000000000000006000830152602082019050919050565b6000611971602883612078565b91507f4f6e6c792074686520726563697069656e742063616e20636f6e6669726d207460008301527f686973206974656d0000000000000000000000000000000000000000000000006020830152604082019050919050565b60006119d7602083612078565b91507f526563697069656e7420616464726573732063616e6e6f74206265207a65726f6000830152602082019050919050565b6000611a17601383612078565b91507f4974656d20646f6573206e6f74206578697374000000000000000000000000006000830152602082019050919050565b6000611a57600883612078565b91507f494d504f525445440000000000000000000000000000000000000000000000006000830152602082019050919050565b6000611a97601383612078565b91507f4974656d20616c726561647920657869737473000000000000000000000000006000830152602082019050919050565b6000611ad7601e83612078565b91507f4974656d206973206e6f7420696e204558504f525445442073746174757300006000830152602082019050919050565b6000611b17602a83612078565b91507f4e6f7420617574686f72697a656420746f20766965772074686973206974656d60008301527f27732064657461696c73000000000000000000000000000000000000000000006020830152604082019050919050565b6000611b7d600e83612078565b91507f4e6f7420617574686f72697a65640000000000000000000000000000000000006000830152602082019050919050565b600060e0830160008301518482036000860152611bcd8282611801565b9150506020830151611be26020860182611c5a565b506040830151611bf56040860182611c5a565b506060830151611c086060860182611673565b506080830151611c1b6080860182611673565b5060a083015184820360a0860152611c338282611801565b91505060c083015184820360c0860152611c4d8282611706565b9150508091505092915050565b611c6381612104565b82525050565b611c7281612104565b82525050565b611c89611c8482612104565b6121ef565b82525050565b6000611c9b8284611691565b60148201915081905092915050565b6000611cb68289611691565b601482019150611cc68288611691565b601482019150611cd68287611c78565b602082019150611ce68286611873565b9150611cf28285611c78565b602082019150611d028284611c78565b602082019150819050979650505050505050565b6000611d228284611782565b915081905092915050565b6000611d398284611873565b915081905092915050565b6000602082019050611d596000830184611682565b92915050565b60006020820190508181036000830152611d7981846116a8565b905092915050565b6000602082019050611d966000830184611773565b92915050565b60006020820190508181036000830152611db6818461183a565b905092915050565b60006020820190508181036000830152611dd7816118a4565b9050919050565b60006020820190508181036000830152611df7816118e4565b9050919050565b60006020820190508181036000830152611e1781611924565b9050919050565b60006020820190508181036000830152611e3781611964565b9050919050565b60006020820190508181036000830152611e57816119ca565b9050919050565b60006020820190508181036000830152611e7781611a0a565b9050919050565b60006040820190508181036000830152611e9781611a4a565b9050611ea66020830184611c69565b92915050565b60006020820190508181036000830152611ec581611a8a565b9050919050565b60006020820190508181036000830152611ee581611aca565b9050919050565b60006020820190508181036000830152611f0581611b0a565b9050919050565b60006020820190508181036000830152611f2581611b70565b9050919050565b60006020820190508181036000830152611f468184611bb0565b905092915050565b6000602082019050611f636000830184611c69565b92915050565b6000604051905081810181811067ffffffffffffffff82111715611f9057611f8f612257565b5b8060405250919050565b600067ffffffffffffffff821115611fb557611fb4612257565b5b601f19601f8301169050602081019050919050565b6000819050602082019050919050565b6000819050602082019050919050565b60008190508160005260206000209050919050565b600081519050919050565b600081519050919050565b600081519050919050565b6000602082019050919050565b6000602082019050919050565b600082825260208201905092915050565b600082825260208201905092915050565b600081905092915050565b600082825260208201905092915050565b600082825260208201905092915050565b600081905092915050565b600061209f82612104565b91506120aa83612104565b9250828210156120bd576120bc6121f9565b5b828203905092915050565b60006120d3826120e4565b9050919050565b6000819050919050565b600073ffffffffffffffffffffffffffffffffffffffff82169050919050565b6000819050919050565b82818337600083830152505050565b60005b8381101561213b578082015181840152602081019050612120565b8381111561214a576000848401525b50505050565b6000600282049050600182168061216857607f821691505b6020821081141561217c5761217b612228565b5b50919050565b600061218d82612104565b91507fffffffffffffffffffffffffffffffffffffffffffffffffffffffffffffffff8214156121c0576121bf6121f9565b5b600182019050919050565b60006121d6826121dd565b9050919050565b60006121e882612297565b9050919050565b6000819050919050565b7f4e487b7100000000000000000000000000000000000000000000000000000000600052601160045260246000fd5b7f4e487b7100000000000000000000000000000000000000000000000000000000600052602260045260246000fd5b7f4e487b7100000000000000000000000000000000000000000000000000000000600052604160045260246000fd5b6000601f19601f8301169050919050565b60008160601b9050919050565b6122ad816120c8565b81146122b857600080fd5b50565b6122c4816120da565b81146122cf57600080fd5b50565b6122db81612104565b81146122e657600080fd5b5056fea2646970667358221220b8ea50ee8d1eb382cdb6b466f7929adb05bd1feee948625cfc414a813512a3d764736f6c63430008000033",
  "immutableReferences": {},
  "source": "// SPDX-License-Identifier: MIT\npragma solidity ^0.8.0;\n\nimport \"./DerivedWallet.sol\";\nimport \"./WalletManager.sol\";\n\ncontract SupplyChain is DerivedWallet, WalletManager {\n    struct Item {\n        string product;\n        uint256 qty;\n        uint256 value;\n        address exporter;\n        address recipient; // Original Ethereum wallet\n        string status; // EXPORTED, IMPORTED, CANCELLED\n        uint256[] statusTimestamps;\n    }\n\n    mapping(bytes32 => Item) private items; // transactionHash => Item\n    address public oracle;\n    uint256 public lastUpdatedTime;\n    bytes32[] public transactionHashes;\n\n    event ItemExported(bytes32 indexed transactionHash, address indexed exporter, address indexed recipient);\n    event StatusUpdated(bytes32 indexed transactionHash, string newStatus, uint256 timestamp);\n    event TimeUpdated(uint256 timestamp);\n\n    constructor() {\n        oracle = msg.sender;\n        lastUpdatedTime = block.timestamp;\n    }\n\n    modifier onlyOracle() {\n        require(msg.sender == oracle, \"Not authorized\");\n        _;\n    }\n\n    function setOracle(address _oracle) public onlyOracle {\n        oracle = _oracle;\n    }\n\n    function exportItem(\n        string memory product,\n        uint256 qty,\n        uint256 value,\n        address recipient\n    ) public returns (bytes32) {\n        require(recipient != address(0), \"Recipient address cannot be zero\");\n\n        bytes32 transactionHash = keccak256(\n            abi.encodePacked(msg.sender, recipient, block.timestamp, product, qty, value)\n        );\n\n        require(items[transactionHash].exporter == address(0), \"Item already exists\");\n\n        Item storage newItem = items[transactionHash];\n        newItem.product = product;\n        newItem.qty = qty;\n        newItem.value = value;\n        newItem.exporter = msg.sender;\n        newItem.recipient = recipient;\n        newItem.status = \"EXPORTED\";\n        newItem.statusTimestamps.push(block.timestamp);\n\n        bytes32 derivedWallet = deriveWallet(recipient);\n        addToInbox(derivedWallet, transactionHash);\n\n        transactionHashes.push(transactionHash);\n\n        emit ItemExported(transactionHash, msg.sender, recipient);\n        return transactionHash;\n    }\n\n    function confirmItem(bytes32 transactionHash) public {\n        Item storage item = items[transactionHash];\n        require(item.recipient == msg.sender, \"Only the recipient can confirm this item\");\n        require(\n            keccak256(bytes(item.status)) == keccak256(bytes(\"EXPORTED\")),\n            \"Item is not in EXPORTED status\"\n        );\n\n        item.status = \"IMPORTED\";\n        item.statusTimestamps.push(block.timestamp);\n\n        bytes32 derivedWallet = deriveWallet(msg.sender);\n        removeFromInbox(derivedWallet, transactionHash);\n        addToAsset(derivedWallet, transactionHash);\n\n        emit StatusUpdated(transactionHash, \"IMPORTED\", block.timestamp);\n    }\n\n    function getItemDetails(bytes32 transactionHash) public view returns (Item memory) {\n        Item memory item = items[transactionHash];\n        require(item.exporter != address(0), \"Item does not exist\");\n        require(\n            msg.sender == item.exporter || msg.sender == item.recipient,\n            \"Not authorized to view this item's details\"\n        );\n        return item;\n    }\n}",
  "sourcePath": "/Users/nicholasliem/Desktop/Repository/Personal/Blockchain/contract/contracts/SupplyChain.sol",
  "compiler": {
    "name": "solc",
    "version": "0.8.0+commit.c7dfd78e.Emscripten.clang"
  },
  "schemaVersion": "3.4.16",
  "updatedAt": "2024-12-26T14:16:45.749Z",
  "networkType": "ethereum",
  "devdoc": {
    "kind": "dev",
    "methods": {},
    "version": 1
  },
  "userdoc": {
    "kind": "user",
    "methods": {},
    "version": 1
  }
}