{
  "contractName": "SupplyChain",
  "abi": [
    {
      "inputs": [],
      "stateMutability": "nonpayable",
      "type": "constructor"
    },
    {
      "anonymous": false,
      "inputs": [
        {
          "indexed": true,
          "internalType": "bytes32",
          "name": "transactionHash",
          "type": "bytes32"
        },
        {
          "indexed": true,
          "internalType": "address",
          "name": "exporter",
          "type": "address"
        },
        {
          "indexed": true,
          "internalType": "address",
          "name": "recipient",
          "type": "address"
        }
      ],
      "name": "ItemExported",
      "type": "event"
    },
    {
      "anonymous": false,
      "inputs": [
        {
          "indexed": true,
          "internalType": "bytes32",
          "name": "transactionHash",
          "type": "bytes32"
        },
        {
          "indexed": false,
          "internalType": "string",
          "name": "newStatus",
          "type": "string"
        },
        {
          "indexed": false,
          "internalType": "uint256",
          "name": "timestamp",
          "type": "uint256"
        }
      ],
      "name": "StatusUpdated",
      "type": "event"
    },
    {
      "anonymous": false,
      "inputs": [
        {
          "indexed": false,
          "internalType": "uint256",
          "name": "timestamp",
          "type": "uint256"
        }
      ],
      "name": "TimeUpdated",
      "type": "event"
    },
    {
      "inputs": [],
      "name": "lastUpdatedTime",
      "outputs": [
        {
          "internalType": "uint256",
          "name": "",
          "type": "uint256"
        }
      ],
      "stateMutability": "view",
      "type": "function",
      "constant": true
    },
    {
      "inputs": [],
      "name": "oracle",
      "outputs": [
        {
          "internalType": "address",
          "name": "",
          "type": "address"
        }
      ],
      "stateMutability": "view",
      "type": "function",
      "constant": true
    },
    {
      "inputs": [
        {
          "internalType": "uint256",
          "name": "",
          "type": "uint256"
        }
      ],
      "name": "transactionHashes",
      "outputs": [
        {
          "internalType": "bytes32",
          "name": "",
          "type": "bytes32"
        }
      ],
      "stateMutability": "view",
      "type": "function",
      "constant": true
    },
    {
      "inputs": [
        {
          "internalType": "address",
          "name": "_oracle",
          "type": "address"
        }
      ],
      "name": "setOracle",
      "outputs": [],
      "stateMutability": "nonpayable",
      "type": "function"
    },
    {
      "inputs": [
        {
          "internalType": "string",
          "name": "product",
          "type": "string"
        },
        {
          "internalType": "uint256",
          "name": "qty",
          "type": "uint256"
        },
        {
          "internalType": "uint256",
          "name": "value",
          "type": "uint256"
        },
        {
          "internalType": "address",
          "name": "recipient",
          "type": "address"
        }
      ],
      "name": "exportItem",
      "outputs": [
        {
          "internalType": "bytes32",
          "name": "",
          "type": "bytes32"
        }
      ],
      "stateMutability": "nonpayable",
      "type": "function"
    },
    {
      "inputs": [
        {
          "internalType": "bytes32",
          "name": "transactionHash",
          "type": "bytes32"
        }
      ],
      "name": "confirmItem",
      "outputs": [],
      "stateMutability": "nonpayable",
      "type": "function"
    },
    {
      "inputs": [
        {
          "internalType": "bytes32",
          "name": "transactionHash",
          "type": "bytes32"
        }
      ],
      "name": "denyItem",
      "outputs": [],
      "stateMutability": "nonpayable",
      "type": "function"
    },
    {
      "inputs": [
        {
          "internalType": "bytes32",
          "name": "transactionHash",
          "type": "bytes32"
        }
      ],
      "name": "getItemDetails",
      "outputs": [
        {
          "components": [
            {
              "internalType": "string",
              "name": "product",
              "type": "string"
            },
            {
              "internalType": "uint256",
              "name": "qty",
              "type": "uint256"
            },
            {
              "internalType": "uint256",
              "name": "value",
              "type": "uint256"
            },
            {
              "internalType": "address",
              "name": "exporter",
              "type": "address"
            },
            {
              "internalType": "address",
              "name": "recipient",
              "type": "address"
            },
            {
              "internalType": "string",
              "name": "status",
              "type": "string"
            },
            {
              "internalType": "uint256[]",
              "name": "statusTimestamps",
              "type": "uint256[]"
            }
          ],
          "internalType": "struct SupplyChain.Item",
          "name": "",
          "type": "tuple"
        }
      ],
      "stateMutability": "view",
      "type": "function",
      "constant": true
    },
    {
      "inputs": [
        {
          "internalType": "bytes32",
          "name": "transactionHash",
          "type": "bytes32"
        }
      ],
      "name": "getStatusLog",
      "outputs": [
        {
          "internalType": "uint256[]",
          "name": "",
          "type": "uint256[]"
        }
      ],
      "stateMutability": "view",
      "type": "function",
      "constant": true
    },
    {
      "inputs": [
        {
          "internalType": "bytes32",
          "name": "transactionHash",
          "type": "bytes32"
        }
      ],
      "name": "getDebugDetails",
      "outputs": [
        {
          "internalType": "address",
          "name": "",
          "type": "address"
        },
        {
          "internalType": "address",
          "name": "",
          "type": "address"
        }
      ],
      "stateMutability": "view",
      "type": "function",
      "constant": true
    },
    {
      "inputs": [],
      "name": "getAllItems",
      "outputs": [
        {
          "internalType": "bytes32[]",
          "name": "",
          "type": "bytes32[]"
        },
        {
          "internalType": "string[]",
          "name": "",
          "type": "string[]"
        },
        {
          "internalType": "uint256[]",
          "name": "",
          "type": "uint256[]"
        },
        {
          "internalType": "uint256[]",
          "name": "",
          "type": "uint256[]"
        },
        {
          "internalType": "address[]",
          "name": "",
          "type": "address[]"
        },
        {
          "internalType": "address[]",
          "name": "",
          "type": "address[]"
        },
        {
          "internalType": "string[]",
          "name": "",
          "type": "string[]"
        }
      ],
      "stateMutability": "view",
      "type": "function",
      "constant": true
    },
    {
      "inputs": [
        {
          "internalType": "uint256",
          "name": "_time",
          "type": "uint256"
        }
      ],
      "name": "updateTime",
      "outputs": [],
      "stateMutability": "nonpayable",
      "type": "function"
    },
    {
      "inputs": [],
      "name": "getTime",
      "outputs": [
        {
          "internalType": "uint256",
          "name": "",
          "type": "uint256"
        }
      ],
      "stateMutability": "view",
      "type": "function",
      "constant": true
    }
  ],
  "bytecode": "0x608060405234801561001057600080fd5b5033600260006101000a81548173ffffffffffffffffffffffffffffffffffffffff021916908373ffffffffffffffffffffffffffffffffffffffff16021790555042600381905550613666806100686000396000f3fe608060405234801561001057600080fd5b50600436106100cf5760003560e01c80637adbf9731161008c578063bf85689511610066578063bf85689514610219578063c3b77da814610237578063d1e3d12014610267578063fc9ed25014610297576100cf565b80637adbf973146101c35780637dc0d1d0146101df578063a49e5f2c146101fd576100cf565b8063213dafcd146100d4578063310230e4146101045780634ba1d6aa14610135578063557ed1ba146101595780636c59bd0c146101775780636f8d740114610193575b600080fd5b6100ee60048036038101906100e991906121e6565b6102b3565b6040516100fb9190612cc5565b60405180910390f35b61011e60048036038101906101199190612142565b6102d7565b60405161012c929190612bda565b60405180910390f35b61013d61054b565b6040516101509796959493929190612c03565b60405180910390f35b610161610ce1565b60405161016e9190612ea0565b60405180910390f35b610191600480360381019061018c91906121e6565b610ceb565b005b6101ad60048036038101906101a89190612142565b610dbc565b6040516101ba9190612ca3565b60405180910390f35b6101dd60048036038101906101d89190612119565b6110d4565b005b6101e76111a8565b6040516101f49190612bbf565b60405180910390f35b61021760048036038101906102129190612142565b6111ce565b005b6102216113c1565b60405161022e9190612ea0565b60405180910390f35b610251600480360381019061024c919061216b565b6113c7565b60405161025e9190612cc5565b60405180910390f35b610281600480360381019061027c9190612142565b611723565b60405161028e9190612e7e565b60405180910390f35b6102b160048036038101906102ac9190612142565b611af8565b005b600481815481106102c357600080fd5b906000526020600020016000915090505481565b60008060008060008581526020019081526020016000206040518060e00160405290816000820180546103099061345b565b80601f01602080910402602001604051908101604052809291908181526020018280546103359061345b565b80156103825780601f1061035757610100808354040283529160200191610382565b820191906000526020600020905b81548152906001019060200180831161036557829003601f168201915b5050505050815260200160018201548152602001600282015481526020016003820160009054906101000a900473ffffffffffffffffffffffffffffffffffffffff1673ffffffffffffffffffffffffffffffffffffffff1673ffffffffffffffffffffffffffffffffffffffff1681526020016004820160009054906101000a900473ffffffffffffffffffffffffffffffffffffffff1673ffffffffffffffffffffffffffffffffffffffff1673ffffffffffffffffffffffffffffffffffffffff16815260200160058201805461045b9061345b565b80601f01602080910402602001604051908101604052809291908181526020018280546104879061345b565b80156104d45780601f106104a9576101008083540402835291602001916104d4565b820191906000526020600020905b8154815290600101906020018083116104b757829003601f168201915b505050505081526020016006820180548060200260200160405190810160405280929190818152602001828054801561052c57602002820191906000526020600020905b815481526020019060010190808311610518575b5050505050815250509050806060015181608001519250925050915091565b60608060608060608060606000600480549050905060008167ffffffffffffffff8111156105a2577f4e487b7100000000000000000000000000000000000000000000000000000000600052604160045260246000fd5b6040519080825280602002602001820160405280156105d05781602001602082028036833780820191505090505b50905060008267ffffffffffffffff811115610615577f4e487b7100000000000000000000000000000000000000000000000000000000600052604160045260246000fd5b60405190808252806020026020018201604052801561064857816020015b60608152602001906001900390816106335790505b50905060008367ffffffffffffffff81111561068d577f4e487b7100000000000000000000000000000000000000000000000000000000600052604160045260246000fd5b6040519080825280602002602001820160405280156106bb5781602001602082028036833780820191505090505b50905060008467ffffffffffffffff811115610700577f4e487b7100000000000000000000000000000000000000000000000000000000600052604160045260246000fd5b60405190808252806020026020018201604052801561072e5781602001602082028036833780820191505090505b50905060008567ffffffffffffffff811115610773577f4e487b7100000000000000000000000000000000000000000000000000000000600052604160045260246000fd5b6040519080825280602002602001820160405280156107a15781602001602082028036833780820191505090505b50905060008667ffffffffffffffff8111156107e6577f4e487b7100000000000000000000000000000000000000000000000000000000600052604160045260246000fd5b6040519080825280602002602001820160405280156108145781602001602082028036833780820191505090505b50905060008767ffffffffffffffff811115610859577f4e487b7100000000000000000000000000000000000000000000000000000000600052604160045260246000fd5b60405190808252806020026020018201604052801561088c57816020015b60608152602001906001900390816108775790505b50905060005b88811015610cba576000600482815481106108d6577f4e487b7100000000000000000000000000000000000000000000000000000000600052603260045260246000fd5b9060005260206000200154905060008060008381526020019081526020016000209050818a8481518110610933577f4e487b7100000000000000000000000000000000000000000000000000000000600052603260045260246000fd5b60200260200101818152505080600001805461094e9061345b565b80601f016020809104026020016040519081016040528092919081815260200182805461097a9061345b565b80156109c75780601f1061099c576101008083540402835291602001916109c7565b820191906000526020600020905b8154815290600101906020018083116109aa57829003601f168201915b5050505050898481518110610a05577f4e487b7100000000000000000000000000000000000000000000000000000000600052603260045260246000fd5b60200260200101819052508060010154888481518110610a4e577f4e487b7100000000000000000000000000000000000000000000000000000000600052603260045260246000fd5b6020026020010181815250508060020154878481518110610a98577f4e487b7100000000000000000000000000000000000000000000000000000000600052603260045260246000fd5b6020026020010181815250508060030160009054906101000a900473ffffffffffffffffffffffffffffffffffffffff16868481518110610b02577f4e487b7100000000000000000000000000000000000000000000000000000000600052603260045260246000fd5b602002602001019073ffffffffffffffffffffffffffffffffffffffff16908173ffffffffffffffffffffffffffffffffffffffff16815250508060040160009054906101000a900473ffffffffffffffffffffffffffffffffffffffff16858481518110610b9a577f4e487b7100000000000000000000000000000000000000000000000000000000600052603260045260246000fd5b602002602001019073ffffffffffffffffffffffffffffffffffffffff16908173ffffffffffffffffffffffffffffffffffffffff1681525050806005018054610be39061345b565b80601f0160208091040260200160405190810160405280929190818152602001828054610c0f9061345b565b8015610c5c5780601f10610c3157610100808354040283529160200191610c5c565b820191906000526020600020905b815481529060010190602001808311610c3f57829003601f168201915b5050505050848481518110610c9a577f4e487b7100000000000000000000000000000000000000000000000000000000600052603260045260246000fd5b602002602001018190525050508080610cb29061348d565b915050610892565b50868686868686869e509e509e509e509e509e509e50505050505050505090919293949596565b6000600354905090565b600260009054906101000a900473ffffffffffffffffffffffffffffffffffffffff1673ffffffffffffffffffffffffffffffffffffffff163373ffffffffffffffffffffffffffffffffffffffff1614610d7b576040517f08c379a0000000000000000000000000000000000000000000000000000000008152600401610d7290612e5e565b60405180910390fd5b806003819055507f89c93b2d508150920890ffe8618ab7811923d95fa8770ecb495ca54cb15c716981604051610db19190612ea0565b60405180910390a150565b606060008060008481526020019081526020016000206040518060e0016040529081600082018054610ded9061345b565b80601f0160208091040260200160405190810160405280929190818152602001828054610e199061345b565b8015610e665780601f10610e3b57610100808354040283529160200191610e66565b820191906000526020600020905b815481529060010190602001808311610e4957829003601f168201915b5050505050815260200160018201548152602001600282015481526020016003820160009054906101000a900473ffffffffffffffffffffffffffffffffffffffff1673ffffffffffffffffffffffffffffffffffffffff1673ffffffffffffffffffffffffffffffffffffffff1681526020016004820160009054906101000a900473ffffffffffffffffffffffffffffffffffffffff1673ffffffffffffffffffffffffffffffffffffffff1673ffffffffffffffffffffffffffffffffffffffff168152602001600582018054610f3f9061345b565b80601f0160208091040260200160405190810160405280929190818152602001828054610f6b9061345b565b8015610fb85780601f10610f8d57610100808354040283529160200191610fb8565b820191906000526020600020905b815481529060010190602001808311610f9b57829003601f168201915b505050505081526020016006820180548060200260200160405190810160405280929190818152602001828054801561101057602002820191906000526020600020905b815481526020019060010190808311610ffc575b5050505050815250509050806060015173ffffffffffffffffffffffffffffffffffffffff163373ffffffffffffffffffffffffffffffffffffffff1614806110885750806080015173ffffffffffffffffffffffffffffffffffffffff163373ffffffffffffffffffffffffffffffffffffffff16145b6110c7576040517f08c379a00000000000000000000000000000000000000000000000000000000081526004016110be90612db0565b60405180910390fd5b8060c00151915050919050565b600260009054906101000a900473ffffffffffffffffffffffffffffffffffffffff1673ffffffffffffffffffffffffffffffffffffffff163373ffffffffffffffffffffffffffffffffffffffff1614611164576040517f08c379a000000000000000000000000000000000000000000000000000000000815260040161115b90612d30565b60405180910390fd5b80600260006101000a81548173ffffffffffffffffffffffffffffffffffffffff021916908373ffffffffffffffffffffffffffffffffffffffff16021790555050565b600260009054906101000a900473ffffffffffffffffffffffffffffffffffffffff1681565b600080600083815260200190815260200160002090503373ffffffffffffffffffffffffffffffffffffffff168160040160009054906101000a900473ffffffffffffffffffffffffffffffffffffffff1673ffffffffffffffffffffffffffffffffffffffff1614611276576040517f08c379a000000000000000000000000000000000000000000000000000000000815260040161126d90612d50565b60405180910390fd5b6040518060400160405280600881526020017f4558504f5254454400000000000000000000000000000000000000000000000081525080519060200120816005016040516112c49190612b56565b60405180910390201461130c576040517f08c379a000000000000000000000000000000000000000000000000000000000815260040161130390612e3e565b60405180910390fd5b6040518060400160405280600981526020017f43414e43454c4c45440000000000000000000000000000000000000000000000815250816005019080519060200190611359929190611f66565b5080600601429080600181540180825580915050600190039060005260206000200160009091909190915055817f6f2d58d35fe763ab9b31dd965e80a2ba8746ed797ec9e928ac99c40f0e9e8600426040516113b59190612d02565b60405180910390a25050565b60035481565b60008073ffffffffffffffffffffffffffffffffffffffff168273ffffffffffffffffffffffffffffffffffffffff161415611438576040517f08c379a000000000000000000000000000000000000000000000000000000000815260040161142f90612d90565b60405180910390fd5b600033834288888860405160200161145596959493929190612aea565b60405160208183030381529060405280519060200120905060008060008381526020019081526020016000209050600073ffffffffffffffffffffffffffffffffffffffff168160030160009054906101000a900473ffffffffffffffffffffffffffffffffffffffff1673ffffffffffffffffffffffffffffffffffffffff1614611516576040517f08c379a000000000000000000000000000000000000000000000000000000000815260040161150d90612e1e565b60405180910390fd5b8681600001908051906020019061152e929190611f66565b50858160010181905550848160020181905550338160030160006101000a81548173ffffffffffffffffffffffffffffffffffffffff021916908373ffffffffffffffffffffffffffffffffffffffff160217905550838160040160006101000a81548173ffffffffffffffffffffffffffffffffffffffff021916908373ffffffffffffffffffffffffffffffffffffffff1602179055506040518060400160405280600881526020017f4558504f52544544000000000000000000000000000000000000000000000000815250816005019080519060200190611614929190611f66565b5080600601429080600181540180825580915050600190039060005260206000200160009091909190915055836001600084815260200190815260200160002060006101000a81548173ffffffffffffffffffffffffffffffffffffffff021916908373ffffffffffffffffffffffffffffffffffffffff16021790555060048290806001815401808255809150506001900390600052602060002001600090919091909150558373ffffffffffffffffffffffffffffffffffffffff163373ffffffffffffffffffffffffffffffffffffffff16837f8cabda4ff5d88802c4200cd965df85fe466ae1fc1e011594df1b44d023c2357f60405160405180910390a48192505050949350505050565b61172b611fec565b60008060008481526020019081526020016000206040518060e001604052908160008201805461175a9061345b565b80601f01602080910402602001604051908101604052809291908181526020018280546117869061345b565b80156117d35780601f106117a8576101008083540402835291602001916117d3565b820191906000526020600020905b8154815290600101906020018083116117b657829003601f168201915b5050505050815260200160018201548152602001600282015481526020016003820160009054906101000a900473ffffffffffffffffffffffffffffffffffffffff1673ffffffffffffffffffffffffffffffffffffffff1673ffffffffffffffffffffffffffffffffffffffff1681526020016004820160009054906101000a900473ffffffffffffffffffffffffffffffffffffffff1673ffffffffffffffffffffffffffffffffffffffff1673ffffffffffffffffffffffffffffffffffffffff1681526020016005820180546118ac9061345b565b80601f01602080910402602001604051908101604052809291908181526020018280546118d89061345b565b80156119255780601f106118fa57610100808354040283529160200191611925565b820191906000526020600020905b81548152906001019060200180831161190857829003601f168201915b505050505081526020016006820180548060200260200160405190810160405280929190818152602001828054801561197d57602002820191906000526020600020905b815481526020019060010190808311611969575b5050505050815250509050600073ffffffffffffffffffffffffffffffffffffffff16816060015173ffffffffffffffffffffffffffffffffffffffff1614156119fc576040517f08c379a00000000000000000000000000000000000000000000000000000000081526004016119f390612dd0565b60405180910390fd5b806060015173ffffffffffffffffffffffffffffffffffffffff163373ffffffffffffffffffffffffffffffffffffffff161480611a695750806080015173ffffffffffffffffffffffffffffffffffffffff163373ffffffffffffffffffffffffffffffffffffffff16145b611a7233611ceb565b611a7f8360600151611ceb565b611a8c8460800151611ceb565b604051602001611a9e93929190612b6d565b60405160208183030381529060405290611aee576040517f08c379a0000000000000000000000000000000000000000000000000000000008152600401611ae59190612ce0565b60405180910390fd5b5080915050919050565b600080600083815260200190815260200160002090503373ffffffffffffffffffffffffffffffffffffffff168160040160009054906101000a900473ffffffffffffffffffffffffffffffffffffffff1673ffffffffffffffffffffffffffffffffffffffff1614611ba0576040517f08c379a0000000000000000000000000000000000000000000000000000000008152600401611b9790612d70565b60405180910390fd5b6040518060400160405280600881526020017f4558504f525445440000000000000000000000000000000000000000000000008152508051906020012081600501604051611bee9190612b56565b604051809103902014611c36576040517f08c379a0000000000000000000000000000000000000000000000000000000008152600401611c2d90612e3e565b60405180910390fd5b6040518060400160405280600881526020017f494d504f52544544000000000000000000000000000000000000000000000000815250816005019080519060200190611c83929190611f66565b5080600601429080600181540180825580915050600190039060005260206000200160009091909190915055817f6f2d58d35fe763ab9b31dd965e80a2ba8746ed797ec9e928ac99c40f0e9e860042604051611cdf9190612df0565b60405180910390a25050565b60606000602867ffffffffffffffff811115611d30577f4e487b7100000000000000000000000000000000000000000000000000000000600052604160045260246000fd5b6040519080825280601f01601f191660200182016040528015611d625781602001600182028036833780820191505090505b50905060005b6014811015611f16576000816013611d80919061335e565b6008611d8c91906132c9565b6002611d9891906131ab565b8573ffffffffffffffffffffffffffffffffffffffff16611db991906130f6565b60f81b9050600060108260f81c611dd09190613127565b60f81b905060008160f81c6010611de79190613323565b8360f81c611df59190613392565b60f81b9050611e0382611f20565b85856002611e1191906132c9565b81518110611e48577f4e487b7100000000000000000000000000000000000000000000000000000000600052603260045260246000fd5b60200101907effffffffffffffffffffffffffffffffffffffffffffffffffffffffffffff1916908160001a905350611e8081611f20565b856001866002611e9091906132c9565b611e9a9190613069565b81518110611ed1577f4e487b7100000000000000000000000000000000000000000000000000000000600052603260045260246000fd5b60200101907effffffffffffffffffffffffffffffffffffffffffffffffffffffffffffff1916908160001a9053505050508080611f0e9061348d565b915050611d68565b5080915050919050565b6000600a8260f81c60ff161015611f4b5760308260f81c611f4191906130bf565b60f81b9050611f61565b60578260f81c611f5b91906130bf565b60f81b90505b919050565b828054611f729061345b565b90600052602060002090601f016020900481019282611f945760008555611fdb565b82601f10611fad57805160ff1916838001178555611fdb565b82800160010185558215611fdb579182015b82811115611fda578251825591602001919060010190611fbf565b5b509050611fe89190612055565b5090565b6040518060e00160405280606081526020016000815260200160008152602001600073ffffffffffffffffffffffffffffffffffffffff168152602001600073ffffffffffffffffffffffffffffffffffffffff16815260200160608152602001606081525090565b5b8082111561206e576000816000905550600101612056565b5090565b600061208561208084612eec565b612ebb565b90508281526020810184848401111561209d57600080fd5b6120a8848285613419565b509392505050565b6000813590506120bf816135eb565b92915050565b6000813590506120d481613602565b92915050565b600082601f8301126120eb57600080fd5b81356120fb848260208601612072565b91505092915050565b60008135905061211381613619565b92915050565b60006020828403121561212b57600080fd5b6000612139848285016120b0565b91505092915050565b60006020828403121561215457600080fd5b6000612162848285016120c5565b91505092915050565b6000806000806080858703121561218157600080fd5b600085013567ffffffffffffffff81111561219b57600080fd5b6121a7878288016120da565b94505060206121b887828801612104565b93505060406121c987828801612104565b92505060606121da878288016120b0565b91505092959194509250565b6000602082840312156121f857600080fd5b600061220684828501612104565b91505092915050565b600061221b838361226b565b60208301905092915050565b6000612233838361248d565b60208301905092915050565b600061224b838361252a565b905092915050565b600061225f8383612ab5565b60208301905092915050565b612274816133c6565b82525050565b612283816133c6565b82525050565b61229a612295826133c6565b6134d6565b82525050565b60006122ab82612f71565b6122b58185612fdc565b93506122c083612f1c565b8060005b838110156122f15781516122d8888261220f565b97506122e383612fa8565b9250506001810190506122c4565b5085935050505092915050565b600061230982612f7c565b6123138185612fed565b935061231e83612f2c565b8060005b8381101561234f5781516123368882612227565b975061234183612fb5565b925050600181019050612322565b5085935050505092915050565b600061236782612f87565b6123718185612ffe565b93508360208202850161238385612f3c565b8060005b858110156123bf57848403895281516123a0858261223f565b94506123ab83612fc2565b925060208a01995050600181019050612387565b50829750879550505050505092915050565b60006123dc82612f92565b6123e6818561300f565b93506123f183612f4c565b8060005b838110156124225781516124098882612253565b975061241483612fcf565b9250506001810190506123f5565b5085935050505092915050565b600061243a82612f92565b6124448185613020565b935061244f83612f4c565b8060005b838110156124805781516124678882612253565b975061247283612fcf565b925050600181019050612453565b5085935050505092915050565b612496816133d8565b82525050565b6124a5816133d8565b82525050565b600081546124b88161345b565b6124c28186613031565b945060018216600081146124dd57600181146124ee57612521565b60ff19831686528186019350612521565b6124f785612f5c565b60005b83811015612519578154818901526001820191506020810190506124fa565b838801955050505b50505092915050565b600061253582612f9d565b61253f818561303c565b935061254f818560208601613428565b612558816135c0565b840191505092915050565b600061256e82612f9d565b612578818561304d565b9350612588818560208601613428565b612591816135c0565b840191505092915050565b60006125a782612f9d565b6125b1818561305e565b93506125c1818560208601613428565b80840191505092915050565b60006125da600b8361305e565b91507f2c206578706f727465723d0000000000000000000000000000000000000000006000830152600b82019050919050565b600061261a60098361304d565b91507f43414e43454c4c454400000000000000000000000000000000000000000000006000830152602082019050919050565b600061265a602f8361304d565b91507f4f6e6c79207468652063757272656e74206f7261636c652063616e206173736960008301527f676e2061206e6577206f7261636c6500000000000000000000000000000000006020830152604082019050919050565b60006126c060258361304d565b91507f4f6e6c792074686520726563697069656e742063616e2064656e79207468697360008301527f206974656d0000000000000000000000000000000000000000000000000000006020830152604082019050919050565b600061272660288361304d565b91507f4f6e6c792074686520726563697069656e742063616e20636f6e6669726d207460008301527f686973206974656d0000000000000000000000000000000000000000000000006020830152604082019050919050565b600061278c60208361304d565b91507f526563697069656e7420616464726573732063616e6e6f74206265207a65726f6000830152602082019050919050565b60006127cc600c8361305e565b91507f2c20726563697069656e743d00000000000000000000000000000000000000006000830152600c82019050919050565b600061280c602d8361304d565b91507f4e6f7420617574686f72697a656420746f20766965772074686973206974656d60008301527f277320737461747573206c6f67000000000000000000000000000000000000006020830152604082019050919050565b600061287260378361305e565b91507f4e6f7420617574686f72697a656420746f20766965772074686973206974656d60008301527f27732064657461696c733a206d73672e73656e6465723d0000000000000000006020830152603782019050919050565b60006128d860138361304d565b91507f4974656d20646f6573206e6f74206578697374000000000000000000000000006000830152602082019050919050565b600061291860088361304d565b91507f494d504f525445440000000000000000000000000000000000000000000000006000830152602082019050919050565b600061295860138361304d565b91507f4974656d20616c726561647920657869737473000000000000000000000000006000830152602082019050919050565b6000612998601e8361304d565b91507f4974656d206973206e6f7420696e204558504f525445442073746174757300006000830152602082019050919050565b60006129d8600e8361304d565b91507f4e6f7420617574686f72697a65640000000000000000000000000000000000006000830152602082019050919050565b600060e0830160008301518482036000860152612a28828261252a565b9150506020830151612a3d6020860182612ab5565b506040830151612a506040860182612ab5565b506060830151612a63606086018261226b565b506080830151612a76608086018261226b565b5060a083015184820360a0860152612a8e828261252a565b91505060c083015184820360c0860152612aa882826123d1565b9150508091505092915050565b612abe81613402565b82525050565b612acd81613402565b82525050565b612ae4612adf82613402565b6134fa565b82525050565b6000612af68289612289565b601482019150612b068288612289565b601482019150612b168287612ad3565b602082019150612b26828661259c565b9150612b328285612ad3565b602082019150612b428284612ad3565b602082019150819050979650505050505050565b6000612b6282846124ab565b915081905092915050565b6000612b7882612865565b9150612b84828661259c565b9150612b8f826125cd565b9150612b9b828561259c565b9150612ba6826127bf565b9150612bb2828461259c565b9150819050949350505050565b6000602082019050612bd4600083018461227a565b92915050565b6000604082019050612bef600083018561227a565b612bfc602083018461227a565b9392505050565b600060e0820190508181036000830152612c1d818a6122fe565b90508181036020830152612c31818961235c565b90508181036040830152612c45818861242f565b90508181036060830152612c59818761242f565b90508181036080830152612c6d81866122a0565b905081810360a0830152612c8181856122a0565b905081810360c0830152612c95818461235c565b905098975050505050505050565b60006020820190508181036000830152612cbd818461242f565b905092915050565b6000602082019050612cda600083018461249c565b92915050565b60006020820190508181036000830152612cfa8184612563565b905092915050565b60006040820190508181036000830152612d1b8161260d565b9050612d2a6020830184612ac4565b92915050565b60006020820190508181036000830152612d498161264d565b9050919050565b60006020820190508181036000830152612d69816126b3565b9050919050565b60006020820190508181036000830152612d8981612719565b9050919050565b60006020820190508181036000830152612da98161277f565b9050919050565b60006020820190508181036000830152612dc9816127ff565b9050919050565b60006020820190508181036000830152612de9816128cb565b9050919050565b60006040820190508181036000830152612e098161290b565b9050612e186020830184612ac4565b92915050565b60006020820190508181036000830152612e378161294b565b9050919050565b60006020820190508181036000830152612e578161298b565b9050919050565b60006020820190508181036000830152612e77816129cb565b9050919050565b60006020820190508181036000830152612e988184612a0b565b905092915050565b6000602082019050612eb56000830184612ac4565b92915050565b6000604051905081810181811067ffffffffffffffff82111715612ee257612ee1613591565b5b8060405250919050565b600067ffffffffffffffff821115612f0757612f06613591565b5b601f19601f8301169050602081019050919050565b6000819050602082019050919050565b6000819050602082019050919050565b6000819050602082019050919050565b6000819050602082019050919050565b60008190508160005260206000209050919050565b600081519050919050565b600081519050919050565b600081519050919050565b600081519050919050565b600081519050919050565b6000602082019050919050565b6000602082019050919050565b6000602082019050919050565b6000602082019050919050565b600082825260208201905092915050565b600082825260208201905092915050565b600082825260208201905092915050565b600082825260208201905092915050565b600082825260208201905092915050565b600081905092915050565b600082825260208201905092915050565b600082825260208201905092915050565b600081905092915050565b600061307482613402565b915061307f83613402565b9250827fffffffffffffffffffffffffffffffffffffffffffffffffffffffffffffffff038211156130b4576130b3613504565b5b828201905092915050565b60006130ca8261340c565b91506130d58361340c565b92508260ff038211156130eb576130ea613504565b5b828201905092915050565b600061310182613402565b915061310c83613402565b92508261311c5761311b613533565b5b828204905092915050565b60006131328261340c565b915061313d8361340c565b92508261314d5761314c613533565b5b828204905092915050565b6000808291508390505b60018511156131a25780860481111561317e5761317d613504565b5b600185161561318d5780820291505b808102905061319b856135de565b9450613162565b94509492505050565b60006131b682613402565b91506131c183613402565b92506131ee7fffffffffffffffffffffffffffffffffffffffffffffffffffffffffffffffff84846131f6565b905092915050565b60008261320657600190506132c2565b8161321457600090506132c2565b816001811461322a576002811461323457613263565b60019150506132c2565b60ff84111561324657613245613504565b5b8360020a91508482111561325d5761325c613504565b5b506132c2565b5060208310610133831016604e8410600b84101617156132985782820a90508381111561329357613292613504565b5b6132c2565b6132a58484846001613158565b925090508184048111156132bc576132bb613504565b5b81810290505b9392505050565b60006132d482613402565b91506132df83613402565b9250817fffffffffffffffffffffffffffffffffffffffffffffffffffffffffffffffff048311821515161561331857613317613504565b5b828202905092915050565b600061332e8261340c565b91506133398361340c565b92508160ff048311821515161561335357613352613504565b5b828202905092915050565b600061336982613402565b915061337483613402565b92508282101561338757613386613504565b5b828203905092915050565b600061339d8261340c565b91506133a88361340c565b9250828210156133bb576133ba613504565b5b828203905092915050565b60006133d1826133e2565b9050919050565b6000819050919050565b600073ffffffffffffffffffffffffffffffffffffffff82169050919050565b6000819050919050565b600060ff82169050919050565b82818337600083830152505050565b60005b8381101561344657808201518184015260208101905061342b565b83811115613455576000848401525b50505050565b6000600282049050600182168061347357607f821691505b6020821081141561348757613486613562565b5b50919050565b600061349882613402565b91507fffffffffffffffffffffffffffffffffffffffffffffffffffffffffffffffff8214156134cb576134ca613504565b5b600182019050919050565b60006134e1826134e8565b9050919050565b60006134f3826135d1565b9050919050565b6000819050919050565b7f4e487b7100000000000000000000000000000000000000000000000000000000600052601160045260246000fd5b7f4e487b7100000000000000000000000000000000000000000000000000000000600052601260045260246000fd5b7f4e487b7100000000000000000000000000000000000000000000000000000000600052602260045260246000fd5b7f4e487b7100000000000000000000000000000000000000000000000000000000600052604160045260246000fd5b6000601f19601f8301169050919050565b60008160601b9050919050565b60008160011c9050919050565b6135f4816133c6565b81146135ff57600080fd5b50565b61360b816133d8565b811461361657600080fd5b50565b61362281613402565b811461362d57600080fd5b5056fea264697066735822122082a49c012526496e40282d86d8e694381f8ac6a6f5f8433dc2f310d9787b56e564736f6c63430008000033",
  "immutableReferences": {},
  "source": "// SPDX-License-Identifier: MIT\npragma solidity ^0.8.0;\n\ncontract SupplyChain {\n    struct Item {\n        string product;\n        uint256 qty;\n        uint256 value;\n        address exporter;\n        address recipient;\n        string status; // EXPORTED, IMPORTED, CANCELLED\n        uint256[] statusTimestamps;\n    }\n\n    mapping(bytes32 => Item) private items; // transactionHash => Item\n    mapping(bytes32 => address) private itemAccess; // transactionHash => recipient (for privacy)\n\n    address public oracle;\n    uint256 public lastUpdatedTime;\n    bytes32[] public transactionHashes;\n\n    event ItemExported(bytes32 indexed transactionHash, address indexed exporter, address indexed recipient);\n    event StatusUpdated(bytes32 indexed transactionHash, string newStatus, uint256 timestamp);\n    event TimeUpdated(uint256 timestamp);\n\n    // set the deployer of the contract as the oracle\n    constructor() {\n        oracle = msg.sender;\n        lastUpdatedTime = block.timestamp;\n    }\n\n    modifier onlyOracle() {\n        require(msg.sender == oracle, \"Not authorized\");\n        _;\n    }\n\n    function setOracle(address _oracle) public {\n        require(msg.sender == oracle, \"Only the current oracle can assign a new oracle\");\n        oracle = _oracle;\n    }\n\n    function exportItem(\n        string memory product,\n        uint256 qty,\n        uint256 value,\n        address recipient\n    ) public returns (bytes32) {\n        require(recipient != address(0), \"Recipient address cannot be zero\");\n\n        // Generate a unique transaction hash\n        bytes32 transactionHash = keccak256(\n            abi.encodePacked(msg.sender, recipient, block.timestamp, product, qty, value)\n        );\n        \n        // Initialize the item and add the first timestamp after creating the struct\n        Item storage newItem = items[transactionHash];\n        require(newItem.exporter == address(0), \"Item already exists\");\n        newItem.product = product;\n        newItem.qty = qty;\n        newItem.value = value;\n        newItem.exporter = msg.sender;\n        newItem.recipient = recipient;\n        newItem.status = \"EXPORTED\";\n        newItem.statusTimestamps.push(block.timestamp);\n\n        // Store the recipient for privacy\n        itemAccess[transactionHash] = recipient;\n\n        // Add the transaction hash to the list of all transaction hashes\n        transactionHashes.push(transactionHash);\n\n        emit ItemExported(transactionHash, msg.sender, recipient);\n        return transactionHash;\n    }\n\n    function confirmItem(bytes32 transactionHash) public {\n        Item storage item = items[transactionHash];\n        require(item.recipient == msg.sender, \"Only the recipient can confirm this item\");\n        require(keccak256(bytes(item.status)) == keccak256(bytes(\"EXPORTED\")), \"Item is not in EXPORTED status\");\n\n        item.status = \"IMPORTED\";\n        item.statusTimestamps.push(block.timestamp);\n\n        emit StatusUpdated(transactionHash, \"IMPORTED\", block.timestamp);\n    }\n\n    function denyItem(bytes32 transactionHash) public {\n        Item storage item = items[transactionHash];\n        require(item.recipient == msg.sender, \"Only the recipient can deny this item\");\n        require(keccak256(bytes(item.status)) == keccak256(bytes(\"EXPORTED\")), \"Item is not in EXPORTED status\");\n\n        item.status = \"CANCELLED\";\n        item.statusTimestamps.push(block.timestamp);\n\n        emit StatusUpdated(transactionHash, \"CANCELLED\", block.timestamp);\n    }\n\n    function getItemDetails(bytes32 transactionHash) public view returns (Item memory) {\n        Item memory item = items[transactionHash];\n        require(item.exporter != address(0), \"Item does not exist\");\n        require(\n            msg.sender == item.exporter || msg.sender == item.recipient,\n            string(\n                abi.encodePacked(\n                    \"Not authorized to view this item's details: msg.sender=\",\n                    toAsciiString(msg.sender),\n                    \", exporter=\",\n                    toAsciiString(item.exporter),\n                    \", recipient=\",\n                    toAsciiString(item.recipient)\n                )\n            )\n        );\n        return item;\n    }\n\n    function getStatusLog(bytes32 transactionHash) public view returns (uint256[] memory) {\n        Item memory item = items[transactionHash];\n        require(\n            msg.sender == item.exporter || msg.sender == item.recipient,\n            \"Not authorized to view this item's status log\"\n        );\n        return item.statusTimestamps;\n    }\n\n    function toAsciiString(address x) internal pure returns (string memory) {\n        bytes memory s = new bytes(40);\n        for (uint256 i = 0; i < 20; i++) {\n            bytes1 b = bytes1(uint8(uint256(uint160(x)) / (2**(8 * (19 - i)))));\n            bytes1 hi = bytes1(uint8(b) / 16);\n            bytes1 lo = bytes1(uint8(b) - 16 * uint8(hi));\n            s[2 * i] = char(hi);\n            s[2 * i + 1] = char(lo);\n        }\n        return string(s);\n    }\n\n    function char(bytes1 b) internal pure returns (bytes1 c) {\n        if (uint8(b) < 10) return bytes1(uint8(b) + 0x30);\n        else return bytes1(uint8(b) + 0x57);\n    }\n\n    function getDebugDetails(bytes32 transactionHash) public view returns (address, address) {\n        Item memory item = items[transactionHash];\n        return (item.exporter, item.recipient);\n    }\n\n    function getAllItems() public view returns (\n        bytes32[] memory,\n        string[] memory,\n        uint256[] memory,\n        uint256[] memory,\n        address[] memory,\n        address[] memory,\n        string[] memory\n    ) {\n        uint256 itemCount = transactionHashes.length;\n\n        bytes32[] memory hashes = new bytes32[](itemCount);\n        string[] memory products = new string[](itemCount);\n        uint256[] memory quantities = new uint256[](itemCount);\n        uint256[] memory values = new uint256[](itemCount);\n        address[] memory exporters = new address[](itemCount);\n        address[] memory recipients = new address[](itemCount);\n        string[] memory statuses = new string[](itemCount);\n\n        for (uint256 i = 0; i < itemCount; i++) {\n            bytes32 hash = transactionHashes[i];\n            Item storage item = items[hash];\n\n            hashes[i] = hash;\n            products[i] = item.product;\n            quantities[i] = item.qty;\n            values[i] = item.value;\n            exporters[i] = item.exporter;\n            recipients[i] = item.recipient;\n            statuses[i] = item.status;\n        }\n\n        return (hashes, products, quantities, values, exporters, recipients, statuses);\n    }\n\n    function updateTime(uint256 _time) public onlyOracle {\n        lastUpdatedTime = _time;\n        emit TimeUpdated(_time);\n    }\n\n    function getTime() public view returns (uint256) {\n        return lastUpdatedTime;\n    }\n}",
  "sourcePath": "/Users/nicholasliem/Desktop/Repository/Personal/Blockchain/contract/contracts/SupplyChain.sol",
  "compiler": {
    "name": "solc",
    "version": "0.8.0+commit.c7dfd78e.Emscripten.clang"
  },
  "schemaVersion": "3.4.16",
  "updatedAt": "2024-12-26T04:13:18.134Z",
  "networkType": "ethereum",
  "devdoc": {
    "kind": "dev",
    "methods": {},
    "version": 1
  },
  "userdoc": {
    "kind": "user",
    "methods": {},
    "version": 1
  }
}