{
  "contractName": "SupplyChain",
  "abi": [
    {
      "anonymous": false,
      "inputs": [
        {
          "indexed": false,
          "internalType": "uint256",
          "name": "itemId",
          "type": "uint256"
        },
        {
          "indexed": false,
          "internalType": "string",
          "name": "name",
          "type": "string"
        },
        {
          "indexed": false,
          "internalType": "string",
          "name": "status",
          "type": "string"
        }
      ],
      "name": "ItemAdded",
      "type": "event"
    },
    {
      "anonymous": false,
      "inputs": [
        {
          "indexed": false,
          "internalType": "uint256",
          "name": "itemId",
          "type": "uint256"
        },
        {
          "indexed": false,
          "internalType": "string",
          "name": "newStatus",
          "type": "string"
        }
      ],
      "name": "StatusUpdated",
      "type": "event"
    },
    {
      "inputs": [
        {
          "internalType": "uint256",
          "name": "",
          "type": "uint256"
        }
      ],
      "name": "items",
      "outputs": [
        {
          "internalType": "string",
          "name": "name",
          "type": "string"
        },
        {
          "internalType": "string",
          "name": "status",
          "type": "string"
        }
      ],
      "stateMutability": "view",
      "type": "function"
    },
    {
      "inputs": [
        {
          "internalType": "uint256",
          "name": "itemId",
          "type": "uint256"
        },
        {
          "internalType": "string",
          "name": "name",
          "type": "string"
        },
        {
          "internalType": "string",
          "name": "status",
          "type": "string"
        }
      ],
      "name": "addItem",
      "outputs": [],
      "stateMutability": "nonpayable",
      "type": "function"
    },
    {
      "inputs": [
        {
          "internalType": "uint256",
          "name": "itemId",
          "type": "uint256"
        },
        {
          "internalType": "string",
          "name": "newStatus",
          "type": "string"
        }
      ],
      "name": "updateStatus",
      "outputs": [],
      "stateMutability": "nonpayable",
      "type": "function"
    },
    {
      "inputs": [
        {
          "internalType": "uint256",
          "name": "itemId",
          "type": "uint256"
        }
      ],
      "name": "getItem",
      "outputs": [
        {
          "internalType": "string",
          "name": "",
          "type": "string"
        },
        {
          "internalType": "string",
          "name": "",
          "type": "string"
        }
      ],
      "stateMutability": "view",
      "type": "function"
    }
  ],
  "bytecode": "0x608060405234801561000f575f80fd5b50610c398061001d5f395ff3fe608060405234801561000f575f80fd5b506004361061004a575f3560e01c80633129e7731461004e578063bfb231d21461007f578063cb544212146100b0578063d1b34dd8146100cc575b5f80fd5b6100686004803603810190610063919061055a565b6100e8565b60405161007692919061060f565b60405180910390f35b6100996004803603810190610094919061055a565b61029b565b6040516100a792919061060f565b60405180910390f35b6100ca60048036038101906100c59190610770565b6103c6565b005b6100e660048036038101906100e191906107f8565b610458565b005b6060805f805f8581526020019081526020015f205f0180546101099061087f565b90501161014b576040517f08c379a0000000000000000000000000000000000000000000000000000000008152600401610142906108f9565b60405180910390fd5b5f805f8581526020019081526020015f206040518060400160405290815f820180546101769061087f565b80601f01602080910402602001604051908101604052809291908181526020018280546101a29061087f565b80156101ed5780601f106101c4576101008083540402835291602001916101ed565b820191905f5260205f20905b8154815290600101906020018083116101d057829003601f168201915b505050505081526020016001820180546102069061087f565b80601f01602080910402602001604051908101604052809291908181526020018280546102329061087f565b801561027d5780601f106102545761010080835404028352916020019161027d565b820191905f5260205f20905b81548152906001019060200180831161026057829003601f168201915b5050505050815250509050805f015181602001519250925050915091565b5f602052805f5260405f205f91509050805f0180546102b99061087f565b80601f01602080910402602001604051908101604052809291908181526020018280546102e59061087f565b80156103305780601f1061030757610100808354040283529160200191610330565b820191905f5260205f20905b81548152906001019060200180831161031357829003601f168201915b5050505050908060010180546103459061087f565b80601f01602080910402602001604051908101604052809291908181526020018280546103719061087f565b80156103bc5780601f10610393576101008083540402835291602001916103bc565b820191905f5260205f20905b81548152906001019060200180831161039f57829003601f168201915b5050505050905082565b6040518060400160405280838152602001828152505f808581526020019081526020015f205f820151815f0190816103fe9190610ab4565b5060208201518160010190816104149190610ab4565b509050507f9a2ee66360acc47ed8f7c49b2492e1777a6fed40c18be4eddb5b242f7098a4af83838360405161044b93929190610b92565b60405180910390a1505050565b5f805f8481526020019081526020015f205f0180546104769061087f565b9050116104b8576040517f08c379a00000000000000000000000000000000000000000000000000000000081526004016104af906108f9565b60405180910390fd5b805f808481526020019081526020015f2060010190816104d89190610ab4565b507fdc280875b120650ffe3edf5f724f07fd086361a32c2a387fe34b495f5679e77d828260405161050a929190610bd5565b60405180910390a15050565b5f604051905090565b5f80fd5b5f80fd5b5f819050919050565b61053981610527565b8114610543575f80fd5b50565b5f8135905061055481610530565b92915050565b5f6020828403121561056f5761056e61051f565b5b5f61057c84828501610546565b91505092915050565b5f81519050919050565b5f82825260208201905092915050565b5f5b838110156105bc5780820151818401526020810190506105a1565b5f8484015250505050565b5f601f19601f8301169050919050565b5f6105e182610585565b6105eb818561058f565b93506105fb81856020860161059f565b610604816105c7565b840191505092915050565b5f6040820190508181035f83015261062781856105d7565b9050818103602083015261063b81846105d7565b90509392505050565b5f80fd5b5f80fd5b7f4e487b71000000000000000000000000000000000000000000000000000000005f52604160045260245ffd5b610682826105c7565b810181811067ffffffffffffffff821117156106a1576106a061064c565b5b80604052505050565b5f6106b3610516565b90506106bf8282610679565b919050565b5f67ffffffffffffffff8211156106de576106dd61064c565b5b6106e7826105c7565b9050602081019050919050565b828183375f83830152505050565b5f61071461070f846106c4565b6106aa565b9050828152602081018484840111156107305761072f610648565b5b61073b8482856106f4565b509392505050565b5f82601f83011261075757610756610644565b5b8135610767848260208601610702565b91505092915050565b5f805f606084860312156107875761078661051f565b5b5f61079486828701610546565b935050602084013567ffffffffffffffff8111156107b5576107b4610523565b5b6107c186828701610743565b925050604084013567ffffffffffffffff8111156107e2576107e1610523565b5b6107ee86828701610743565b9150509250925092565b5f806040838503121561080e5761080d61051f565b5b5f61081b85828601610546565b925050602083013567ffffffffffffffff81111561083c5761083b610523565b5b61084885828601610743565b9150509250929050565b7f4e487b71000000000000000000000000000000000000000000000000000000005f52602260045260245ffd5b5f600282049050600182168061089657607f821691505b6020821081036108a9576108a8610852565b5b50919050565b7f4974656d20646f6573206e6f74206578697374000000000000000000000000005f82015250565b5f6108e360138361058f565b91506108ee826108af565b602082019050919050565b5f6020820190508181035f830152610910816108d7565b9050919050565b5f819050815f5260205f209050919050565b5f6020601f8301049050919050565b5f82821b905092915050565b5f600883026109737fffffffffffffffffffffffffffffffffffffffffffffffffffffffffffffffff82610938565b61097d8683610938565b95508019841693508086168417925050509392505050565b5f819050919050565b5f6109b86109b36109ae84610527565b610995565b610527565b9050919050565b5f819050919050565b6109d18361099e565b6109e56109dd826109bf565b848454610944565b825550505050565b5f90565b6109f96109ed565b610a048184846109c8565b505050565b5b81811015610a2757610a1c5f826109f1565b600181019050610a0a565b5050565b601f821115610a6c57610a3d81610917565b610a4684610929565b81016020851015610a55578190505b610a69610a6185610929565b830182610a09565b50505b505050565b5f82821c905092915050565b5f610a8c5f1984600802610a71565b1980831691505092915050565b5f610aa48383610a7d565b9150826002028217905092915050565b610abd82610585565b67ffffffffffffffff811115610ad657610ad561064c565b5b610ae0825461087f565b610aeb828285610a2b565b5f60209050601f831160018114610b1c575f8415610b0a578287015190505b610b148582610a99565b865550610b7b565b601f198416610b2a86610917565b5f5b82811015610b5157848901518255600182019150602085019450602081019050610b2c565b86831015610b6e5784890151610b6a601f891682610a7d565b8355505b6001600288020188555050505b505050505050565b610b8c81610527565b82525050565b5f606082019050610ba55f830186610b83565b8181036020830152610bb781856105d7565b90508181036040830152610bcb81846105d7565b9050949350505050565b5f604082019050610be85f830185610b83565b8181036020830152610bfa81846105d7565b9050939250505056fea26469706673582212202ac5f07ecf4fbc1e1c48e59f92be75bf033f73496d16e7d19bab6b003678d4f464736f6c63430008150033",
  "immutableReferences": {},
  "source": "// SPDX-License-Identifier: MIT\npragma solidity ^0.8.0;\n\ncontract SupplyChain {\n    struct Item {\n        string name;\n        string status;\n    }\n\n    mapping(uint256 => Item) public items;\n\n    event ItemAdded(uint256 itemId, string name, string status);\n    event StatusUpdated(uint256 itemId, string newStatus);\n\n    function addItem(uint256 itemId, string memory name, string memory status) public {\n        items[itemId] = Item(name, status);\n        emit ItemAdded(itemId, name, status);\n    }\n\n    function updateStatus(uint256 itemId, string memory newStatus) public {\n        require(bytes(items[itemId].name).length > 0, \"Item does not exist\");\n        items[itemId].status = newStatus;\n        emit StatusUpdated(itemId, newStatus);\n    }\n\n    function getItem(uint256 itemId) public view returns (string memory, string memory) {\n        require(bytes(items[itemId].name).length > 0, \"Item does not exist\");\n        Item memory item = items[itemId];\n        return (item.name, item.status);\n    }\n}",
  "sourcePath": "/Users/nicholasliem/Desktop/Repository/Personal/Blockchain/contract/contracts/SupplyChain.sol",
  "compiler": {
    "name": "solc",
    "version": "0.8.21+commit.d9974bed.Emscripten.clang"
  },
  "schemaVersion": "3.4.16",
  "updatedAt": "2024-12-21T15:41:31.844Z",
  "devdoc": {
    "kind": "dev",
    "methods": {},
    "version": 1
  },
  "userdoc": {
    "kind": "user",
    "methods": {},
    "version": 1
  }
}