{
  "contractName": "SupplyChain",
  "abi": [
    {
      "inputs": [],
      "stateMutability": "nonpayable",
      "type": "constructor"
    },
    {
      "anonymous": false,
      "inputs": [
        {
          "indexed": true,
          "internalType": "bytes32",
          "name": "transactionHash",
          "type": "bytes32"
        },
        {
          "indexed": true,
          "internalType": "address",
          "name": "exporter",
          "type": "address"
        },
        {
          "indexed": true,
          "internalType": "address",
          "name": "recipient",
          "type": "address"
        }
      ],
      "name": "ItemExported",
      "type": "event"
    },
    {
      "anonymous": false,
      "inputs": [
        {
          "indexed": true,
          "internalType": "bytes32",
          "name": "transactionHash",
          "type": "bytes32"
        },
        {
          "indexed": false,
          "internalType": "string",
          "name": "newStatus",
          "type": "string"
        },
        {
          "indexed": false,
          "internalType": "uint256",
          "name": "timestamp",
          "type": "uint256"
        }
      ],
      "name": "StatusUpdated",
      "type": "event"
    },
    {
      "anonymous": false,
      "inputs": [
        {
          "indexed": false,
          "internalType": "uint256",
          "name": "timestamp",
          "type": "uint256"
        }
      ],
      "name": "TimeUpdated",
      "type": "event"
    },
    {
      "anonymous": false,
      "inputs": [
        {
          "indexed": true,
          "internalType": "address",
          "name": "wallet",
          "type": "address"
        },
        {
          "indexed": false,
          "internalType": "string",
          "name": "name",
          "type": "string"
        }
      ],
      "name": "WalletNameRegistered",
      "type": "event"
    },
    {
      "inputs": [],
      "name": "lastUpdatedTime",
      "outputs": [
        {
          "internalType": "uint256",
          "name": "",
          "type": "uint256"
        }
      ],
      "stateMutability": "view",
      "type": "function",
      "constant": true
    },
    {
      "inputs": [],
      "name": "oracle",
      "outputs": [
        {
          "internalType": "address",
          "name": "",
          "type": "address"
        }
      ],
      "stateMutability": "view",
      "type": "function",
      "constant": true
    },
    {
      "inputs": [
        {
          "internalType": "uint256",
          "name": "",
          "type": "uint256"
        }
      ],
      "name": "transactionHashes",
      "outputs": [
        {
          "internalType": "bytes32",
          "name": "",
          "type": "bytes32"
        }
      ],
      "stateMutability": "view",
      "type": "function",
      "constant": true
    },
    {
      "inputs": [
        {
          "internalType": "address",
          "name": "_oracle",
          "type": "address"
        }
      ],
      "name": "setOracle",
      "outputs": [],
      "stateMutability": "nonpayable",
      "type": "function"
    },
    {
      "inputs": [
        {
          "internalType": "string",
          "name": "name",
          "type": "string"
        }
      ],
      "name": "registerWalletName",
      "outputs": [],
      "stateMutability": "nonpayable",
      "type": "function"
    },
    {
      "inputs": [
        {
          "internalType": "string",
          "name": "name",
          "type": "string"
        }
      ],
      "name": "searchWalletByName",
      "outputs": [
        {
          "internalType": "address",
          "name": "",
          "type": "address"
        }
      ],
      "stateMutability": "view",
      "type": "function",
      "constant": true
    },
    {
      "inputs": [
        {
          "internalType": "address",
          "name": "recipient",
          "type": "address"
        }
      ],
      "name": "deriveInboxAddress",
      "outputs": [
        {
          "internalType": "bytes32",
          "name": "",
          "type": "bytes32"
        }
      ],
      "stateMutability": "pure",
      "type": "function",
      "constant": true
    },
    {
      "inputs": [
        {
          "internalType": "string",
          "name": "product",
          "type": "string"
        },
        {
          "internalType": "uint256",
          "name": "qty",
          "type": "uint256"
        },
        {
          "internalType": "uint256",
          "name": "value",
          "type": "uint256"
        },
        {
          "internalType": "address",
          "name": "recipient",
          "type": "address"
        }
      ],
      "name": "exportItem",
      "outputs": [
        {
          "internalType": "bytes32",
          "name": "",
          "type": "bytes32"
        }
      ],
      "stateMutability": "nonpayable",
      "type": "function"
    },
    {
      "inputs": [
        {
          "internalType": "bytes32",
          "name": "transactionHash",
          "type": "bytes32"
        }
      ],
      "name": "confirmItem",
      "outputs": [],
      "stateMutability": "nonpayable",
      "type": "function"
    },
    {
      "inputs": [
        {
          "internalType": "bytes32",
          "name": "transactionHash",
          "type": "bytes32"
        }
      ],
      "name": "denyItem",
      "outputs": [],
      "stateMutability": "nonpayable",
      "type": "function"
    },
    {
      "inputs": [
        {
          "internalType": "address",
          "name": "recipient",
          "type": "address"
        }
      ],
      "name": "getInbox",
      "outputs": [
        {
          "internalType": "bytes32[]",
          "name": "",
          "type": "bytes32[]"
        }
      ],
      "stateMutability": "view",
      "type": "function",
      "constant": true
    },
    {
      "inputs": [
        {
          "internalType": "address",
          "name": "recipient",
          "type": "address"
        }
      ],
      "name": "getAsset",
      "outputs": [
        {
          "internalType": "bytes32[]",
          "name": "",
          "type": "bytes32[]"
        }
      ],
      "stateMutability": "view",
      "type": "function",
      "constant": true
    },
    {
      "inputs": [
        {
          "internalType": "bytes32",
          "name": "transactionHash",
          "type": "bytes32"
        }
      ],
      "name": "getItemDetails",
      "outputs": [
        {
          "components": [
            {
              "internalType": "string",
              "name": "product",
              "type": "string"
            },
            {
              "internalType": "uint256",
              "name": "qty",
              "type": "uint256"
            },
            {
              "internalType": "uint256",
              "name": "value",
              "type": "uint256"
            },
            {
              "internalType": "address",
              "name": "exporter",
              "type": "address"
            },
            {
              "internalType": "address",
              "name": "recipient",
              "type": "address"
            },
            {
              "internalType": "string",
              "name": "status",
              "type": "string"
            },
            {
              "internalType": "uint256[]",
              "name": "statusTimestamps",
              "type": "uint256[]"
            }
          ],
          "internalType": "struct SupplyChain.Item",
          "name": "",
          "type": "tuple"
        }
      ],
      "stateMutability": "view",
      "type": "function",
      "constant": true
    },
    {
      "inputs": [
        {
          "internalType": "bytes32",
          "name": "transactionHash",
          "type": "bytes32"
        }
      ],
      "name": "getStatusLog",
      "outputs": [
        {
          "internalType": "uint256[]",
          "name": "",
          "type": "uint256[]"
        }
      ],
      "stateMutability": "view",
      "type": "function",
      "constant": true
    },
    {
      "inputs": [
        {
          "internalType": "uint256",
          "name": "_time",
          "type": "uint256"
        }
      ],
      "name": "updateTime",
      "outputs": [],
      "stateMutability": "nonpayable",
      "type": "function"
    },
    {
      "inputs": [],
      "name": "getTime",
      "outputs": [
        {
          "internalType": "uint256",
          "name": "",
          "type": "uint256"
        }
      ],
      "stateMutability": "view",
      "type": "function",
      "constant": true
    }
  ],
  "bytecode": "0x608060405234801561001057600080fd5b5033600660006101000a81548173ffffffffffffffffffffffffffffffffffffffff021916908373ffffffffffffffffffffffffffffffffffffffff16021790555042600781905550612cf4806100686000396000f3fe608060405234801561001057600080fd5b50600436106101005760003560e01c80637adbf97311610097578063bf85689511610066578063bf856895146102d1578063c3b77da8146102ef578063d1e3d1201461031f578063fc9ed2501461034f57610100565b80637adbf9731461024b5780637dc0d1d014610267578063a49e5f2c14610285578063b0908eee146102a157610100565b80633c5aa44d116100d35780633c5aa44d146101b1578063557ed1ba146101e15780636c59bd0c146101ff5780636f8d74011461021b57610100565b80630220168114610105578063177fe9a314610135578063213dafcd1461015157806330b8b2c614610181575b600080fd5b61011f600480360381019061011a9190611c5b565b61036b565b60405161012c9190612693565b60405180910390f35b61014f600480360381019061014a9190611cad565b610402565b005b61016b60048036038101906101669190611d69565b6105f5565b60405161017891906126d7565b60405180910390f35b61019b60048036038101906101969190611c5b565b610619565b6040516101a89190612693565b60405180910390f35b6101cb60048036038101906101c69190611c5b565b6106b0565b6040516101d891906126d7565b60405180910390f35b6101e96106e0565b6040516101f69190612912565b60405180910390f35b61021960048036038101906102149190611d69565b6106ea565b005b61023560048036038101906102309190611c84565b6107bb565b60405161024291906126b5565b60405180910390f35b61026560048036038101906102609190611c5b565b610ad3565b005b61026f610ba7565b60405161027c9190612678565b60405180910390f35b61029f600480360381019061029a9190611c84565b610bcd565b005b6102bb60048036038101906102b69190611cad565b610dca565b6040516102c89190612678565b60405180910390f35b6102d9610e87565b6040516102e69190612912565b60405180910390f35b61030960048036038101906103049190611cee565b610e8d565b60405161031691906126d7565b60405180910390f35b61033960048036038101906103349190611c84565b6112f3565b60405161034691906128f0565b60405180910390f35b61036960048036038101906103649190611c84565b6116a2565b005b6060600260008373ffffffffffffffffffffffffffffffffffffffff1673ffffffffffffffffffffffffffffffffffffffff1681526020019081526020016000208054806020026020016040519081016040528092919081815260200182805480156103f657602002820191906000526020600020905b8154815260200190600101908083116103e2575b50505050509050919050565b6000815111610446576040517f08c379a000000000000000000000000000000000000000000000000000000000815260040161043d90612734565b60405180910390fd5b600073ffffffffffffffffffffffffffffffffffffffff1660058260405161046e919061264c565b908152602001604051809103902060009054906101000a900473ffffffffffffffffffffffffffffffffffffffff1673ffffffffffffffffffffffffffffffffffffffff16146104f3576040517f08c379a00000000000000000000000000000000000000000000000000000000081526004016104ea90612714565b60405180910390fd5b80600460003373ffffffffffffffffffffffffffffffffffffffff1673ffffffffffffffffffffffffffffffffffffffff1681526020019081526020016000209080519060200190610546929190611aa8565b5033600582604051610558919061264c565b908152602001604051809103902060006101000a81548173ffffffffffffffffffffffffffffffffffffffff021916908373ffffffffffffffffffffffffffffffffffffffff1602179055503373ffffffffffffffffffffffffffffffffffffffff167fb58d93ac4c67a87abc002d6578e1bea0250b7e405d62d47f0c3043a115834ad1826040516105ea91906126f2565b60405180910390a250565b6008818154811061060557600080fd5b906000526020600020016000915090505481565b6060600360008373ffffffffffffffffffffffffffffffffffffffff1673ffffffffffffffffffffffffffffffffffffffff1681526020019081526020016000208054806020026020016040519081016040528092919081815260200182805480156106a457602002820191906000526020600020905b815481526020019060010190808311610690575b50505050509050919050565b6000816040516020016106c391906125ae565b604051602081830303815290604052805190602001209050919050565b6000600754905090565b600660009054906101000a900473ffffffffffffffffffffffffffffffffffffffff1673ffffffffffffffffffffffffffffffffffffffff163373ffffffffffffffffffffffffffffffffffffffff161461077a576040517f08c379a0000000000000000000000000000000000000000000000000000000008152600401610771906128d0565b60405180910390fd5b806007819055507f89c93b2d508150920890ffe8618ab7811923d95fa8770ecb495ca54cb15c7169816040516107b09190612912565b60405180910390a150565b606060008060008481526020019081526020016000206040518060e00160405290816000820180546107ec90612b25565b80601f016020809104026020016040519081016040528092919081815260200182805461081890612b25565b80156108655780601f1061083a57610100808354040283529160200191610865565b820191906000526020600020905b81548152906001019060200180831161084857829003601f168201915b5050505050815260200160018201548152602001600282015481526020016003820160009054906101000a900473ffffffffffffffffffffffffffffffffffffffff1673ffffffffffffffffffffffffffffffffffffffff1673ffffffffffffffffffffffffffffffffffffffff1681526020016004820160009054906101000a900473ffffffffffffffffffffffffffffffffffffffff1673ffffffffffffffffffffffffffffffffffffffff1673ffffffffffffffffffffffffffffffffffffffff16815260200160058201805461093e90612b25565b80601f016020809104026020016040519081016040528092919081815260200182805461096a90612b25565b80156109b75780601f1061098c576101008083540402835291602001916109b7565b820191906000526020600020905b81548152906001019060200180831161099a57829003601f168201915b5050505050815260200160068201805480602002602001604051908101604052809291908181526020018280548015610a0f57602002820191906000526020600020905b8154815260200190600101908083116109fb575b5050505050815250509050806060015173ffffffffffffffffffffffffffffffffffffffff163373ffffffffffffffffffffffffffffffffffffffff161480610a875750806080015173ffffffffffffffffffffffffffffffffffffffff163373ffffffffffffffffffffffffffffffffffffffff16145b610ac6576040517f08c379a0000000000000000000000000000000000000000000000000000000008152600401610abd90612822565b60405180910390fd5b8060c00151915050919050565b600660009054906101000a900473ffffffffffffffffffffffffffffffffffffffff1673ffffffffffffffffffffffffffffffffffffffff163373ffffffffffffffffffffffffffffffffffffffff1614610b63576040517f08c379a0000000000000000000000000000000000000000000000000000000008152600401610b5a906127a2565b60405180910390fd5b80600660006101000a81548173ffffffffffffffffffffffffffffffffffffffff021916908373ffffffffffffffffffffffffffffffffffffffff16021790555050565b600660009054906101000a900473ffffffffffffffffffffffffffffffffffffffff1681565b600080600083815260200190815260200160002090503373ffffffffffffffffffffffffffffffffffffffff168160040160009054906101000a900473ffffffffffffffffffffffffffffffffffffffff1673ffffffffffffffffffffffffffffffffffffffff1614610c75576040517f08c379a0000000000000000000000000000000000000000000000000000000008152600401610c6c906127c2565b60405180910390fd5b6040518060400160405280600881526020017f4558504f525445440000000000000000000000000000000000000000000000008152508051906020012081600501604051610cc39190612635565b604051809103902014610d0b576040517f08c379a0000000000000000000000000000000000000000000000000000000008152600401610d02906128b0565b60405180910390fd5b6040518060400160405280600981526020017f43414e43454c4c45440000000000000000000000000000000000000000000000815250816005019080519060200190610d58929190611aa8565b5080600601429080600181540180825580915050600190039060005260206000200160009091909190915055610d8e3383611905565b817f6f2d58d35fe763ab9b31dd965e80a2ba8746ed797ec9e928ac99c40f0e9e860042604051610dbe9190612774565b60405180910390a25050565b600080600583604051610ddd919061264c565b908152602001604051809103902060009054906101000a900473ffffffffffffffffffffffffffffffffffffffff169050600073ffffffffffffffffffffffffffffffffffffffff168173ffffffffffffffffffffffffffffffffffffffff161415610e7e576040517f08c379a0000000000000000000000000000000000000000000000000000000008152600401610e7590612754565b60405180910390fd5b80915050919050565b60075481565b60008073ffffffffffffffffffffffffffffffffffffffff168273ffffffffffffffffffffffffffffffffffffffff161415610efe576040517f08c379a0000000000000000000000000000000000000000000000000000000008152600401610ef590612802565b60405180910390fd5b6000338342888888604051602001610f1b969594939291906125c9565b604051602081830303815290604052805190602001209050600073ffffffffffffffffffffffffffffffffffffffff1660008083815260200190815260200160002060030160009054906101000a900473ffffffffffffffffffffffffffffffffffffffff1673ffffffffffffffffffffffffffffffffffffffff1614610fd7576040517f08c379a0000000000000000000000000000000000000000000000000000000008152600401610fce90612890565b60405180910390fd5b60008060008381526020019081526020016000209050600073ffffffffffffffffffffffffffffffffffffffff168160030160009054906101000a900473ffffffffffffffffffffffffffffffffffffffff1673ffffffffffffffffffffffffffffffffffffffff1614611080576040517f08c379a000000000000000000000000000000000000000000000000000000000815260040161107790612890565b60405180910390fd5b86816000019080519060200190611098929190611aa8565b50858160010181905550848160020181905550338160030160006101000a81548173ffffffffffffffffffffffffffffffffffffffff021916908373ffffffffffffffffffffffffffffffffffffffff160217905550838160040160006101000a81548173ffffffffffffffffffffffffffffffffffffffff021916908373ffffffffffffffffffffffffffffffffffffffff1602179055506040518060400160405280600881526020017f4558504f5254454400000000000000000000000000000000000000000000000081525081600501908051906020019061117e929190611aa8565b5080600601429080600181540180825580915050600190039060005260206000200160009091909190915055600260008573ffffffffffffffffffffffffffffffffffffffff1673ffffffffffffffffffffffffffffffffffffffff168152602001908152602001600020829080600181540180825580915050600190039060005260206000200160009091909190915055836001600084815260200190815260200160002060006101000a81548173ffffffffffffffffffffffffffffffffffffffff021916908373ffffffffffffffffffffffffffffffffffffffff16021790555060088290806001815401808255809150506001900390600052602060002001600090919091909150558373ffffffffffffffffffffffffffffffffffffffff163373ffffffffffffffffffffffffffffffffffffffff16837f8cabda4ff5d88802c4200cd965df85fe466ae1fc1e011594df1b44d023c2357f60405160405180910390a48192505050949350505050565b6112fb611b2e565b60008060008481526020019081526020016000206040518060e001604052908160008201805461132a90612b25565b80601f016020809104026020016040519081016040528092919081815260200182805461135690612b25565b80156113a35780601f10611378576101008083540402835291602001916113a3565b820191906000526020600020905b81548152906001019060200180831161138657829003601f168201915b5050505050815260200160018201548152602001600282015481526020016003820160009054906101000a900473ffffffffffffffffffffffffffffffffffffffff1673ffffffffffffffffffffffffffffffffffffffff1673ffffffffffffffffffffffffffffffffffffffff1681526020016004820160009054906101000a900473ffffffffffffffffffffffffffffffffffffffff1673ffffffffffffffffffffffffffffffffffffffff1673ffffffffffffffffffffffffffffffffffffffff16815260200160058201805461147c90612b25565b80601f01602080910402602001604051908101604052809291908181526020018280546114a890612b25565b80156114f55780601f106114ca576101008083540402835291602001916114f5565b820191906000526020600020905b8154815290600101906020018083116114d857829003601f168201915b505050505081526020016006820180548060200260200160405190810160405280929190818152602001828054801561154d57602002820191906000526020600020905b815481526020019060010190808311611539575b5050505050815250509050600073ffffffffffffffffffffffffffffffffffffffff16816060015173ffffffffffffffffffffffffffffffffffffffff1614156115cc576040517f08c379a00000000000000000000000000000000000000000000000000000000081526004016115c390612842565b60405180910390fd5b806060015173ffffffffffffffffffffffffffffffffffffffff163373ffffffffffffffffffffffffffffffffffffffff1614806116395750806080015173ffffffffffffffffffffffffffffffffffffffff163373ffffffffffffffffffffffffffffffffffffffff16145b60405160200161164890612663565b60405160208183030381529060405290611698576040517f08c379a000000000000000000000000000000000000000000000000000000000815260040161168f91906126f2565b60405180910390fd5b5080915050919050565b600080600083815260200190815260200160002090503373ffffffffffffffffffffffffffffffffffffffff168160040160009054906101000a900473ffffffffffffffffffffffffffffffffffffffff1673ffffffffffffffffffffffffffffffffffffffff161461174a576040517f08c379a0000000000000000000000000000000000000000000000000000000008152600401611741906127e2565b60405180910390fd5b6040518060400160405280600881526020017f4558504f5254454400000000000000000000000000000000000000000000000081525080519060200120816005016040516117989190612635565b6040518091039020146117e0576040517f08c379a00000000000000000000000000000000000000000000000000000000081526004016117d7906128b0565b60405180910390fd5b6040518060400160405280600881526020017f494d504f5254454400000000000000000000000000000000000000000000000081525081600501908051906020019061182d929190611aa8565b50806006014290806001815401808255809150506001900390600052602060002001600090919091909150556118633383611905565b600360003373ffffffffffffffffffffffffffffffffffffffff1673ffffffffffffffffffffffffffffffffffffffff168152602001908152602001600020829080600181540180825580915050600190039060005260206000200160009091909190915055817f6f2d58d35fe763ab9b31dd965e80a2ba8746ed797ec9e928ac99c40f0e9e8600426040516118f99190612862565b60405180910390a25050565b6000600260008473ffffffffffffffffffffffffffffffffffffffff1673ffffffffffffffffffffffffffffffffffffffff168152602001908152602001600020905060005b8180549050811015611aa25782828281548110611991577f4e487b7100000000000000000000000000000000000000000000000000000000600052603260045260246000fd5b90600052602060002001541415611a8f5781600183805490506119b49190612a69565b815481106119eb577f4e487b7100000000000000000000000000000000000000000000000000000000600052603260045260246000fd5b9060005260206000200154828281548110611a2f577f4e487b7100000000000000000000000000000000000000000000000000000000600052603260045260246000fd5b906000526020600020018190555081805480611a74577f4e487b7100000000000000000000000000000000000000000000000000000000600052603160045260246000fd5b60019003818190600052602060002001600090559055611aa2565b8080611a9a90612b57565b91505061194b565b50505050565b828054611ab490612b25565b90600052602060002090601f016020900481019282611ad65760008555611b1d565b82601f10611aef57805160ff1916838001178555611b1d565b82800160010185558215611b1d579182015b82811115611b1c578251825591602001919060010190611b01565b5b509050611b2a9190611b97565b5090565b6040518060e00160405280606081526020016000815260200160008152602001600073ffffffffffffffffffffffffffffffffffffffff168152602001600073ffffffffffffffffffffffffffffffffffffffff16815260200160608152602001606081525090565b5b80821115611bb0576000816000905550600101611b98565b5090565b6000611bc7611bc28461295e565b61292d565b905082815260208101848484011115611bdf57600080fd5b611bea848285612ae3565b509392505050565b600081359050611c0181612c79565b92915050565b600081359050611c1681612c90565b92915050565b600082601f830112611c2d57600080fd5b8135611c3d848260208601611bb4565b91505092915050565b600081359050611c5581612ca7565b92915050565b600060208284031215611c6d57600080fd5b6000611c7b84828501611bf2565b91505092915050565b600060208284031215611c9657600080fd5b6000611ca484828501611c07565b91505092915050565b600060208284031215611cbf57600080fd5b600082013567ffffffffffffffff811115611cd957600080fd5b611ce584828501611c1c565b91505092915050565b60008060008060808587031215611d0457600080fd5b600085013567ffffffffffffffff811115611d1e57600080fd5b611d2a87828801611c1c565b9450506020611d3b87828801611c46565b9350506040611d4c87828801611c46565b9250506060611d5d87828801611bf2565b91505092959194509250565b600060208284031215611d7b57600080fd5b6000611d8984828501611c46565b91505092915050565b6000611d9e8383611f11565b60208301905092915050565b6000611db68383612579565b60208301905092915050565b611dcb81612a9d565b82525050565b611dda81612a9d565b82525050565b611df1611dec82612a9d565b612ba0565b82525050565b6000611e02826129c3565b611e0c81856129fe565b9350611e178361298e565b8060005b83811015611e48578151611e2f8882611d92565b9750611e3a836129e4565b925050600181019050611e1b565b5085935050505092915050565b6000611e60826129ce565b611e6a8185612a0f565b9350611e758361299e565b8060005b83811015611ea6578151611e8d8882611daa565b9750611e98836129f1565b925050600181019050611e79565b5085935050505092915050565b6000611ebe826129ce565b611ec88185612a20565b9350611ed38361299e565b8060005b83811015611f04578151611eeb8882611daa565b9750611ef6836129f1565b925050600181019050611ed7565b5085935050505092915050565b611f1a81612aaf565b82525050565b611f2981612aaf565b82525050565b60008154611f3c81612b25565b611f468186612a31565b94506001821660008114611f615760018114611f7257611fa5565b60ff19831686528186019350611fa5565b611f7b856129ae565b60005b83811015611f9d57815481890152600182019150602081019050611f7e565b838801955050505b50505092915050565b6000611fb9826129d9565b611fc38185612a3c565b9350611fd3818560208601612af2565b611fdc81612c5b565b840191505092915050565b6000611ff2826129d9565b611ffc8185612a4d565b935061200c818560208601612af2565b61201581612c5b565b840191505092915050565b600061202b826129d9565b6120358185612a5e565b9350612045818560208601612af2565b80840191505092915050565b600061205e601283612a4d565b91507f4e616d6520616c72656164792074616b656e00000000000000000000000000006000830152602082019050919050565b600061209e601483612a4d565b91507f4e616d652063616e6e6f7420626520656d7074790000000000000000000000006000830152602082019050919050565b60006120de601083612a4d565b91507f57616c6c6574206e6f7420666f756e64000000000000000000000000000000006000830152602082019050919050565b600061211e600983612a4d565b91507f43414e43454c4c454400000000000000000000000000000000000000000000006000830152602082019050919050565b600061215e602f83612a4d565b91507f4f6e6c79207468652063757272656e74206f7261636c652063616e206173736960008301527f676e2061206e6577206f7261636c6500000000000000000000000000000000006020830152604082019050919050565b60006121c4602583612a4d565b91507f4f6e6c792074686520726563697069656e742063616e2064656e79207468697360008301527f206974656d0000000000000000000000000000000000000000000000000000006020830152604082019050919050565b600061222a602883612a4d565b91507f4f6e6c792074686520726563697069656e742063616e20636f6e6669726d207460008301527f686973206974656d0000000000000000000000000000000000000000000000006020830152604082019050919050565b6000612290602083612a4d565b91507f526563697069656e7420616464726573732063616e6e6f74206265207a65726f6000830152602082019050919050565b60006122d0602d83612a4d565b91507f4e6f7420617574686f72697a656420746f20766965772074686973206974656d60008301527f277320737461747573206c6f67000000000000000000000000000000000000006020830152604082019050919050565b6000612336601383612a4d565b91507f4974656d20646f6573206e6f74206578697374000000000000000000000000006000830152602082019050919050565b6000612376600883612a4d565b91507f494d504f525445440000000000000000000000000000000000000000000000006000830152602082019050919050565b60006123b6601383612a4d565b91507f4974656d20616c726561647920657869737473000000000000000000000000006000830152602082019050919050565b60006123f6601e83612a4d565b91507f4974656d206973206e6f7420696e204558504f525445442073746174757300006000830152602082019050919050565b6000612436602a83612a5e565b91507f4e6f7420617574686f72697a656420746f20766965772074686973206974656d60008301527f27732064657461696c73000000000000000000000000000000000000000000006020830152602a82019050919050565b600061249c600e83612a4d565b91507f4e6f7420617574686f72697a65640000000000000000000000000000000000006000830152602082019050919050565b600060e08301600083015184820360008601526124ec8282611fae565b91505060208301516125016020860182612579565b5060408301516125146040860182612579565b5060608301516125276060860182611dc2565b50608083015161253a6080860182611dc2565b5060a083015184820360a08601526125528282611fae565b91505060c083015184820360c086015261256c8282611e55565b9150508091505092915050565b61258281612ad9565b82525050565b61259181612ad9565b82525050565b6125a86125a382612ad9565b612bc4565b82525050565b60006125ba8284611de0565b60148201915081905092915050565b60006125d58289611de0565b6014820191506125e58288611de0565b6014820191506125f58287612597565b6020820191506126058286612020565b91506126118285612597565b6020820191506126218284612597565b602082019150819050979650505050505050565b60006126418284611f2f565b915081905092915050565b60006126588284612020565b915081905092915050565b600061266e82612429565b9150819050919050565b600060208201905061268d6000830184611dd1565b92915050565b600060208201905081810360008301526126ad8184611df7565b905092915050565b600060208201905081810360008301526126cf8184611eb3565b905092915050565b60006020820190506126ec6000830184611f20565b92915050565b6000602082019050818103600083015261270c8184611fe7565b905092915050565b6000602082019050818103600083015261272d81612051565b9050919050565b6000602082019050818103600083015261274d81612091565b9050919050565b6000602082019050818103600083015261276d816120d1565b9050919050565b6000604082019050818103600083015261278d81612111565b905061279c6020830184612588565b92915050565b600060208201905081810360008301526127bb81612151565b9050919050565b600060208201905081810360008301526127db816121b7565b9050919050565b600060208201905081810360008301526127fb8161221d565b9050919050565b6000602082019050818103600083015261281b81612283565b9050919050565b6000602082019050818103600083015261283b816122c3565b9050919050565b6000602082019050818103600083015261285b81612329565b9050919050565b6000604082019050818103600083015261287b81612369565b905061288a6020830184612588565b92915050565b600060208201905081810360008301526128a9816123a9565b9050919050565b600060208201905081810360008301526128c9816123e9565b9050919050565b600060208201905081810360008301526128e98161248f565b9050919050565b6000602082019050818103600083015261290a81846124cf565b905092915050565b60006020820190506129276000830184612588565b92915050565b6000604051905081810181811067ffffffffffffffff8211171561295457612953612c2c565b5b8060405250919050565b600067ffffffffffffffff82111561297957612978612c2c565b5b601f19601f8301169050602081019050919050565b6000819050602082019050919050565b6000819050602082019050919050565b60008190508160005260206000209050919050565b600081519050919050565b600081519050919050565b600081519050919050565b6000602082019050919050565b6000602082019050919050565b600082825260208201905092915050565b600082825260208201905092915050565b600082825260208201905092915050565b600081905092915050565b600082825260208201905092915050565b600082825260208201905092915050565b600081905092915050565b6000612a7482612ad9565b9150612a7f83612ad9565b925082821015612a9257612a91612bce565b5b828203905092915050565b6000612aa882612ab9565b9050919050565b6000819050919050565b600073ffffffffffffffffffffffffffffffffffffffff82169050919050565b6000819050919050565b82818337600083830152505050565b60005b83811015612b10578082015181840152602081019050612af5565b83811115612b1f576000848401525b50505050565b60006002820490506001821680612b3d57607f821691505b60208210811415612b5157612b50612bfd565b5b50919050565b6000612b6282612ad9565b91507fffffffffffffffffffffffffffffffffffffffffffffffffffffffffffffffff821415612b9557612b94612bce565b5b600182019050919050565b6000612bab82612bb2565b9050919050565b6000612bbd82612c6c565b9050919050565b6000819050919050565b7f4e487b7100000000000000000000000000000000000000000000000000000000600052601160045260246000fd5b7f4e487b7100000000000000000000000000000000000000000000000000000000600052602260045260246000fd5b7f4e487b7100000000000000000000000000000000000000000000000000000000600052604160045260246000fd5b6000601f19601f8301169050919050565b60008160601b9050919050565b612c8281612a9d565b8114612c8d57600080fd5b50565b612c9981612aaf565b8114612ca457600080fd5b50565b612cb081612ad9565b8114612cbb57600080fd5b5056fea2646970667358221220134ad4c745dff22f4206a731acfe895973f0e3c068fb83832854e9d85c62b2bb64736f6c63430008000033",
  "immutableReferences": {},
  "source": "// SPDX-License-Identifier: MIT\npragma solidity ^0.8.0;\n\ncontract SupplyChain {\n    struct Item {\n        string product;\n        uint256 qty;\n        uint256 value;\n        address exporter;\n        address recipient;\n        string status; // EXPORTED, IMPORTED, CANCELLED\n        uint256[] statusTimestamps;\n    }\n\n    mapping(bytes32 => Item) private items; // transactionHash => Item\n    mapping(bytes32 => address) private itemAccess; // transactionHash => recipient (for privacy)\n    mapping(address => bytes32[]) private inbox; // recipient => transactionHashes\n    mapping(address => bytes32[]) private asset; // recipient => transactionHashes (IMPORTED items)\n    mapping(address => string) private walletNames; // address => Wallet Name\n    mapping(string => address) private nameToAddress; // Wallet Name => address for search\n\n    address public oracle;\n    uint256 public lastUpdatedTime;\n    bytes32[] public transactionHashes;\n\n    event ItemExported(bytes32 indexed transactionHash, address indexed exporter, address indexed recipient);\n    event StatusUpdated(bytes32 indexed transactionHash, string newStatus, uint256 timestamp);\n    event TimeUpdated(uint256 timestamp);\n    event WalletNameRegistered(address indexed wallet, string name);\n\n    // set the deployer of the contract as the oracle\n    constructor() {\n        oracle = msg.sender;\n        lastUpdatedTime = block.timestamp;\n    }\n\n    modifier onlyOracle() {\n        require(msg.sender == oracle, \"Not authorized\");\n        _;\n    }\n\n    function setOracle(address _oracle) public {\n        require(msg.sender == oracle, \"Only the current oracle can assign a new oracle\");\n        oracle = _oracle;\n    }\n\n    function registerWalletName(string memory name) public {\n        require(bytes(name).length > 0, \"Name cannot be empty\");\n        require(nameToAddress[name] == address(0), \"Name already taken\");\n\n        walletNames[msg.sender] = name;\n        nameToAddress[name] = msg.sender;\n\n        emit WalletNameRegistered(msg.sender, name);\n    }\n\n    function searchWalletByName(string memory name) public view returns (address) {\n        address wallet = nameToAddress[name];\n        require(wallet != address(0), \"Wallet not found\");\n        return wallet;\n    }\n\n    function deriveInboxAddress(address recipient) public pure returns (bytes32) {\n        return keccak256(abi.encodePacked(recipient));\n    }\n\n    function removeFromInbox(address recipient, bytes32 transactionHash) internal {\n        bytes32[] storage userInbox = inbox[recipient];\n        for (uint256 i = 0; i < userInbox.length; i++) {\n            if (userInbox[i] == transactionHash) {\n                userInbox[i] = userInbox[userInbox.length - 1];\n                userInbox.pop();\n                break;\n            }\n        }\n    }\n\n    function exportItem(\n        string memory product,\n        uint256 qty,\n        uint256 value,\n        address recipient\n    ) public returns (bytes32) {\n        require(recipient != address(0), \"Recipient address cannot be zero\");\n\n        // Generate a unique transaction hash\n        bytes32 transactionHash = keccak256(\n            abi.encodePacked(msg.sender, recipient, block.timestamp, product, qty, value)\n        );\n\n        require(items[transactionHash].exporter == address(0), \"Item already exists\");\n        \n        // Initialize the item and add the first timestamp after creating the struct\n        Item storage newItem = items[transactionHash];\n        require(newItem.exporter == address(0), \"Item already exists\");\n        newItem.product = product;\n        newItem.qty = qty;\n        newItem.value = value;\n        newItem.exporter = msg.sender;\n        newItem.recipient = recipient;\n        newItem.status = \"EXPORTED\";\n        newItem.statusTimestamps.push(block.timestamp);\n\n        // Store recipient's inbox\n        inbox[recipient].push(transactionHash);\n\n        // Store the recipient for privacy\n        itemAccess[transactionHash] = recipient;\n\n        // Add the transaction hash to the list of all transaction hashes\n        transactionHashes.push(transactionHash);\n\n        emit ItemExported(transactionHash, msg.sender, recipient);\n        return transactionHash;\n    }\n\n    function confirmItem(bytes32 transactionHash) public {\n        Item storage item = items[transactionHash];\n        require(item.recipient == msg.sender, \"Only the recipient can confirm this item\");\n        require(keccak256(bytes(item.status)) == keccak256(bytes(\"EXPORTED\")), \"Item is not in EXPORTED status\");\n\n        item.status = \"IMPORTED\";\n        item.statusTimestamps.push(block.timestamp);\n\n        removeFromInbox(msg.sender, transactionHash);\n        asset[msg.sender].push(transactionHash);\n\n        emit StatusUpdated(transactionHash, \"IMPORTED\", block.timestamp);\n    }\n\n    function denyItem(bytes32 transactionHash) public {\n        Item storage item = items[transactionHash];\n        require(item.recipient == msg.sender, \"Only the recipient can deny this item\");\n        require(keccak256(bytes(item.status)) == keccak256(bytes(\"EXPORTED\")), \"Item is not in EXPORTED status\");\n\n        item.status = \"CANCELLED\";\n        item.statusTimestamps.push(block.timestamp);\n\n        removeFromInbox(msg.sender, transactionHash);\n\n        emit StatusUpdated(transactionHash, \"CANCELLED\", block.timestamp);\n    }\n\n    function getInbox(address recipient) public view returns (bytes32[] memory) {\n        return inbox[recipient];\n    }\n\n    function getAsset(address recipient) public view returns (bytes32[] memory) {\n        return asset[recipient];\n    }\n\n    function getItemDetails(bytes32 transactionHash) public view returns (Item memory) {\n        Item memory item = items[transactionHash];\n        require(item.exporter != address(0), \"Item does not exist\");\n        require(\n            msg.sender == item.exporter || msg.sender == item.recipient,\n            string(\n                abi.encodePacked(\"Not authorized to view this item's details\")\n            )\n        );\n        return item;\n    }\n\n    function getStatusLog(bytes32 transactionHash) public view returns (uint256[] memory) {\n        Item memory item = items[transactionHash];\n        require(\n            msg.sender == item.exporter || msg.sender == item.recipient,\n            \"Not authorized to view this item's status log\"\n        );\n        return item.statusTimestamps;\n    }\n\n    function updateTime(uint256 _time) public onlyOracle {\n        lastUpdatedTime = _time;\n        emit TimeUpdated(_time);\n    }\n\n    function getTime() public view returns (uint256) {\n        return lastUpdatedTime;\n    }\n}",
  "sourcePath": "/mnt/c/GitHub/BlockTradeChain/contract/contracts/SupplyChain.sol",
  "compiler": {
    "name": "solc",
    "version": "0.8.0+commit.c7dfd78e.Emscripten.clang"
  },
  "schemaVersion": "3.4.16",
  "updatedAt": "2024-12-26T13:48:53.747Z",
  "networkType": "ethereum",
  "devdoc": {
    "kind": "dev",
    "methods": {},
    "version": 1
  },
  "userdoc": {
    "kind": "user",
    "methods": {},
    "version": 1
  }
}