{
  "contractName": "SupplyChain",
  "abi": [
    {
      "inputs": [],
      "stateMutability": "nonpayable",
      "type": "constructor"
    },
    {
      "anonymous": false,
      "inputs": [
        {
          "indexed": true,
          "internalType": "bytes32",
          "name": "transactionHash",
          "type": "bytes32"
        },
        {
          "indexed": true,
          "internalType": "address",
          "name": "exporter",
          "type": "address"
        },
        {
          "indexed": true,
          "internalType": "address",
          "name": "recipient",
          "type": "address"
        }
      ],
      "name": "ItemExported",
      "type": "event"
    },
    {
      "anonymous": false,
      "inputs": [
        {
          "indexed": true,
          "internalType": "bytes32",
          "name": "transactionHash",
          "type": "bytes32"
        },
        {
          "indexed": false,
          "internalType": "string",
          "name": "newStatus",
          "type": "string"
        },
        {
          "indexed": false,
          "internalType": "uint256",
          "name": "timestamp",
          "type": "uint256"
        }
      ],
      "name": "StatusUpdated",
      "type": "event"
    },
    {
      "anonymous": false,
      "inputs": [
        {
          "indexed": false,
          "internalType": "uint256",
          "name": "timestamp",
          "type": "uint256"
        }
      ],
      "name": "TimeUpdated",
      "type": "event"
    },
    {
      "inputs": [],
      "name": "lastUpdatedTime",
      "outputs": [
        {
          "internalType": "uint256",
          "name": "",
          "type": "uint256"
        }
      ],
      "stateMutability": "view",
      "type": "function",
      "constant": true
    },
    {
      "inputs": [],
      "name": "oracle",
      "outputs": [
        {
          "internalType": "address",
          "name": "",
          "type": "address"
        }
      ],
      "stateMutability": "view",
      "type": "function",
      "constant": true
    },
    {
      "inputs": [
        {
          "internalType": "uint256",
          "name": "",
          "type": "uint256"
        }
      ],
      "name": "transactionHashes",
      "outputs": [
        {
          "internalType": "bytes32",
          "name": "",
          "type": "bytes32"
        }
      ],
      "stateMutability": "view",
      "type": "function",
      "constant": true
    },
    {
      "inputs": [
        {
          "internalType": "address",
          "name": "_oracle",
          "type": "address"
        }
      ],
      "name": "setOracle",
      "outputs": [],
      "stateMutability": "nonpayable",
      "type": "function"
    },
    {
      "inputs": [
        {
          "internalType": "string",
          "name": "product",
          "type": "string"
        },
        {
          "internalType": "uint256",
          "name": "qty",
          "type": "uint256"
        },
        {
          "internalType": "uint256",
          "name": "value",
          "type": "uint256"
        },
        {
          "internalType": "address",
          "name": "recipient",
          "type": "address"
        }
      ],
      "name": "exportItem",
      "outputs": [
        {
          "internalType": "bytes32",
          "name": "",
          "type": "bytes32"
        }
      ],
      "stateMutability": "nonpayable",
      "type": "function"
    },
    {
      "inputs": [
        {
          "internalType": "bytes32",
          "name": "transactionHash",
          "type": "bytes32"
        }
      ],
      "name": "confirmItem",
      "outputs": [],
      "stateMutability": "nonpayable",
      "type": "function"
    },
    {
      "inputs": [
        {
          "internalType": "bytes32",
          "name": "transactionHash",
          "type": "bytes32"
        }
      ],
      "name": "denyItem",
      "outputs": [],
      "stateMutability": "nonpayable",
      "type": "function"
    },
    {
      "inputs": [
        {
          "internalType": "bytes32",
          "name": "transactionHash",
          "type": "bytes32"
        }
      ],
      "name": "getItemDetails",
      "outputs": [
        {
          "components": [
            {
              "internalType": "string",
              "name": "product",
              "type": "string"
            },
            {
              "internalType": "uint256",
              "name": "qty",
              "type": "uint256"
            },
            {
              "internalType": "uint256",
              "name": "value",
              "type": "uint256"
            },
            {
              "internalType": "address",
              "name": "exporter",
              "type": "address"
            },
            {
              "internalType": "address",
              "name": "recipient",
              "type": "address"
            },
            {
              "internalType": "string",
              "name": "status",
              "type": "string"
            },
            {
              "internalType": "uint256[]",
              "name": "statusTimestamps",
              "type": "uint256[]"
            }
          ],
          "internalType": "struct SupplyChain.Item",
          "name": "",
          "type": "tuple"
        }
      ],
      "stateMutability": "view",
      "type": "function",
      "constant": true
    },
    {
      "inputs": [
        {
          "internalType": "bytes32",
          "name": "transactionHash",
          "type": "bytes32"
        }
      ],
      "name": "getStatusLog",
      "outputs": [
        {
          "internalType": "uint256[]",
          "name": "",
          "type": "uint256[]"
        }
      ],
      "stateMutability": "view",
      "type": "function",
      "constant": true
    },
    {
      "inputs": [
        {
          "internalType": "uint256",
          "name": "_time",
          "type": "uint256"
        }
      ],
      "name": "updateTime",
      "outputs": [],
      "stateMutability": "nonpayable",
      "type": "function"
    },
    {
      "inputs": [],
      "name": "getTime",
      "outputs": [
        {
          "internalType": "uint256",
          "name": "",
          "type": "uint256"
        }
      ],
      "stateMutability": "view",
      "type": "function",
      "constant": true
    }
  ],
  "bytecode": "0x608060405234801561001057600080fd5b5033600260006101000a81548173ffffffffffffffffffffffffffffffffffffffff021916908373ffffffffffffffffffffffffffffffffffffffff1602179055504260038190555061216d806100686000396000f3fe608060405234801561001057600080fd5b50600436106100a95760003560e01c80637dc0d1d0116100715780637dc0d1d014610164578063a49e5f2c14610182578063bf8568951461019e578063c3b77da8146101bc578063d1e3d120146101ec578063fc9ed2501461021c576100a9565b8063213dafcd146100ae578063557ed1ba146100de5780636c59bd0c146100fc5780636f8d7401146101185780637adbf97314610148575b600080fd5b6100c860048036038101906100c391906114c0565b610238565b6040516100d59190611c95565b60405180910390f35b6100e661025c565b6040516100f39190611e70565b60405180910390f35b610116600480360381019061011191906114c0565b610266565b005b610132600480360381019061012d919061141c565b610337565b60405161013f9190611c73565b60405180910390f35b610162600480360381019061015d91906113f3565b61064f565b005b61016c610723565b6040516101799190611c58565b60405180910390f35b61019c6004803603810190610197919061141c565b610749565b005b6101a661093c565b6040516101b39190611e70565b60405180910390f35b6101d660048036038101906101d19190611445565b610942565b6040516101e39190611c95565b60405180910390f35b6102066004803603810190610201919061141c565b610c9e565b6040516102139190611e4e565b60405180910390f35b6102366004803603810190610231919061141c565b61104d565b005b6004818154811061024857600080fd5b906000526020600020016000915090505481565b6000600354905090565b600260009054906101000a900473ffffffffffffffffffffffffffffffffffffffff1673ffffffffffffffffffffffffffffffffffffffff163373ffffffffffffffffffffffffffffffffffffffff16146102f6576040517f08c379a00000000000000000000000000000000000000000000000000000000081526004016102ed90611e2e565b60405180910390fd5b806003819055507f89c93b2d508150920890ffe8618ab7811923d95fa8770ecb495ca54cb15c71698160405161032c9190611e70565b60405180910390a150565b606060008060008481526020019081526020016000206040518060e001604052908160008201805461036890612016565b80601f016020809104026020016040519081016040528092919081815260200182805461039490612016565b80156103e15780601f106103b6576101008083540402835291602001916103e1565b820191906000526020600020905b8154815290600101906020018083116103c457829003601f168201915b5050505050815260200160018201548152602001600282015481526020016003820160009054906101000a900473ffffffffffffffffffffffffffffffffffffffff1673ffffffffffffffffffffffffffffffffffffffff1673ffffffffffffffffffffffffffffffffffffffff1681526020016004820160009054906101000a900473ffffffffffffffffffffffffffffffffffffffff1673ffffffffffffffffffffffffffffffffffffffff1673ffffffffffffffffffffffffffffffffffffffff1681526020016005820180546104ba90612016565b80601f01602080910402602001604051908101604052809291908181526020018280546104e690612016565b80156105335780601f1061050857610100808354040283529160200191610533565b820191906000526020600020905b81548152906001019060200180831161051657829003601f168201915b505050505081526020016006820180548060200260200160405190810160405280929190818152602001828054801561058b57602002820191906000526020600020905b815481526020019060010190808311610577575b5050505050815250509050806060015173ffffffffffffffffffffffffffffffffffffffff163373ffffffffffffffffffffffffffffffffffffffff1614806106035750806080015173ffffffffffffffffffffffffffffffffffffffff163373ffffffffffffffffffffffffffffffffffffffff16145b610642576040517f08c379a000000000000000000000000000000000000000000000000000000000815260040161063990611d80565b60405180910390fd5b8060c00151915050919050565b600260009054906101000a900473ffffffffffffffffffffffffffffffffffffffff1673ffffffffffffffffffffffffffffffffffffffff163373ffffffffffffffffffffffffffffffffffffffff16146106df576040517f08c379a00000000000000000000000000000000000000000000000000000000081526004016106d690611d00565b60405180910390fd5b80600260006101000a81548173ffffffffffffffffffffffffffffffffffffffff021916908373ffffffffffffffffffffffffffffffffffffffff16021790555050565b600260009054906101000a900473ffffffffffffffffffffffffffffffffffffffff1681565b600080600083815260200190815260200160002090503373ffffffffffffffffffffffffffffffffffffffff168160040160009054906101000a900473ffffffffffffffffffffffffffffffffffffffff1673ffffffffffffffffffffffffffffffffffffffff16146107f1576040517f08c379a00000000000000000000000000000000000000000000000000000000081526004016107e890611d20565b60405180910390fd5b6040518060400160405280600881526020017f4558504f52544544000000000000000000000000000000000000000000000000815250805190602001208160050160405161083f9190611c2c565b604051809103902014610887576040517f08c379a000000000000000000000000000000000000000000000000000000000815260040161087e90611e0e565b60405180910390fd5b6040518060400160405280600981526020017f43414e43454c4c454400000000000000000000000000000000000000000000008152508160050190805190602001906108d4929190611240565b5080600601429080600181540180825580915050600190039060005260206000200160009091909190915055817f6f2d58d35fe763ab9b31dd965e80a2ba8746ed797ec9e928ac99c40f0e9e8600426040516109309190611cd2565b60405180910390a25050565b60035481565b60008073ffffffffffffffffffffffffffffffffffffffff168273ffffffffffffffffffffffffffffffffffffffff1614156109b3576040517f08c379a00000000000000000000000000000000000000000000000000000000081526004016109aa90611d60565b60405180910390fd5b60003383428888886040516020016109d096959493929190611bc0565b60405160208183030381529060405280519060200120905060008060008381526020019081526020016000209050600073ffffffffffffffffffffffffffffffffffffffff168160030160009054906101000a900473ffffffffffffffffffffffffffffffffffffffff1673ffffffffffffffffffffffffffffffffffffffff1614610a91576040517f08c379a0000000000000000000000000000000000000000000000000000000008152600401610a8890611dee565b60405180910390fd5b86816000019080519060200190610aa9929190611240565b50858160010181905550848160020181905550338160030160006101000a81548173ffffffffffffffffffffffffffffffffffffffff021916908373ffffffffffffffffffffffffffffffffffffffff160217905550838160040160006101000a81548173ffffffffffffffffffffffffffffffffffffffff021916908373ffffffffffffffffffffffffffffffffffffffff1602179055506040518060400160405280600881526020017f4558504f52544544000000000000000000000000000000000000000000000000815250816005019080519060200190610b8f929190611240565b5080600601429080600181540180825580915050600190039060005260206000200160009091909190915055836001600084815260200190815260200160002060006101000a81548173ffffffffffffffffffffffffffffffffffffffff021916908373ffffffffffffffffffffffffffffffffffffffff16021790555060048290806001815401808255809150506001900390600052602060002001600090919091909150558373ffffffffffffffffffffffffffffffffffffffff163373ffffffffffffffffffffffffffffffffffffffff16837f8cabda4ff5d88802c4200cd965df85fe466ae1fc1e011594df1b44d023c2357f60405160405180910390a48192505050949350505050565b610ca66112c6565b60008060008481526020019081526020016000206040518060e0016040529081600082018054610cd590612016565b80601f0160208091040260200160405190810160405280929190818152602001828054610d0190612016565b8015610d4e5780601f10610d2357610100808354040283529160200191610d4e565b820191906000526020600020905b815481529060010190602001808311610d3157829003601f168201915b5050505050815260200160018201548152602001600282015481526020016003820160009054906101000a900473ffffffffffffffffffffffffffffffffffffffff1673ffffffffffffffffffffffffffffffffffffffff1673ffffffffffffffffffffffffffffffffffffffff1681526020016004820160009054906101000a900473ffffffffffffffffffffffffffffffffffffffff1673ffffffffffffffffffffffffffffffffffffffff1673ffffffffffffffffffffffffffffffffffffffff168152602001600582018054610e2790612016565b80601f0160208091040260200160405190810160405280929190818152602001828054610e5390612016565b8015610ea05780601f10610e7557610100808354040283529160200191610ea0565b820191906000526020600020905b815481529060010190602001808311610e8357829003601f168201915b5050505050815260200160068201805480602002602001604051908101604052809291908181526020018280548015610ef857602002820191906000526020600020905b815481526020019060010190808311610ee4575b5050505050815250509050600073ffffffffffffffffffffffffffffffffffffffff16816060015173ffffffffffffffffffffffffffffffffffffffff161415610f77576040517f08c379a0000000000000000000000000000000000000000000000000000000008152600401610f6e90611da0565b60405180910390fd5b806060015173ffffffffffffffffffffffffffffffffffffffff163373ffffffffffffffffffffffffffffffffffffffff161480610fe45750806080015173ffffffffffffffffffffffffffffffffffffffff163373ffffffffffffffffffffffffffffffffffffffff16145b604051602001610ff390611c43565b60405160208183030381529060405290611043576040517f08c379a000000000000000000000000000000000000000000000000000000000815260040161103a9190611cb0565b60405180910390fd5b5080915050919050565b600080600083815260200190815260200160002090503373ffffffffffffffffffffffffffffffffffffffff168160040160009054906101000a900473ffffffffffffffffffffffffffffffffffffffff1673ffffffffffffffffffffffffffffffffffffffff16146110f5576040517f08c379a00000000000000000000000000000000000000000000000000000000081526004016110ec90611d40565b60405180910390fd5b6040518060400160405280600881526020017f4558504f5254454400000000000000000000000000000000000000000000000081525080519060200120816005016040516111439190611c2c565b60405180910390201461118b576040517f08c379a000000000000000000000000000000000000000000000000000000000815260040161118290611e0e565b60405180910390fd5b6040518060400160405280600881526020017f494d504f525445440000000000000000000000000000000000000000000000008152508160050190805190602001906111d8929190611240565b5080600601429080600181540180825580915050600190039060005260206000200160009091909190915055817f6f2d58d35fe763ab9b31dd965e80a2ba8746ed797ec9e928ac99c40f0e9e8600426040516112349190611dc0565b60405180910390a25050565b82805461124c90612016565b90600052602060002090601f01602090048101928261126e57600085556112b5565b82601f1061128757805160ff19168380011785556112b5565b828001600101855582156112b5579182015b828111156112b4578251825591602001919060010190611299565b5b5090506112c2919061132f565b5090565b6040518060e00160405280606081526020016000815260200160008152602001600073ffffffffffffffffffffffffffffffffffffffff168152602001600073ffffffffffffffffffffffffffffffffffffffff16815260200160608152602001606081525090565b5b80821115611348576000816000905550600101611330565b5090565b600061135f61135a84611ebc565b611e8b565b90508281526020810184848401111561137757600080fd5b611382848285611fd4565b509392505050565b600081359050611399816120f2565b92915050565b6000813590506113ae81612109565b92915050565b600082601f8301126113c557600080fd5b81356113d584826020860161134c565b91505092915050565b6000813590506113ed81612120565b92915050565b60006020828403121561140557600080fd5b60006114138482850161138a565b91505092915050565b60006020828403121561142e57600080fd5b600061143c8482850161139f565b91505092915050565b6000806000806080858703121561145b57600080fd5b600085013567ffffffffffffffff81111561147557600080fd5b611481878288016113b4565b9450506020611492878288016113de565b93505060406114a3878288016113de565b92505060606114b48782880161138a565b91505092959194509250565b6000602082840312156114d257600080fd5b60006114e0848285016113de565b91505092915050565b60006114f58383611b8b565b60208301905092915050565b61150a81611f8e565b82525050565b61151981611f8e565b82525050565b61153061152b82611f8e565b612048565b82525050565b600061154182611f11565b61154b8185611f34565b935061155683611eec565b8060005b8381101561158757815161156e88826114e9565b975061157983611f27565b92505060018101905061155a565b5085935050505092915050565b600061159f82611f11565b6115a98185611f45565b93506115b483611eec565b8060005b838110156115e55781516115cc88826114e9565b97506115d783611f27565b9250506001810190506115b8565b5085935050505092915050565b6115fb81611fa0565b82525050565b6000815461160e81612016565b6116188186611f56565b94506001821660008114611633576001811461164457611677565b60ff19831686528186019350611677565b61164d85611efc565b60005b8381101561166f57815481890152600182019150602081019050611650565b838801955050505b50505092915050565b600061168b82611f1c565b6116958185611f61565b93506116a5818560208601611fe3565b6116ae816120d4565b840191505092915050565b60006116c482611f1c565b6116ce8185611f72565b93506116de818560208601611fe3565b6116e7816120d4565b840191505092915050565b60006116fd82611f1c565b6117078185611f83565b9350611717818560208601611fe3565b80840191505092915050565b6000611730600983611f72565b91507f43414e43454c4c454400000000000000000000000000000000000000000000006000830152602082019050919050565b6000611770602f83611f72565b91507f4f6e6c79207468652063757272656e74206f7261636c652063616e206173736960008301527f676e2061206e6577206f7261636c6500000000000000000000000000000000006020830152604082019050919050565b60006117d6602583611f72565b91507f4f6e6c792074686520726563697069656e742063616e2064656e79207468697360008301527f206974656d0000000000000000000000000000000000000000000000000000006020830152604082019050919050565b600061183c602883611f72565b91507f4f6e6c792074686520726563697069656e742063616e20636f6e6669726d207460008301527f686973206974656d0000000000000000000000000000000000000000000000006020830152604082019050919050565b60006118a2602083611f72565b91507f526563697069656e7420616464726573732063616e6e6f74206265207a65726f6000830152602082019050919050565b60006118e2602d83611f72565b91507f4e6f7420617574686f72697a656420746f20766965772074686973206974656d60008301527f277320737461747573206c6f67000000000000000000000000000000000000006020830152604082019050919050565b6000611948601383611f72565b91507f4974656d20646f6573206e6f74206578697374000000000000000000000000006000830152602082019050919050565b6000611988600883611f72565b91507f494d504f525445440000000000000000000000000000000000000000000000006000830152602082019050919050565b60006119c8601383611f72565b91507f4974656d20616c726561647920657869737473000000000000000000000000006000830152602082019050919050565b6000611a08601e83611f72565b91507f4974656d206973206e6f7420696e204558504f525445442073746174757300006000830152602082019050919050565b6000611a48602a83611f83565b91507f4e6f7420617574686f72697a656420746f20766965772074686973206974656d60008301527f27732064657461696c73000000000000000000000000000000000000000000006020830152602a82019050919050565b6000611aae600e83611f72565b91507f4e6f7420617574686f72697a65640000000000000000000000000000000000006000830152602082019050919050565b600060e0830160008301518482036000860152611afe8282611680565b9150506020830151611b136020860182611b8b565b506040830151611b266040860182611b8b565b506060830151611b396060860182611501565b506080830151611b4c6080860182611501565b5060a083015184820360a0860152611b648282611680565b91505060c083015184820360c0860152611b7e8282611536565b9150508091505092915050565b611b9481611fca565b82525050565b611ba381611fca565b82525050565b611bba611bb582611fca565b61206c565b82525050565b6000611bcc828961151f565b601482019150611bdc828861151f565b601482019150611bec8287611ba9565b602082019150611bfc82866116f2565b9150611c088285611ba9565b602082019150611c188284611ba9565b602082019150819050979650505050505050565b6000611c388284611601565b915081905092915050565b6000611c4e82611a3b565b9150819050919050565b6000602082019050611c6d6000830184611510565b92915050565b60006020820190508181036000830152611c8d8184611594565b905092915050565b6000602082019050611caa60008301846115f2565b92915050565b60006020820190508181036000830152611cca81846116b9565b905092915050565b60006040820190508181036000830152611ceb81611723565b9050611cfa6020830184611b9a565b92915050565b60006020820190508181036000830152611d1981611763565b9050919050565b60006020820190508181036000830152611d39816117c9565b9050919050565b60006020820190508181036000830152611d598161182f565b9050919050565b60006020820190508181036000830152611d7981611895565b9050919050565b60006020820190508181036000830152611d99816118d5565b9050919050565b60006020820190508181036000830152611db98161193b565b9050919050565b60006040820190508181036000830152611dd98161197b565b9050611de86020830184611b9a565b92915050565b60006020820190508181036000830152611e07816119bb565b9050919050565b60006020820190508181036000830152611e27816119fb565b9050919050565b60006020820190508181036000830152611e4781611aa1565b9050919050565b60006020820190508181036000830152611e688184611ae1565b905092915050565b6000602082019050611e856000830184611b9a565b92915050565b6000604051905081810181811067ffffffffffffffff82111715611eb257611eb16120a5565b5b8060405250919050565b600067ffffffffffffffff821115611ed757611ed66120a5565b5b601f19601f8301169050602081019050919050565b6000819050602082019050919050565b60008190508160005260206000209050919050565b600081519050919050565b600081519050919050565b6000602082019050919050565b600082825260208201905092915050565b600082825260208201905092915050565b600081905092915050565b600082825260208201905092915050565b600082825260208201905092915050565b600081905092915050565b6000611f9982611faa565b9050919050565b6000819050919050565b600073ffffffffffffffffffffffffffffffffffffffff82169050919050565b6000819050919050565b82818337600083830152505050565b60005b83811015612001578082015181840152602081019050611fe6565b83811115612010576000848401525b50505050565b6000600282049050600182168061202e57607f821691505b6020821081141561204257612041612076565b5b50919050565b60006120538261205a565b9050919050565b6000612065826120e5565b9050919050565b6000819050919050565b7f4e487b7100000000000000000000000000000000000000000000000000000000600052602260045260246000fd5b7f4e487b7100000000000000000000000000000000000000000000000000000000600052604160045260246000fd5b6000601f19601f8301169050919050565b60008160601b9050919050565b6120fb81611f8e565b811461210657600080fd5b50565b61211281611fa0565b811461211d57600080fd5b50565b61212981611fca565b811461213457600080fd5b5056fea264697066735822122086347783da152d055c001db3fc878b8ac773e675af6f2b78bda6f379ff08c45964736f6c63430008000033",
  "immutableReferences": {},
  "source": "// SPDX-License-Identifier: MIT\npragma solidity ^0.8.0;\n\ncontract SupplyChain {\n    struct Item {\n        string product;\n        uint256 qty;\n        uint256 value;\n        address exporter;\n        address recipient;\n        string status; // EXPORTED, IMPORTED, CANCELLED\n        uint256[] statusTimestamps;\n    }\n\n    mapping(bytes32 => Item) private items; // transactionHash => Item\n    mapping(bytes32 => address) private itemAccess; // transactionHash => recipient (for privacy)\n\n    address public oracle;\n    uint256 public lastUpdatedTime;\n    bytes32[] public transactionHashes;\n\n    event ItemExported(bytes32 indexed transactionHash, address indexed exporter, address indexed recipient);\n    event StatusUpdated(bytes32 indexed transactionHash, string newStatus, uint256 timestamp);\n    event TimeUpdated(uint256 timestamp);\n\n    // set the deployer of the contract as the oracle\n    constructor() {\n        oracle = msg.sender;\n        lastUpdatedTime = block.timestamp;\n    }\n\n    modifier onlyOracle() {\n        require(msg.sender == oracle, \"Not authorized\");\n        _;\n    }\n\n    function setOracle(address _oracle) public {\n        require(msg.sender == oracle, \"Only the current oracle can assign a new oracle\");\n        oracle = _oracle;\n    }\n\n    function exportItem(\n        string memory product,\n        uint256 qty,\n        uint256 value,\n        address recipient\n    ) public returns (bytes32) {\n        require(recipient != address(0), \"Recipient address cannot be zero\");\n\n        // Generate a unique transaction hash\n        bytes32 transactionHash = keccak256(\n            abi.encodePacked(msg.sender, recipient, block.timestamp, product, qty, value)\n        );\n        \n        // Initialize the item and add the first timestamp after creating the struct\n        Item storage newItem = items[transactionHash];\n        require(newItem.exporter == address(0), \"Item already exists\");\n        newItem.product = product;\n        newItem.qty = qty;\n        newItem.value = value;\n        newItem.exporter = msg.sender;\n        newItem.recipient = recipient;\n        newItem.status = \"EXPORTED\";\n        newItem.statusTimestamps.push(block.timestamp);\n\n        // Store the recipient for privacy\n        itemAccess[transactionHash] = recipient;\n\n        // Add the transaction hash to the list of all transaction hashes\n        transactionHashes.push(transactionHash);\n\n        emit ItemExported(transactionHash, msg.sender, recipient);\n        return transactionHash;\n    }\n\n    function confirmItem(bytes32 transactionHash) public {\n        Item storage item = items[transactionHash];\n        require(item.recipient == msg.sender, \"Only the recipient can confirm this item\");\n        require(keccak256(bytes(item.status)) == keccak256(bytes(\"EXPORTED\")), \"Item is not in EXPORTED status\");\n\n        item.status = \"IMPORTED\";\n        item.statusTimestamps.push(block.timestamp);\n\n        emit StatusUpdated(transactionHash, \"IMPORTED\", block.timestamp);\n    }\n\n    function denyItem(bytes32 transactionHash) public {\n        Item storage item = items[transactionHash];\n        require(item.recipient == msg.sender, \"Only the recipient can deny this item\");\n        require(keccak256(bytes(item.status)) == keccak256(bytes(\"EXPORTED\")), \"Item is not in EXPORTED status\");\n\n        item.status = \"CANCELLED\";\n        item.statusTimestamps.push(block.timestamp);\n\n        emit StatusUpdated(transactionHash, \"CANCELLED\", block.timestamp);\n    }\n\n    function getItemDetails(bytes32 transactionHash) public view returns (Item memory) {\n        Item memory item = items[transactionHash];\n        require(item.exporter != address(0), \"Item does not exist\");\n        require(\n            msg.sender == item.exporter || msg.sender == item.recipient,\n            string(\n                abi.encodePacked(\"Not authorized to view this item's details\")\n            )\n        );\n        return item;\n    }\n\n    function getStatusLog(bytes32 transactionHash) public view returns (uint256[] memory) {\n        Item memory item = items[transactionHash];\n        require(\n            msg.sender == item.exporter || msg.sender == item.recipient,\n            \"Not authorized to view this item's status log\"\n        );\n        return item.statusTimestamps;\n    }\n\n    function updateTime(uint256 _time) public onlyOracle {\n        lastUpdatedTime = _time;\n        emit TimeUpdated(_time);\n    }\n\n    function getTime() public view returns (uint256) {\n        return lastUpdatedTime;\n    }\n}",
  "sourcePath": "/Users/natthankrish/Kuliah/IF4035/BlockTradeChain/contract/contracts/SupplyChain.sol",
  "compiler": {
    "name": "solc",
    "version": "0.8.0+commit.c7dfd78e.Emscripten.clang"
  },
  "schemaVersion": "3.4.16",
  "updatedAt": "2024-12-26T10:11:59.282Z",
  "networkType": "ethereum",
  "devdoc": {
    "kind": "dev",
    "methods": {},
    "version": 1
  },
  "userdoc": {
    "kind": "user",
    "methods": {},
    "version": 1
  }
}