{
  "contractName": "SupplyChain",
  "abi": [
    {
      "inputs": [],
      "stateMutability": "nonpayable",
      "type": "constructor"
    },
    {
      "anonymous": false,
      "inputs": [
        {
          "indexed": true,
          "internalType": "bytes32",
          "name": "transactionHash",
          "type": "bytes32"
        },
        {
          "indexed": true,
          "internalType": "address",
          "name": "exporter",
          "type": "address"
        },
        {
          "indexed": true,
          "internalType": "address",
          "name": "recipient",
          "type": "address"
        }
      ],
      "name": "ItemExported",
      "type": "event"
    },
    {
      "anonymous": false,
      "inputs": [
        {
          "indexed": true,
          "internalType": "bytes32",
          "name": "transactionHash",
          "type": "bytes32"
        },
        {
          "indexed": false,
          "internalType": "string",
          "name": "newStatus",
          "type": "string"
        },
        {
          "indexed": false,
          "internalType": "uint256",
          "name": "timestamp",
          "type": "uint256"
        }
      ],
      "name": "StatusUpdated",
      "type": "event"
    },
    {
      "anonymous": false,
      "inputs": [
        {
          "indexed": false,
          "internalType": "uint256",
          "name": "timestamp",
          "type": "uint256"
        }
      ],
      "name": "TimeUpdated",
      "type": "event"
    },
    {
      "inputs": [],
      "name": "lastUpdatedTime",
      "outputs": [
        {
          "internalType": "uint256",
          "name": "",
          "type": "uint256"
        }
      ],
      "stateMutability": "view",
      "type": "function",
      "constant": true
    },
    {
      "inputs": [],
      "name": "oracle",
      "outputs": [
        {
          "internalType": "address",
          "name": "",
          "type": "address"
        }
      ],
      "stateMutability": "view",
      "type": "function",
      "constant": true
    },
    {
      "inputs": [
        {
          "internalType": "uint256",
          "name": "",
          "type": "uint256"
        }
      ],
      "name": "transactionHashes",
      "outputs": [
        {
          "internalType": "bytes32",
          "name": "",
          "type": "bytes32"
        }
      ],
      "stateMutability": "view",
      "type": "function",
      "constant": true
    },
    {
      "inputs": [
        {
          "internalType": "address",
          "name": "_oracle",
          "type": "address"
        }
      ],
      "name": "setOracle",
      "outputs": [],
      "stateMutability": "nonpayable",
      "type": "function"
    },
    {
      "inputs": [
        {
          "internalType": "address",
          "name": "user",
          "type": "address"
        }
      ],
      "name": "getInbox",
      "outputs": [
        {
          "internalType": "bytes32[]",
          "name": "",
          "type": "bytes32[]"
        }
      ],
      "stateMutability": "view",
      "type": "function",
      "constant": true
    },
    {
      "inputs": [
        {
          "internalType": "address",
          "name": "user",
          "type": "address"
        }
      ],
      "name": "getAssets",
      "outputs": [
        {
          "internalType": "bytes32[]",
          "name": "",
          "type": "bytes32[]"
        }
      ],
      "stateMutability": "view",
      "type": "function",
      "constant": true
    },
    {
      "inputs": [
        {
          "internalType": "string",
          "name": "product",
          "type": "string"
        },
        {
          "internalType": "uint256",
          "name": "qty",
          "type": "uint256"
        },
        {
          "internalType": "uint256",
          "name": "value",
          "type": "uint256"
        },
        {
          "internalType": "address",
          "name": "recipient",
          "type": "address"
        }
      ],
      "name": "exportItem",
      "outputs": [
        {
          "internalType": "bytes32",
          "name": "",
          "type": "bytes32"
        }
      ],
      "stateMutability": "nonpayable",
      "type": "function"
    },
    {
      "inputs": [
        {
          "internalType": "bytes32",
          "name": "transactionHash",
          "type": "bytes32"
        }
      ],
      "name": "confirmItem",
      "outputs": [],
      "stateMutability": "nonpayable",
      "type": "function"
    },
    {
      "inputs": [
        {
          "internalType": "bytes32",
          "name": "transactionHash",
          "type": "bytes32"
        }
      ],
      "name": "getItemDetails",
      "outputs": [
        {
          "components": [
            {
              "internalType": "string",
              "name": "product",
              "type": "string"
            },
            {
              "internalType": "uint256",
              "name": "qty",
              "type": "uint256"
            },
            {
              "internalType": "uint256",
              "name": "value",
              "type": "uint256"
            },
            {
              "internalType": "address",
              "name": "exporter",
              "type": "address"
            },
            {
              "internalType": "address",
              "name": "recipient",
              "type": "address"
            },
            {
              "internalType": "string",
              "name": "status",
              "type": "string"
            },
            {
              "internalType": "uint256[]",
              "name": "statusTimestamps",
              "type": "uint256[]"
            }
          ],
          "internalType": "struct SupplyChain.Item",
          "name": "",
          "type": "tuple"
        }
      ],
      "stateMutability": "view",
      "type": "function",
      "constant": true
    },
    {
      "inputs": [],
      "name": "updateTime",
      "outputs": [],
      "stateMutability": "nonpayable",
      "type": "function"
    },
    {
      "inputs": [],
      "name": "getTime",
      "outputs": [
        {
          "internalType": "uint256",
          "name": "",
          "type": "uint256"
        }
      ],
      "stateMutability": "view",
      "type": "function",
      "constant": true
    }
  ],
  "bytecode": "0x608060405234801561001057600080fd5b5033600360006101000a81548173ffffffffffffffffffffffffffffffffffffffff021916908373ffffffffffffffffffffffffffffffffffffffff1602179055504260048190555061224f806100686000396000f3fe608060405234801561001057600080fd5b50600436106100a95760003560e01c80637dc0d1d0116100715780637dc0d1d014610178578063bf85689514610196578063c3b77da8146101b4578063d1e3d120146101e4578063dc55509014610214578063fc9ed2501461021e576100a9565b806302201681146100ae578063213dafcd146100de578063557ed1ba1461010e578063742978da1461012c5780637adbf9731461015c575b600080fd5b6100c860048036038101906100c39190611498565b61023a565b6040516100d59190611cb1565b60405180910390f35b6100f860048036038101906100f39190611565565b610341565b6040516101059190611cd3565b60405180910390f35b610116610365565b6040516101239190611e7e565b60405180910390f35b61014660048036038101906101419190611498565b61036f565b6040516101539190611cb1565b60405180910390f35b61017660048036038101906101719190611498565b610476565b005b61018061054a565b60405161018d9190611c96565b60405180910390f35b61019e610570565b6040516101ab9190611e7e565b60405180910390f35b6101ce60048036038101906101c991906114ea565b610576565b6040516101db9190611cd3565b60405180910390f35b6101fe60048036038101906101f991906114c1565b61089b565b60405161020b9190611e5c565b60405180910390f35b61021c610c29565b005b610238600480360381019061023391906114c1565b610cf9565b005b6060818073ffffffffffffffffffffffffffffffffffffffff163373ffffffffffffffffffffffffffffffffffffffff16146102ab576040517f08c379a00000000000000000000000000000000000000000000000000000000081526004016102a290611e3c565b60405180910390fd5b600160008473ffffffffffffffffffffffffffffffffffffffff1673ffffffffffffffffffffffffffffffffffffffff16815260200190815260200160002080548060200260200160405190810160405280929190818152602001828054801561033457602002820191906000526020600020905b815481526020019060010190808311610320575b5050505050915050919050565b6005818154811061035157600080fd5b906000526020600020016000915090505481565b6000600454905090565b6060818073ffffffffffffffffffffffffffffffffffffffff163373ffffffffffffffffffffffffffffffffffffffff16146103e0576040517f08c379a00000000000000000000000000000000000000000000000000000000081526004016103d790611e3c565b60405180910390fd5b600260008473ffffffffffffffffffffffffffffffffffffffff1673ffffffffffffffffffffffffffffffffffffffff16815260200190815260200160002080548060200260200160405190810160405280929190818152602001828054801561046957602002820191906000526020600020905b815481526020019060010190808311610455575b5050505050915050919050565b600360009054906101000a900473ffffffffffffffffffffffffffffffffffffffff1673ffffffffffffffffffffffffffffffffffffffff163373ffffffffffffffffffffffffffffffffffffffff1614610506576040517f08c379a00000000000000000000000000000000000000000000000000000000081526004016104fd90611e3c565b60405180910390fd5b80600360006101000a81548173ffffffffffffffffffffffffffffffffffffffff021916908373ffffffffffffffffffffffffffffffffffffffff16021790555050565b600360009054906101000a900473ffffffffffffffffffffffffffffffffffffffff1681565b60045481565b60008073ffffffffffffffffffffffffffffffffffffffff168273ffffffffffffffffffffffffffffffffffffffff1614156105e7576040517f08c379a00000000000000000000000000000000000000000000000000000000081526004016105de90611d6e565b60405180910390fd5b600033834288888860405160200161060496959493929190611c13565b604051602081830303815290604052805190602001209050600073ffffffffffffffffffffffffffffffffffffffff1660008083815260200190815260200160002060030160009054906101000a900473ffffffffffffffffffffffffffffffffffffffff1673ffffffffffffffffffffffffffffffffffffffff16146106c0576040517f08c379a00000000000000000000000000000000000000000000000000000000081526004016106b790611ddc565b60405180910390fd5b60008060008381526020019081526020016000209050868160000190805190602001906106ee9291906112e5565b50858160010181905550848160020181905550338160030160006101000a81548173ffffffffffffffffffffffffffffffffffffffff021916908373ffffffffffffffffffffffffffffffffffffffff160217905550838160040160006101000a81548173ffffffffffffffffffffffffffffffffffffffff021916908373ffffffffffffffffffffffffffffffffffffffff1602179055506040518060400160405280600881526020017f4558504f525445440000000000000000000000000000000000000000000000008152508160050190805190602001906107d49291906112e5565b508060060142908060018154018082558091505060019003906000526020600020016000909190919091505561080a8483610f24565b60058290806001815401808255809150506001900390600052602060002001600090919091909150558373ffffffffffffffffffffffffffffffffffffffff163373ffffffffffffffffffffffffffffffffffffffff16837f8cabda4ff5d88802c4200cd965df85fe466ae1fc1e011594df1b44d023c2357f60405160405180910390a48192505050949350505050565b6108a361136b565b60008060008481526020019081526020016000206040518060e00160405290816000820180546108d290612080565b80601f01602080910402602001604051908101604052809291908181526020018280546108fe90612080565b801561094b5780601f106109205761010080835404028352916020019161094b565b820191906000526020600020905b81548152906001019060200180831161092e57829003601f168201915b5050505050815260200160018201548152602001600282015481526020016003820160009054906101000a900473ffffffffffffffffffffffffffffffffffffffff1673ffffffffffffffffffffffffffffffffffffffff1673ffffffffffffffffffffffffffffffffffffffff1681526020016004820160009054906101000a900473ffffffffffffffffffffffffffffffffffffffff1673ffffffffffffffffffffffffffffffffffffffff1673ffffffffffffffffffffffffffffffffffffffff168152602001600582018054610a2490612080565b80601f0160208091040260200160405190810160405280929190818152602001828054610a5090612080565b8015610a9d5780601f10610a7257610100808354040283529160200191610a9d565b820191906000526020600020905b815481529060010190602001808311610a8057829003601f168201915b5050505050815260200160068201805480602002602001604051908101604052809291908181526020018280548015610af557602002820191906000526020600020905b815481526020019060010190808311610ae1575b5050505050815250509050600073ffffffffffffffffffffffffffffffffffffffff16816060015173ffffffffffffffffffffffffffffffffffffffff161415610b74576040517f08c379a0000000000000000000000000000000000000000000000000000000008152600401610b6b90611d8e565b60405180910390fd5b806060015173ffffffffffffffffffffffffffffffffffffffff163373ffffffffffffffffffffffffffffffffffffffff161480610be15750806080015173ffffffffffffffffffffffffffffffffffffffff163373ffffffffffffffffffffffffffffffffffffffff16145b610c20576040517f08c379a0000000000000000000000000000000000000000000000000000000008152600401610c1790611e1c565b60405180910390fd5b80915050919050565b600360009054906101000a900473ffffffffffffffffffffffffffffffffffffffff1673ffffffffffffffffffffffffffffffffffffffff163373ffffffffffffffffffffffffffffffffffffffff1614610cb9576040517f08c379a0000000000000000000000000000000000000000000000000000000008152600401610cb090611e3c565b60405180910390fd5b426004819055507f89c93b2d508150920890ffe8618ab7811923d95fa8770ecb495ca54cb15c716942604051610cef9190611e7e565b60405180910390a1565b600080600083815260200190815260200160002090503373ffffffffffffffffffffffffffffffffffffffff168160040160009054906101000a900473ffffffffffffffffffffffffffffffffffffffff1673ffffffffffffffffffffffffffffffffffffffff1614610da1576040517f08c379a0000000000000000000000000000000000000000000000000000000008152600401610d9890611d2e565b60405180910390fd5b6040518060400160405280600881526020017f4558504f525445440000000000000000000000000000000000000000000000008152508051906020012081600501604051610def9190611c7f565b604051809103902014610e37576040517f08c379a0000000000000000000000000000000000000000000000000000000008152600401610e2e90611dfc565b60405180910390fd5b6040518060400160405280600881526020017f494d504f52544544000000000000000000000000000000000000000000000000815250816005019080519060200190610e849291906112e5565b5080600601429080600181540180825580915050600190039060005260206000200160009091909190915055610ede8160040160009054906101000a900473ffffffffffffffffffffffffffffffffffffffff1683610ffc565b610ee8338361120d565b817f6f2d58d35fe763ab9b31dd965e80a2ba8746ed797ec9e928ac99c40f0e9e860042604051610f189190611dae565b60405180910390a25050565b8173ffffffffffffffffffffffffffffffffffffffff163373ffffffffffffffffffffffffffffffffffffffff1614610f92576040517f08c379a0000000000000000000000000000000000000000000000000000000008152600401610f8990611cee565b60405180910390fd5b600160008373ffffffffffffffffffffffffffffffffffffffff1673ffffffffffffffffffffffffffffffffffffffff1681526020019081526020016000208190806001815401808255809150506001900390600052602060002001600090919091909150555050565b8173ffffffffffffffffffffffffffffffffffffffff163373ffffffffffffffffffffffffffffffffffffffff161461106a576040517f08c379a000000000000000000000000000000000000000000000000000000000815260040161106190611d0e565b60405180910390fd5b6000600160008473ffffffffffffffffffffffffffffffffffffffff1673ffffffffffffffffffffffffffffffffffffffff168152602001908152602001600020905060005b818054905081101561120757828282815481106110f6577f4e487b7100000000000000000000000000000000000000000000000000000000600052603260045260246000fd5b906000526020600020015414156111f45781600183805490506111199190611fc4565b81548110611150577f4e487b7100000000000000000000000000000000000000000000000000000000600052603260045260246000fd5b9060005260206000200154828281548110611194577f4e487b7100000000000000000000000000000000000000000000000000000000600052603260045260246000fd5b9060005260206000200181905550818054806111d9577f4e487b7100000000000000000000000000000000000000000000000000000000600052603160045260246000fd5b60019003818190600052602060002001600090559055611207565b80806111ff906120b2565b9150506110b0565b50505050565b8173ffffffffffffffffffffffffffffffffffffffff163373ffffffffffffffffffffffffffffffffffffffff161461127b576040517f08c379a000000000000000000000000000000000000000000000000000000000815260040161127290611d4e565b60405180910390fd5b600260008373ffffffffffffffffffffffffffffffffffffffff1673ffffffffffffffffffffffffffffffffffffffff1681526020019081526020016000208190806001815401808255809150506001900390600052602060002001600090919091909150555050565b8280546112f190612080565b90600052602060002090601f016020900481019282611313576000855561135a565b82601f1061132c57805160ff191683800117855561135a565b8280016001018555821561135a579182015b8281111561135957825182559160200191906001019061133e565b5b50905061136791906113d4565b5090565b6040518060e00160405280606081526020016000815260200160008152602001600073ffffffffffffffffffffffffffffffffffffffff168152602001600073ffffffffffffffffffffffffffffffffffffffff16815260200160608152602001606081525090565b5b808211156113ed5760008160009055506001016113d5565b5090565b60006114046113ff84611eca565b611e99565b90508281526020810184848401111561141c57600080fd5b61142784828561203e565b509392505050565b60008135905061143e816121d4565b92915050565b600081359050611453816121eb565b92915050565b600082601f83011261146a57600080fd5b813561147a8482602086016113f1565b91505092915050565b60008135905061149281612202565b92915050565b6000602082840312156114aa57600080fd5b60006114b88482850161142f565b91505092915050565b6000602082840312156114d357600080fd5b60006114e184828501611444565b91505092915050565b6000806000806080858703121561150057600080fd5b600085013567ffffffffffffffff81111561151a57600080fd5b61152687828801611459565b945050602061153787828801611483565b935050604061154887828801611483565b92505060606115598782880161142f565b91505092959194509250565b60006020828403121561157757600080fd5b600061158584828501611483565b91505092915050565b600061159a83836116af565b60208301905092915050565b60006115b28383611bde565b60208301905092915050565b6115c781611ff8565b82525050565b6115d681611ff8565b82525050565b6115ed6115e882611ff8565b6120fb565b82525050565b60006115fe82611f2f565b6116088185611f6a565b935061161383611efa565b8060005b8381101561164457815161162b888261158e565b975061163683611f50565b925050600181019050611617565b5085935050505092915050565b600061165c82611f3a565b6116668185611f7b565b935061167183611f0a565b8060005b838110156116a257815161168988826115a6565b975061169483611f5d565b925050600181019050611675565b5085935050505092915050565b6116b88161200a565b82525050565b6116c78161200a565b82525050565b600081546116da81612080565b6116e48186611f8c565b945060018216600081146116ff576001811461171057611743565b60ff19831686528186019350611743565b61171985611f1a565b60005b8381101561173b5781548189015260018201915060208101905061171c565b838801955050505b50505092915050565b600061175782611f45565b6117618185611f97565b935061177181856020860161204d565b61177a816121b6565b840191505092915050565b600061179082611f45565b61179a8185611fb9565b93506117aa81856020860161204d565b80840191505092915050565b60006117c3602383611fa8565b91507f4e6f7420617574686f72697a656420746f2061646420746f207468697320696e60008301527f626f7800000000000000000000000000000000000000000000000000000000006020830152604082019050919050565b6000611829602883611fa8565b91507f4e6f7420617574686f72697a656420746f2072656d6f76652066726f6d20746860008301527f697320696e626f780000000000000000000000000000000000000000000000006020830152604082019050919050565b600061188f602883611fa8565b91507f4f6e6c792074686520726563697069656e742063616e20636f6e6669726d207460008301527f686973206974656d0000000000000000000000000000000000000000000000006020830152604082019050919050565b60006118f5602883611fa8565b91507f4e6f7420617574686f72697a656420746f2061646420746f207468697320617360008301527f736574206c6973740000000000000000000000000000000000000000000000006020830152604082019050919050565b600061195b602083611fa8565b91507f526563697069656e7420616464726573732063616e6e6f74206265207a65726f6000830152602082019050919050565b600061199b601383611fa8565b91507f4974656d20646f6573206e6f74206578697374000000000000000000000000006000830152602082019050919050565b60006119db600883611fa8565b91507f494d504f525445440000000000000000000000000000000000000000000000006000830152602082019050919050565b6000611a1b601383611fa8565b91507f4974656d20616c726561647920657869737473000000000000000000000000006000830152602082019050919050565b6000611a5b601e83611fa8565b91507f4974656d206973206e6f7420696e204558504f525445442073746174757300006000830152602082019050919050565b6000611a9b602a83611fa8565b91507f4e6f7420617574686f72697a656420746f20766965772074686973206974656d60008301527f27732064657461696c73000000000000000000000000000000000000000000006020830152604082019050919050565b6000611b01600e83611fa8565b91507f4e6f7420617574686f72697a65640000000000000000000000000000000000006000830152602082019050919050565b600060e0830160008301518482036000860152611b51828261174c565b9150506020830151611b666020860182611bde565b506040830151611b796040860182611bde565b506060830151611b8c60608601826115be565b506080830151611b9f60808601826115be565b5060a083015184820360a0860152611bb7828261174c565b91505060c083015184820360c0860152611bd18282611651565b9150508091505092915050565b611be781612034565b82525050565b611bf681612034565b82525050565b611c0d611c0882612034565b61211f565b82525050565b6000611c1f82896115dc565b601482019150611c2f82886115dc565b601482019150611c3f8287611bfc565b602082019150611c4f8286611785565b9150611c5b8285611bfc565b602082019150611c6b8284611bfc565b602082019150819050979650505050505050565b6000611c8b82846116cd565b915081905092915050565b6000602082019050611cab60008301846115cd565b92915050565b60006020820190508181036000830152611ccb81846115f3565b905092915050565b6000602082019050611ce860008301846116be565b92915050565b60006020820190508181036000830152611d07816117b6565b9050919050565b60006020820190508181036000830152611d278161181c565b9050919050565b60006020820190508181036000830152611d4781611882565b9050919050565b60006020820190508181036000830152611d67816118e8565b9050919050565b60006020820190508181036000830152611d878161194e565b9050919050565b60006020820190508181036000830152611da78161198e565b9050919050565b60006040820190508181036000830152611dc7816119ce565b9050611dd66020830184611bed565b92915050565b60006020820190508181036000830152611df581611a0e565b9050919050565b60006020820190508181036000830152611e1581611a4e565b9050919050565b60006020820190508181036000830152611e3581611a8e565b9050919050565b60006020820190508181036000830152611e5581611af4565b9050919050565b60006020820190508181036000830152611e768184611b34565b905092915050565b6000602082019050611e936000830184611bed565b92915050565b6000604051905081810181811067ffffffffffffffff82111715611ec057611ebf612187565b5b8060405250919050565b600067ffffffffffffffff821115611ee557611ee4612187565b5b601f19601f8301169050602081019050919050565b6000819050602082019050919050565b6000819050602082019050919050565b60008190508160005260206000209050919050565b600081519050919050565b600081519050919050565b600081519050919050565b6000602082019050919050565b6000602082019050919050565b600082825260208201905092915050565b600082825260208201905092915050565b600081905092915050565b600082825260208201905092915050565b600082825260208201905092915050565b600081905092915050565b6000611fcf82612034565b9150611fda83612034565b925082821015611fed57611fec612129565b5b828203905092915050565b600061200382612014565b9050919050565b6000819050919050565b600073ffffffffffffffffffffffffffffffffffffffff82169050919050565b6000819050919050565b82818337600083830152505050565b60005b8381101561206b578082015181840152602081019050612050565b8381111561207a576000848401525b50505050565b6000600282049050600182168061209857607f821691505b602082108114156120ac576120ab612158565b5b50919050565b60006120bd82612034565b91507fffffffffffffffffffffffffffffffffffffffffffffffffffffffffffffffff8214156120f0576120ef612129565b5b600182019050919050565b60006121068261210d565b9050919050565b6000612118826121c7565b9050919050565b6000819050919050565b7f4e487b7100000000000000000000000000000000000000000000000000000000600052601160045260246000fd5b7f4e487b7100000000000000000000000000000000000000000000000000000000600052602260045260246000fd5b7f4e487b7100000000000000000000000000000000000000000000000000000000600052604160045260246000fd5b6000601f19601f8301169050919050565b60008160601b9050919050565b6121dd81611ff8565b81146121e857600080fd5b50565b6121f48161200a565b81146121ff57600080fd5b50565b61220b81612034565b811461221657600080fd5b5056fea2646970667358221220d7e6e9975889d33e3a9702b4404b003568e54d77be0ea6a896c853705e70dcbb64736f6c63430008000033",
  "immutableReferences": {},
  "source": "// SPDX-License-Identifier: MIT\npragma solidity ^0.8.0;\n\ncontract SupplyChain {\n    struct Item {\n        string product;\n        uint256 qty;\n        uint256 value;\n        address exporter;\n        address recipient; // Original Ethereum wallet\n        string status; // EXPORTED, IMPORTED, CANCELLED\n        uint256[] statusTimestamps;\n    }\n    mapping(bytes32 => Item) private items; // transactionHash => Item\n    mapping(address => bytes32[]) private userInbox;\n    mapping(address => bytes32[]) private userAssets;\n    address public oracle;\n    uint256 public lastUpdatedTime;\n    bytes32[] public transactionHashes;\n\n    event ItemExported(\n        bytes32 indexed transactionHash,\n        address indexed exporter,\n        address indexed recipient\n    );\n    event StatusUpdated(\n        bytes32 indexed transactionHash,\n        string newStatus,\n        uint256 timestamp\n    );\n    event TimeUpdated(uint256 timestamp);\n\n    constructor() {\n        oracle = msg.sender;\n        lastUpdatedTime = block.timestamp;\n    }\n\n    modifier onlyOracle() {\n        require(msg.sender == oracle, \"Not authorized\");\n        _;\n    }\n\n    function setOracle(address _oracle) public onlyOracle {\n        oracle = _oracle;\n    }\n\n    modifier onlyOwner(address user) {\n        require(msg.sender == user, \"Not authorized\");\n        _;\n    }\n\n    function getInbox(\n        address user\n    ) public view onlyOwner(user) returns (bytes32[] memory) {\n        return userInbox[user];\n    }\n\n    function getAssets(\n        address user\n    ) public view onlyOwner(user) returns (bytes32[] memory) {\n        return userAssets[user];\n    }\n\n    function exportItem(\n        string memory product,\n        uint256 qty,\n        uint256 value,\n        address recipient\n    ) public returns (bytes32) {\n        require(recipient != address(0), \"Recipient address cannot be zero\");\n\n        bytes32 transactionHash = keccak256(\n            abi.encodePacked(\n                msg.sender,\n                recipient,\n                block.timestamp,\n                product,\n                qty,\n                value\n            )\n        );\n\n        require(\n            items[transactionHash].exporter == address(0),\n            \"Item already exists\"\n        );\n\n        Item storage newItem = items[transactionHash];\n        newItem.product = product;\n        newItem.qty = qty;\n        newItem.value = value;\n        newItem.exporter = msg.sender;\n        newItem.recipient = recipient;\n        newItem.status = \"EXPORTED\";\n        newItem.statusTimestamps.push(block.timestamp);\n\n        addToInbox(recipient, transactionHash);\n\n        transactionHashes.push(transactionHash);\n\n        emit ItemExported(transactionHash, msg.sender, recipient);\n        return transactionHash;\n    }\n\n    function confirmItem(bytes32 transactionHash) public {\n        Item storage item = items[transactionHash];\n        require(\n            item.recipient == msg.sender,\n            \"Only the recipient can confirm this item\"\n        );\n        require(\n            keccak256(bytes(item.status)) == keccak256(bytes(\"EXPORTED\")),\n            \"Item is not in EXPORTED status\"\n        );\n\n        item.status = \"IMPORTED\";\n        item.statusTimestamps.push(block.timestamp);\n\n        removeFromInbox(item.recipient, transactionHash);\n        addToAsset(msg.sender, transactionHash);\n\n        emit StatusUpdated(transactionHash, \"IMPORTED\", block.timestamp);\n    }\n\n    function getItemDetails(\n        bytes32 transactionHash\n    ) public view returns (Item memory) {\n        Item memory item = items[transactionHash];\n        require(item.exporter != address(0), \"Item does not exist\");\n        require(\n            msg.sender == item.exporter || msg.sender == item.recipient,\n            \"Not authorized to view this item's details\"\n        );\n        return item;\n    }\n\n    function addToInbox(address user, bytes32 transactionHash) internal {\n        require(msg.sender == user, \"Not authorized to add to this inbox\");\n        userInbox[user].push(transactionHash);\n    }\n\n    function removeFromInbox(address user, bytes32 transactionHash) internal {\n        require(msg.sender == user, \"Not authorized to remove from this inbox\");\n        bytes32[] storage inboxList = userInbox[user];\n        for (uint256 i = 0; i < inboxList.length; i++) {\n            if (inboxList[i] == transactionHash) {\n                inboxList[i] = inboxList[inboxList.length - 1];\n                inboxList.pop();\n                break;\n            }\n        }\n    }\n\n    function addToAsset(address user, bytes32 transactionHash) internal {\n        require(msg.sender == user, \"Not authorized to add to this asset list\");\n        userAssets[user].push(transactionHash);\n    }\n\n    function updateTime() public onlyOracle {\n        lastUpdatedTime = block.timestamp;\n        emit TimeUpdated(block.timestamp);\n    }\n\n    function getTime() public view returns (uint256) {\n        return lastUpdatedTime;\n    }\n}\n",
  "sourcePath": "/Users/nicholasliem/Desktop/Repository/Personal/Blockchain/contract/contracts/SupplyChain.sol",
  "compiler": {
    "name": "solc",
    "version": "0.8.0+commit.c7dfd78e.Emscripten.clang"
  },
  "schemaVersion": "3.4.16",
  "updatedAt": "2024-12-28T12:52:08.285Z",
  "networkType": "ethereum",
  "devdoc": {
    "kind": "dev",
    "methods": {},
    "version": 1
  },
  "userdoc": {
    "kind": "user",
    "methods": {},
    "version": 1
  }
}