{
  "contractName": "SupplyChain",
  "abi": [
    {
      "inputs": [],
      "stateMutability": "nonpayable",
      "type": "constructor"
    },
    {
      "anonymous": false,
      "inputs": [
        {
          "indexed": true,
          "internalType": "bytes32",
          "name": "transactionHash",
          "type": "bytes32"
        },
        {
          "indexed": true,
          "internalType": "address",
          "name": "exporter",
          "type": "address"
        },
        {
          "indexed": true,
          "internalType": "address",
          "name": "recipient",
          "type": "address"
        }
      ],
      "name": "ItemExported",
      "type": "event"
    },
    {
      "anonymous": false,
      "inputs": [
        {
          "indexed": true,
          "internalType": "bytes32",
          "name": "transactionHash",
          "type": "bytes32"
        },
        {
          "indexed": false,
          "internalType": "string",
          "name": "newStatus",
          "type": "string"
        },
        {
          "indexed": false,
          "internalType": "uint256",
          "name": "timestamp",
          "type": "uint256"
        }
      ],
      "name": "StatusUpdated",
      "type": "event"
    },
    {
      "anonymous": false,
      "inputs": [
        {
          "indexed": false,
          "internalType": "uint256",
          "name": "timestamp",
          "type": "uint256"
        }
      ],
      "name": "TimeUpdated",
      "type": "event"
    },
    {
      "inputs": [],
      "name": "lastUpdatedTime",
      "outputs": [
        {
          "internalType": "uint256",
          "name": "",
          "type": "uint256"
        }
      ],
      "stateMutability": "view",
      "type": "function",
      "constant": true
    },
    {
      "inputs": [],
      "name": "oracle",
      "outputs": [
        {
          "internalType": "address",
          "name": "",
          "type": "address"
        }
      ],
      "stateMutability": "view",
      "type": "function",
      "constant": true
    },
    {
      "inputs": [
        {
          "internalType": "uint256",
          "name": "",
          "type": "uint256"
        }
      ],
      "name": "transactionHashes",
      "outputs": [
        {
          "internalType": "bytes32",
          "name": "",
          "type": "bytes32"
        }
      ],
      "stateMutability": "view",
      "type": "function",
      "constant": true
    },
    {
      "inputs": [
        {
          "internalType": "address",
          "name": "_oracle",
          "type": "address"
        }
      ],
      "name": "setOracle",
      "outputs": [],
      "stateMutability": "nonpayable",
      "type": "function"
    },
    {
      "inputs": [
        {
          "internalType": "address",
          "name": "user",
          "type": "address"
        }
      ],
      "name": "getInbox",
      "outputs": [
        {
          "internalType": "bytes32[]",
          "name": "",
          "type": "bytes32[]"
        }
      ],
      "stateMutability": "view",
      "type": "function",
      "constant": true
    },
    {
      "inputs": [
        {
          "internalType": "address",
          "name": "user",
          "type": "address"
        }
      ],
      "name": "getAssets",
      "outputs": [
        {
          "internalType": "bytes32[]",
          "name": "",
          "type": "bytes32[]"
        }
      ],
      "stateMutability": "view",
      "type": "function",
      "constant": true
    },
    {
      "inputs": [
        {
          "internalType": "string",
          "name": "product",
          "type": "string"
        },
        {
          "internalType": "uint256",
          "name": "qty",
          "type": "uint256"
        },
        {
          "internalType": "uint256",
          "name": "value",
          "type": "uint256"
        },
        {
          "internalType": "address",
          "name": "recipient",
          "type": "address"
        }
      ],
      "name": "exportItem",
      "outputs": [
        {
          "internalType": "bytes32",
          "name": "",
          "type": "bytes32"
        }
      ],
      "stateMutability": "nonpayable",
      "type": "function"
    },
    {
      "inputs": [
        {
          "internalType": "bytes32",
          "name": "transactionHash",
          "type": "bytes32"
        }
      ],
      "name": "confirmItem",
      "outputs": [],
      "stateMutability": "nonpayable",
      "type": "function"
    },
    {
      "inputs": [
        {
          "internalType": "bytes32",
          "name": "transactionHash",
          "type": "bytes32"
        }
      ],
      "name": "denyItem",
      "outputs": [],
      "stateMutability": "nonpayable",
      "type": "function"
    },
    {
      "inputs": [
        {
          "internalType": "bytes32",
          "name": "transactionHash",
          "type": "bytes32"
        }
      ],
      "name": "getItemDetails",
      "outputs": [
        {
          "components": [
            {
              "internalType": "string",
              "name": "product",
              "type": "string"
            },
            {
              "internalType": "uint256",
              "name": "qty",
              "type": "uint256"
            },
            {
              "internalType": "uint256",
              "name": "value",
              "type": "uint256"
            },
            {
              "internalType": "address",
              "name": "exporter",
              "type": "address"
            },
            {
              "internalType": "address",
              "name": "recipient",
              "type": "address"
            },
            {
              "internalType": "string",
              "name": "status",
              "type": "string"
            },
            {
              "internalType": "uint256[]",
              "name": "statusTimestamps",
              "type": "uint256[]"
            }
          ],
          "internalType": "struct SupplyChain.Item",
          "name": "",
          "type": "tuple"
        }
      ],
      "stateMutability": "view",
      "type": "function",
      "constant": true
    },
    {
      "inputs": [],
      "name": "updateTime",
      "outputs": [],
      "stateMutability": "nonpayable",
      "type": "function"
    },
    {
      "inputs": [],
      "name": "getTime",
      "outputs": [
        {
          "internalType": "uint256",
          "name": "",
          "type": "uint256"
        }
      ],
      "stateMutability": "view",
      "type": "function",
      "constant": true
    }
  ],
  "bytecode": "0x608060405234801561001057600080fd5b5033600360006101000a81548173ffffffffffffffffffffffffffffffffffffffff021916908373ffffffffffffffffffffffffffffffffffffffff1602179055504260048190555061258b806100686000396000f3fe608060405234801561001057600080fd5b50600436106100b45760003560e01c8063a49e5f2c11610071578063a49e5f2c146101a1578063bf856895146101bd578063c3b77da8146101db578063d1e3d1201461020b578063dc5550901461023b578063fc9ed25014610245576100b4565b806302201681146100b9578063213dafcd146100e9578063557ed1ba14610119578063742978da146101375780637adbf973146101675780637dc0d1d014610183575b600080fd5b6100d360048036038101906100ce91906116e0565b610261565b6040516100e09190611f9f565b60405180910390f35b61010360048036038101906100fe91906117ad565b610368565b6040516101109190611fc1565b60405180910390f35b61012161038c565b60405161012e91906121ba565b60405180910390f35b610151600480360381019061014c91906116e0565b610396565b60405161015e9190611f9f565b60405180910390f35b610181600480360381019061017c91906116e0565b61049d565b005b61018b610571565b6040516101989190611f84565b60405180910390f35b6101bb60048036038101906101b69190611709565b610597565b005b6101c56107b8565b6040516101d291906121ba565b60405180910390f35b6101f560048036038101906101f09190611732565b6107be565b6040516102029190611fc1565b60405180910390f35b61022560048036038101906102209190611709565b610ae3565b6040516102329190612198565b60405180910390f35b610243610e71565b005b61025f600480360381019061025a9190611709565b610f41565b005b6060818073ffffffffffffffffffffffffffffffffffffffff163373ffffffffffffffffffffffffffffffffffffffff16146102d2576040517f08c379a00000000000000000000000000000000000000000000000000000000081526004016102c990612178565b60405180910390fd5b600160008473ffffffffffffffffffffffffffffffffffffffff1673ffffffffffffffffffffffffffffffffffffffff16815260200190815260200160002080548060200260200160405190810160405280929190818152602001828054801561035b57602002820191906000526020600020905b815481526020019060010190808311610347575b5050505050915050919050565b6005818154811061037857600080fd5b906000526020600020016000915090505481565b6000600454905090565b6060818073ffffffffffffffffffffffffffffffffffffffff163373ffffffffffffffffffffffffffffffffffffffff1614610407576040517f08c379a00000000000000000000000000000000000000000000000000000000081526004016103fe90612178565b60405180910390fd5b600260008473ffffffffffffffffffffffffffffffffffffffff1673ffffffffffffffffffffffffffffffffffffffff16815260200190815260200160002080548060200260200160405190810160405280929190818152602001828054801561049057602002820191906000526020600020905b81548152602001906001019080831161047c575b5050505050915050919050565b600360009054906101000a900473ffffffffffffffffffffffffffffffffffffffff1673ffffffffffffffffffffffffffffffffffffffff163373ffffffffffffffffffffffffffffffffffffffff161461052d576040517f08c379a000000000000000000000000000000000000000000000000000000000815260040161052490612178565b60405180910390fd5b80600360006101000a81548173ffffffffffffffffffffffffffffffffffffffff021916908373ffffffffffffffffffffffffffffffffffffffff16021790555050565b600360009054906101000a900473ffffffffffffffffffffffffffffffffffffffff1681565b600080600083815260200190815260200160002090503373ffffffffffffffffffffffffffffffffffffffff168160040160009054906101000a900473ffffffffffffffffffffffffffffffffffffffff1673ffffffffffffffffffffffffffffffffffffffff161461063f576040517f08c379a00000000000000000000000000000000000000000000000000000000081526004016106369061202a565b60405180910390fd5b6040518060400160405280600881526020017f4558504f52544544000000000000000000000000000000000000000000000000815250805190602001208160050160405161068d9190611f6d565b6040518091039020146106d5576040517f08c379a00000000000000000000000000000000000000000000000000000000081526004016106cc90612138565b60405180910390fd5b6040518060400160405280600981526020017f43414e43454c4c4544000000000000000000000000000000000000000000000081525081600501908051906020019061072292919061152d565b508060060142908060018154018082558091505060019003906000526020600020016000909190919091505561077c8160040160009054906101000a900473ffffffffffffffffffffffffffffffffffffffff168361116c565b817f6f2d58d35fe763ab9b31dd965e80a2ba8746ed797ec9e928ac99c40f0e9e8600426040516107ac9190611ffc565b60405180910390a25050565b60045481565b60008073ffffffffffffffffffffffffffffffffffffffff168273ffffffffffffffffffffffffffffffffffffffff16141561082f576040517f08c379a0000000000000000000000000000000000000000000000000000000008152600401610826906120aa565b60405180910390fd5b600033834288888860405160200161084c96959493929190611f01565b604051602081830303815290604052805190602001209050600073ffffffffffffffffffffffffffffffffffffffff1660008083815260200190815260200160002060030160009054906101000a900473ffffffffffffffffffffffffffffffffffffffff1673ffffffffffffffffffffffffffffffffffffffff1614610908576040517f08c379a00000000000000000000000000000000000000000000000000000000081526004016108ff90612118565b60405180910390fd5b600080600083815260200190815260200160002090508681600001908051906020019061093692919061152d565b50858160010181905550848160020181905550338160030160006101000a81548173ffffffffffffffffffffffffffffffffffffffff021916908373ffffffffffffffffffffffffffffffffffffffff160217905550838160040160006101000a81548173ffffffffffffffffffffffffffffffffffffffff021916908373ffffffffffffffffffffffffffffffffffffffff1602179055506040518060400160405280600881526020017f4558504f52544544000000000000000000000000000000000000000000000000815250816005019080519060200190610a1c92919061152d565b5080600601429080600181540180825580915050600190039060005260206000200160009091909190915055610a52848361137d565b60058290806001815401808255809150506001900390600052602060002001600090919091909150558373ffffffffffffffffffffffffffffffffffffffff163373ffffffffffffffffffffffffffffffffffffffff16837f8cabda4ff5d88802c4200cd965df85fe466ae1fc1e011594df1b44d023c2357f60405160405180910390a48192505050949350505050565b610aeb6115b3565b60008060008481526020019081526020016000206040518060e0016040529081600082018054610b1a906123bc565b80601f0160208091040260200160405190810160405280929190818152602001828054610b46906123bc565b8015610b935780601f10610b6857610100808354040283529160200191610b93565b820191906000526020600020905b815481529060010190602001808311610b7657829003601f168201915b5050505050815260200160018201548152602001600282015481526020016003820160009054906101000a900473ffffffffffffffffffffffffffffffffffffffff1673ffffffffffffffffffffffffffffffffffffffff1673ffffffffffffffffffffffffffffffffffffffff1681526020016004820160009054906101000a900473ffffffffffffffffffffffffffffffffffffffff1673ffffffffffffffffffffffffffffffffffffffff1673ffffffffffffffffffffffffffffffffffffffff168152602001600582018054610c6c906123bc565b80601f0160208091040260200160405190810160405280929190818152602001828054610c98906123bc565b8015610ce55780601f10610cba57610100808354040283529160200191610ce5565b820191906000526020600020905b815481529060010190602001808311610cc857829003601f168201915b5050505050815260200160068201805480602002602001604051908101604052809291908181526020018280548015610d3d57602002820191906000526020600020905b815481526020019060010190808311610d29575b5050505050815250509050600073ffffffffffffffffffffffffffffffffffffffff16816060015173ffffffffffffffffffffffffffffffffffffffff161415610dbc576040517f08c379a0000000000000000000000000000000000000000000000000000000008152600401610db3906120ca565b60405180910390fd5b806060015173ffffffffffffffffffffffffffffffffffffffff163373ffffffffffffffffffffffffffffffffffffffff161480610e295750806080015173ffffffffffffffffffffffffffffffffffffffff163373ffffffffffffffffffffffffffffffffffffffff16145b610e68576040517f08c379a0000000000000000000000000000000000000000000000000000000008152600401610e5f90612158565b60405180910390fd5b80915050919050565b600360009054906101000a900473ffffffffffffffffffffffffffffffffffffffff1673ffffffffffffffffffffffffffffffffffffffff163373ffffffffffffffffffffffffffffffffffffffff1614610f01576040517f08c379a0000000000000000000000000000000000000000000000000000000008152600401610ef890612178565b60405180910390fd5b426004819055507f89c93b2d508150920890ffe8618ab7811923d95fa8770ecb495ca54cb15c716942604051610f3791906121ba565b60405180910390a1565b600080600083815260200190815260200160002090503373ffffffffffffffffffffffffffffffffffffffff168160040160009054906101000a900473ffffffffffffffffffffffffffffffffffffffff1673ffffffffffffffffffffffffffffffffffffffff1614610fe9576040517f08c379a0000000000000000000000000000000000000000000000000000000008152600401610fe09061206a565b60405180910390fd5b6040518060400160405280600881526020017f4558504f5254454400000000000000000000000000000000000000000000000081525080519060200120816005016040516110379190611f6d565b60405180910390201461107f576040517f08c379a000000000000000000000000000000000000000000000000000000000815260040161107690612138565b60405180910390fd5b6040518060400160405280600881526020017f494d504f525445440000000000000000000000000000000000000000000000008152508160050190805190602001906110cc92919061152d565b50806006014290806001815401808255809150506001900390600052602060002001600090919091909150556111268160040160009054906101000a900473ffffffffffffffffffffffffffffffffffffffff168361116c565b6111303383611455565b817f6f2d58d35fe763ab9b31dd965e80a2ba8746ed797ec9e928ac99c40f0e9e86004260405161116091906120ea565b60405180910390a25050565b8173ffffffffffffffffffffffffffffffffffffffff163373ffffffffffffffffffffffffffffffffffffffff16146111da576040517f08c379a00000000000000000000000000000000000000000000000000000000081526004016111d19061204a565b60405180910390fd5b6000600160008473ffffffffffffffffffffffffffffffffffffffff1673ffffffffffffffffffffffffffffffffffffffff168152602001908152602001600020905060005b81805490508110156113775782828281548110611266577f4e487b7100000000000000000000000000000000000000000000000000000000600052603260045260246000fd5b906000526020600020015414156113645781600183805490506112899190612300565b815481106112c0577f4e487b7100000000000000000000000000000000000000000000000000000000600052603260045260246000fd5b9060005260206000200154828281548110611304577f4e487b7100000000000000000000000000000000000000000000000000000000600052603260045260246000fd5b906000526020600020018190555081805480611349577f4e487b7100000000000000000000000000000000000000000000000000000000600052603160045260246000fd5b60019003818190600052602060002001600090559055611377565b808061136f906123ee565b915050611220565b50505050565b8173ffffffffffffffffffffffffffffffffffffffff163373ffffffffffffffffffffffffffffffffffffffff16146113eb576040517f08c379a00000000000000000000000000000000000000000000000000000000081526004016113e290611fdc565b60405180910390fd5b600160008373ffffffffffffffffffffffffffffffffffffffff1673ffffffffffffffffffffffffffffffffffffffff1681526020019081526020016000208190806001815401808255809150506001900390600052602060002001600090919091909150555050565b8173ffffffffffffffffffffffffffffffffffffffff163373ffffffffffffffffffffffffffffffffffffffff16146114c3576040517f08c379a00000000000000000000000000000000000000000000000000000000081526004016114ba9061208a565b60405180910390fd5b600260008373ffffffffffffffffffffffffffffffffffffffff1673ffffffffffffffffffffffffffffffffffffffff1681526020019081526020016000208190806001815401808255809150506001900390600052602060002001600090919091909150555050565b828054611539906123bc565b90600052602060002090601f01602090048101928261155b57600085556115a2565b82601f1061157457805160ff19168380011785556115a2565b828001600101855582156115a2579182015b828111156115a1578251825591602001919060010190611586565b5b5090506115af919061161c565b5090565b6040518060e00160405280606081526020016000815260200160008152602001600073ffffffffffffffffffffffffffffffffffffffff168152602001600073ffffffffffffffffffffffffffffffffffffffff16815260200160608152602001606081525090565b5b8082111561163557600081600090555060010161161d565b5090565b600061164c61164784612206565b6121d5565b90508281526020810184848401111561166457600080fd5b61166f84828561237a565b509392505050565b60008135905061168681612510565b92915050565b60008135905061169b81612527565b92915050565b600082601f8301126116b257600080fd5b81356116c2848260208601611639565b91505092915050565b6000813590506116da8161253e565b92915050565b6000602082840312156116f257600080fd5b600061170084828501611677565b91505092915050565b60006020828403121561171b57600080fd5b60006117298482850161168c565b91505092915050565b6000806000806080858703121561174857600080fd5b600085013567ffffffffffffffff81111561176257600080fd5b61176e878288016116a1565b945050602061177f878288016116cb565b9350506040611790878288016116cb565b92505060606117a187828801611677565b91505092959194509250565b6000602082840312156117bf57600080fd5b60006117cd848285016116cb565b91505092915050565b60006117e283836118f7565b60208301905092915050565b60006117fa8383611ecc565b60208301905092915050565b61180f81612334565b82525050565b61181e81612334565b82525050565b61183561183082612334565b612437565b82525050565b60006118468261226b565b61185081856122a6565b935061185b83612236565b8060005b8381101561188c57815161187388826117d6565b975061187e8361228c565b92505060018101905061185f565b5085935050505092915050565b60006118a482612276565b6118ae81856122b7565b93506118b983612246565b8060005b838110156118ea5781516118d188826117ee565b97506118dc83612299565b9250506001810190506118bd565b5085935050505092915050565b61190081612346565b82525050565b61190f81612346565b82525050565b60008154611922816123bc565b61192c81866122c8565b9450600182166000811461194757600181146119585761198b565b60ff1983168652818601935061198b565b61196185612256565b60005b8381101561198357815481890152600182019150602081019050611964565b838801955050505b50505092915050565b600061199f82612281565b6119a981856122d3565b93506119b9818560208601612389565b6119c2816124f2565b840191505092915050565b60006119d882612281565b6119e281856122f5565b93506119f2818560208601612389565b80840191505092915050565b6000611a0b6023836122e4565b91507f4e6f7420617574686f72697a656420746f2061646420746f207468697320696e60008301527f626f7800000000000000000000000000000000000000000000000000000000006020830152604082019050919050565b6000611a716009836122e4565b91507f43414e43454c4c454400000000000000000000000000000000000000000000006000830152602082019050919050565b6000611ab16025836122e4565b91507f4f6e6c792074686520726563697069656e742063616e2064656e79207468697360008301527f206974656d0000000000000000000000000000000000000000000000000000006020830152604082019050919050565b6000611b176028836122e4565b91507f4e6f7420617574686f72697a656420746f2072656d6f76652066726f6d20746860008301527f697320696e626f780000000000000000000000000000000000000000000000006020830152604082019050919050565b6000611b7d6028836122e4565b91507f4f6e6c792074686520726563697069656e742063616e20636f6e6669726d207460008301527f686973206974656d0000000000000000000000000000000000000000000000006020830152604082019050919050565b6000611be36028836122e4565b91507f4e6f7420617574686f72697a656420746f2061646420746f207468697320617360008301527f736574206c6973740000000000000000000000000000000000000000000000006020830152604082019050919050565b6000611c496020836122e4565b91507f526563697069656e7420616464726573732063616e6e6f74206265207a65726f6000830152602082019050919050565b6000611c896013836122e4565b91507f4974656d20646f6573206e6f74206578697374000000000000000000000000006000830152602082019050919050565b6000611cc96008836122e4565b91507f494d504f525445440000000000000000000000000000000000000000000000006000830152602082019050919050565b6000611d096013836122e4565b91507f4974656d20616c726561647920657869737473000000000000000000000000006000830152602082019050919050565b6000611d49601e836122e4565b91507f4974656d206973206e6f7420696e204558504f525445442073746174757300006000830152602082019050919050565b6000611d89602a836122e4565b91507f4e6f7420617574686f72697a656420746f20766965772074686973206974656d60008301527f27732064657461696c73000000000000000000000000000000000000000000006020830152604082019050919050565b6000611def600e836122e4565b91507f4e6f7420617574686f72697a65640000000000000000000000000000000000006000830152602082019050919050565b600060e0830160008301518482036000860152611e3f8282611994565b9150506020830151611e546020860182611ecc565b506040830151611e676040860182611ecc565b506060830151611e7a6060860182611806565b506080830151611e8d6080860182611806565b5060a083015184820360a0860152611ea58282611994565b91505060c083015184820360c0860152611ebf8282611899565b9150508091505092915050565b611ed581612370565b82525050565b611ee481612370565b82525050565b611efb611ef682612370565b61245b565b82525050565b6000611f0d8289611824565b601482019150611f1d8288611824565b601482019150611f2d8287611eea565b602082019150611f3d82866119cd565b9150611f498285611eea565b602082019150611f598284611eea565b602082019150819050979650505050505050565b6000611f798284611915565b915081905092915050565b6000602082019050611f996000830184611815565b92915050565b60006020820190508181036000830152611fb9818461183b565b905092915050565b6000602082019050611fd66000830184611906565b92915050565b60006020820190508181036000830152611ff5816119fe565b9050919050565b6000604082019050818103600083015261201581611a64565b90506120246020830184611edb565b92915050565b6000602082019050818103600083015261204381611aa4565b9050919050565b6000602082019050818103600083015261206381611b0a565b9050919050565b6000602082019050818103600083015261208381611b70565b9050919050565b600060208201905081810360008301526120a381611bd6565b9050919050565b600060208201905081810360008301526120c381611c3c565b9050919050565b600060208201905081810360008301526120e381611c7c565b9050919050565b6000604082019050818103600083015261210381611cbc565b90506121126020830184611edb565b92915050565b6000602082019050818103600083015261213181611cfc565b9050919050565b6000602082019050818103600083015261215181611d3c565b9050919050565b6000602082019050818103600083015261217181611d7c565b9050919050565b6000602082019050818103600083015261219181611de2565b9050919050565b600060208201905081810360008301526121b28184611e22565b905092915050565b60006020820190506121cf6000830184611edb565b92915050565b6000604051905081810181811067ffffffffffffffff821117156121fc576121fb6124c3565b5b8060405250919050565b600067ffffffffffffffff821115612221576122206124c3565b5b601f19601f8301169050602081019050919050565b6000819050602082019050919050565b6000819050602082019050919050565b60008190508160005260206000209050919050565b600081519050919050565b600081519050919050565b600081519050919050565b6000602082019050919050565b6000602082019050919050565b600082825260208201905092915050565b600082825260208201905092915050565b600081905092915050565b600082825260208201905092915050565b600082825260208201905092915050565b600081905092915050565b600061230b82612370565b915061231683612370565b92508282101561232957612328612465565b5b828203905092915050565b600061233f82612350565b9050919050565b6000819050919050565b600073ffffffffffffffffffffffffffffffffffffffff82169050919050565b6000819050919050565b82818337600083830152505050565b60005b838110156123a757808201518184015260208101905061238c565b838111156123b6576000848401525b50505050565b600060028204905060018216806123d457607f821691505b602082108114156123e8576123e7612494565b5b50919050565b60006123f982612370565b91507fffffffffffffffffffffffffffffffffffffffffffffffffffffffffffffffff82141561242c5761242b612465565b5b600182019050919050565b600061244282612449565b9050919050565b600061245482612503565b9050919050565b6000819050919050565b7f4e487b7100000000000000000000000000000000000000000000000000000000600052601160045260246000fd5b7f4e487b7100000000000000000000000000000000000000000000000000000000600052602260045260246000fd5b7f4e487b7100000000000000000000000000000000000000000000000000000000600052604160045260246000fd5b6000601f19601f8301169050919050565b60008160601b9050919050565b61251981612334565b811461252457600080fd5b50565b61253081612346565b811461253b57600080fd5b50565b61254781612370565b811461255257600080fd5b5056fea26469706673582212205b68450afc51dad2f8a4a67521cf0de99da0656e578db9ab5a9579906f179c9764736f6c63430008000033",
  "immutableReferences": {},
  "source": "// SPDX-License-Identifier: MIT\npragma solidity ^0.8.0;\n\ncontract SupplyChain {\n    struct Item {\n        string product;\n        uint256 qty;\n        uint256 value;\n        address exporter;\n        address recipient; // Original Ethereum wallet\n        string status; // EXPORTED, IMPORTED, CANCELLED\n        uint256[] statusTimestamps;\n    }\n    mapping(bytes32 => Item) private items; // transactionHash => Item\n    mapping(address => bytes32[]) private userInbox;\n    mapping(address => bytes32[]) private userAssets;\n    address public oracle;\n    uint256 public lastUpdatedTime;\n    bytes32[] public transactionHashes;\n\n    event ItemExported(\n        bytes32 indexed transactionHash,\n        address indexed exporter,\n        address indexed recipient\n    );\n    event StatusUpdated(\n        bytes32 indexed transactionHash,\n        string newStatus,\n        uint256 timestamp\n    );\n    event TimeUpdated(uint256 timestamp);\n\n    constructor() {\n        oracle = msg.sender;\n        lastUpdatedTime = block.timestamp;\n    }\n\n    modifier onlyOracle() {\n        require(msg.sender == oracle, \"Not authorized\");\n        _;\n    }\n\n    function setOracle(address _oracle) public onlyOracle {\n        oracle = _oracle;\n    }\n\n    modifier onlyOwner(address user) {\n        require(msg.sender == user, \"Not authorized\");\n        _;\n    }\n\n    function getInbox(\n        address user\n    ) public view onlyOwner(user) returns (bytes32[] memory) {\n        return userInbox[user];\n    }\n\n    function getAssets(\n        address user\n    ) public view onlyOwner(user) returns (bytes32[] memory) {\n        return userAssets[user];\n    }\n\n    function exportItem(\n        string memory product,\n        uint256 qty,\n        uint256 value,\n        address recipient\n    ) public returns (bytes32) {\n        require(recipient != address(0), \"Recipient address cannot be zero\");\n\n        bytes32 transactionHash = keccak256(\n            abi.encodePacked(\n                msg.sender,\n                recipient,\n                block.timestamp,\n                product,\n                qty,\n                value\n            )\n        );\n\n        require(\n            items[transactionHash].exporter == address(0),\n            \"Item already exists\"\n        );\n\n        Item storage newItem = items[transactionHash];\n        newItem.product = product;\n        newItem.qty = qty;\n        newItem.value = value;\n        newItem.exporter = msg.sender;\n        newItem.recipient = recipient;\n        newItem.status = \"EXPORTED\";\n        newItem.statusTimestamps.push(block.timestamp);\n\n        addToInbox(recipient, transactionHash);\n\n        transactionHashes.push(transactionHash);\n\n        emit ItemExported(transactionHash, msg.sender, recipient);\n        return transactionHash;\n    }\n\n    function confirmItem(bytes32 transactionHash) public {\n        Item storage item = items[transactionHash];\n        require(\n            item.recipient == msg.sender,\n            \"Only the recipient can confirm this item\"\n        );\n        require(\n            keccak256(bytes(item.status)) == keccak256(bytes(\"EXPORTED\")),\n            \"Item is not in EXPORTED status\"\n        );\n\n        item.status = \"IMPORTED\";\n        item.statusTimestamps.push(block.timestamp);\n\n        removeFromInbox(item.recipient, transactionHash);\n        addToAsset(msg.sender, transactionHash);\n\n        emit StatusUpdated(transactionHash, \"IMPORTED\", block.timestamp);\n    }\n\n    function denyItem(bytes32 transactionHash) public {\n        Item storage item = items[transactionHash];\n        require(\n            item.recipient == msg.sender,\n            \"Only the recipient can deny this item\"\n        );\n        require(\n            keccak256(bytes(item.status)) == keccak256(bytes(\"EXPORTED\")),\n            \"Item is not in EXPORTED status\"\n        );\n\n        item.status = \"CANCELLED\";\n        item.statusTimestamps.push(block.timestamp);\n\n        removeFromInbox(item.recipient, transactionHash);\n\n        emit StatusUpdated(transactionHash, \"CANCELLED\", block.timestamp);\n    }\n\n    function getItemDetails(\n        bytes32 transactionHash\n    ) public view returns (Item memory) {\n        Item memory item = items[transactionHash];\n        require(item.exporter != address(0), \"Item does not exist\");\n        require(\n            msg.sender == item.exporter || msg.sender == item.recipient,\n            \"Not authorized to view this item's details\"\n        );\n        return item;\n    }\n\n    function addToInbox(address user, bytes32 transactionHash) internal {\n        require(msg.sender == user, \"Not authorized to add to this inbox\");\n        userInbox[user].push(transactionHash);\n    }\n\n    function removeFromInbox(address user, bytes32 transactionHash) internal {\n        require(msg.sender == user, \"Not authorized to remove from this inbox\");\n        bytes32[] storage inboxList = userInbox[user];\n        for (uint256 i = 0; i < inboxList.length; i++) {\n            if (inboxList[i] == transactionHash) {\n                inboxList[i] = inboxList[inboxList.length - 1];\n                inboxList.pop();\n                break;\n            }\n        }\n    }\n\n    function addToAsset(address user, bytes32 transactionHash) internal {\n        require(msg.sender == user, \"Not authorized to add to this asset list\");\n        userAssets[user].push(transactionHash);\n    }\n\n    function updateTime() public onlyOracle {\n        lastUpdatedTime = block.timestamp;\n        emit TimeUpdated(block.timestamp);\n    }\n\n    function getTime() public view returns (uint256) {\n        return lastUpdatedTime;\n    }\n}\n",
  "sourcePath": "/Users/nicholasliem/Desktop/Repository/Personal/Blockchain/contract/contracts/SupplyChain.sol",
  "compiler": {
    "name": "solc",
    "version": "0.8.0+commit.c7dfd78e.Emscripten.clang"
  },
  "schemaVersion": "3.4.16",
  "updatedAt": "2024-12-28T14:20:14.221Z",
  "networkType": "ethereum",
  "devdoc": {
    "kind": "dev",
    "methods": {},
    "version": 1
  },
  "userdoc": {
    "kind": "user",
    "methods": {},
    "version": 1
  }
}