{
  "contractName": "WalletManager",
  "abi": [
    {
      "anonymous": false,
      "inputs": [
        {
          "indexed": true,
          "internalType": "address",
          "name": "wallet",
          "type": "address"
        },
        {
          "indexed": false,
          "internalType": "string",
          "name": "name",
          "type": "string"
        }
      ],
      "name": "WalletNameRegistered",
      "type": "event"
    },
    {
      "inputs": [
        {
          "internalType": "string",
          "name": "name",
          "type": "string"
        }
      ],
      "name": "registerWalletName",
      "outputs": [],
      "stateMutability": "nonpayable",
      "type": "function"
    },
    {
      "inputs": [
        {
          "internalType": "string",
          "name": "name",
          "type": "string"
        }
      ],
      "name": "getWalletByName",
      "outputs": [
        {
          "internalType": "address",
          "name": "",
          "type": "address"
        }
      ],
      "stateMutability": "view",
      "type": "function"
    },
    {
      "inputs": [
        {
          "internalType": "address",
          "name": "wallet",
          "type": "address"
        }
      ],
      "name": "getWalletName",
      "outputs": [
        {
          "internalType": "string",
          "name": "",
          "type": "string"
        }
      ],
      "stateMutability": "view",
      "type": "function"
    }
  ],
  "bytecode": "0x608060405234801561001057600080fd5b506109a2806100206000396000f3fe608060405234801561001057600080fd5b50600436106100415760003560e01c8063177fe9a3146100465780637f97ecdb14610062578063a967028a14610092575b600080fd5b610060600480360381019061005b919061058a565b6100c2565b005b61007c6004803603810190610077919061058a565b6102b4565b604051610089919061071b565b60405180910390f35b6100ac60048036038101906100a79190610561565b610371565b6040516100b99190610736565b60405180910390f35b6000815111610106576040517f08c379a00000000000000000000000000000000000000000000000000000000081526004016100fd90610778565b60405180910390fd5b600073ffffffffffffffffffffffffffffffffffffffff1660018260405161012e9190610704565b908152602001604051809103902060009054906101000a900473ffffffffffffffffffffffffffffffffffffffff1673ffffffffffffffffffffffffffffffffffffffff16146101b3576040517f08c379a00000000000000000000000000000000000000000000000000000000081526004016101aa90610758565b60405180910390fd5b806000803373ffffffffffffffffffffffffffffffffffffffff1673ffffffffffffffffffffffffffffffffffffffff1681526020019081526020016000209080519060200190610205929190610441565b50336001826040516102179190610704565b908152602001604051809103902060006101000a81548173ffffffffffffffffffffffffffffffffffffffff021916908373ffffffffffffffffffffffffffffffffffffffff1602179055503373ffffffffffffffffffffffffffffffffffffffff167fb58d93ac4c67a87abc002d6578e1bea0250b7e405d62d47f0c3043a115834ad1826040516102a99190610736565b60405180910390a250565b6000806001836040516102c79190610704565b908152602001604051809103902060009054906101000a900473ffffffffffffffffffffffffffffffffffffffff169050600073ffffffffffffffffffffffffffffffffffffffff168173ffffffffffffffffffffffffffffffffffffffff161415610368576040517f08c379a000000000000000000000000000000000000000000000000000000000815260040161035f90610798565b60405180910390fd5b80915050919050565b60606000808373ffffffffffffffffffffffffffffffffffffffff1673ffffffffffffffffffffffffffffffffffffffff16815260200190815260200160002080546103bc906108b4565b80601f01602080910402602001604051908101604052809291908181526020018280546103e8906108b4565b80156104355780601f1061040a57610100808354040283529160200191610435565b820191906000526020600020905b81548152906001019060200180831161041857829003601f168201915b50505050509050919050565b82805461044d906108b4565b90600052602060002090601f01602090048101928261046f57600085556104b6565b82601f1061048857805160ff19168380011785556104b6565b828001600101855582156104b6579182015b828111156104b557825182559160200191906001019061049a565b5b5090506104c391906104c7565b5090565b5b808211156104e05760008160009055506001016104c8565b5090565b60006104f76104f2846107e9565b6107b8565b90508281526020810184848401111561050f57600080fd5b61051a848285610872565b509392505050565b60008135905061053181610955565b92915050565b600082601f83011261054857600080fd5b81356105588482602086016104e4565b91505092915050565b60006020828403121561057357600080fd5b600061058184828501610522565b91505092915050565b60006020828403121561059c57600080fd5b600082013567ffffffffffffffff8111156105b657600080fd5b6105c284828501610537565b91505092915050565b6105d481610840565b82525050565b60006105e582610819565b6105ef8185610824565b93506105ff818560208601610881565b61060881610944565b840191505092915050565b600061061e82610819565b6106288185610835565b9350610638818560208601610881565b80840191505092915050565b6000610651601283610824565b91507f4e616d6520616c72656164792074616b656e00000000000000000000000000006000830152602082019050919050565b6000610691601483610824565b91507f4e616d652063616e6e6f7420626520656d7074790000000000000000000000006000830152602082019050919050565b60006106d1601083610824565b91507f57616c6c6574206e6f7420666f756e64000000000000000000000000000000006000830152602082019050919050565b60006107108284610613565b915081905092915050565b600060208201905061073060008301846105cb565b92915050565b6000602082019050818103600083015261075081846105da565b905092915050565b6000602082019050818103600083015261077181610644565b9050919050565b6000602082019050818103600083015261079181610684565b9050919050565b600060208201905081810360008301526107b1816106c4565b9050919050565b6000604051905081810181811067ffffffffffffffff821117156107df576107de610915565b5b8060405250919050565b600067ffffffffffffffff82111561080457610803610915565b5b601f19601f8301169050602081019050919050565b600081519050919050565b600082825260208201905092915050565b600081905092915050565b600061084b82610852565b9050919050565b600073ffffffffffffffffffffffffffffffffffffffff82169050919050565b82818337600083830152505050565b60005b8381101561089f578082015181840152602081019050610884565b838111156108ae576000848401525b50505050565b600060028204905060018216806108cc57607f821691505b602082108114156108e0576108df6108e6565b5b50919050565b7f4e487b7100000000000000000000000000000000000000000000000000000000600052602260045260246000fd5b7f4e487b7100000000000000000000000000000000000000000000000000000000600052604160045260246000fd5b6000601f19601f8301169050919050565b61095e81610840565b811461096957600080fd5b5056fea26469706673582212205ba340c5047bf2a6621192397ab6addb0cfc0d9e81d0d4d90dd22d64d65ac31764736f6c63430008000033",
  "immutableReferences": {},
  "source": "// SPDX-License-Identifier: MIT\npragma solidity ^0.8.0;\n\ncontract WalletManager {\n    mapping(address => string) private walletNames; // Ethereum wallet => Wallet Name\n    mapping(string => address) private nameToAddress; // Wallet Name => Ethereum wallet\n\n    event WalletNameRegistered(address indexed wallet, string name);\n\n    // Register a wallet name\n    function registerWalletName(string memory name) public {\n        require(bytes(name).length > 0, \"Name cannot be empty\");\n        require(nameToAddress[name] == address(0), \"Name already taken\");\n\n        walletNames[msg.sender] = name;\n        nameToAddress[name] = msg.sender;\n\n        emit WalletNameRegistered(msg.sender, name);\n    }\n\n    // Get wallet address by name\n    function getWalletByName(string memory name) public view returns (address) {\n        address wallet = nameToAddress[name];\n        require(wallet != address(0), \"Wallet not found\");\n        return wallet;\n    }\n\n    // Get name of a wallet\n    function getWalletName(address wallet) public view returns (string memory) {\n        return walletNames[wallet];\n    }\n}",
  "sourcePath": "/Users/nicholasliem/Desktop/Repository/Personal/Blockchain/contract/contracts/WalletManager.sol",
  "compiler": {
    "name": "solc",
    "version": "0.8.0+commit.c7dfd78e.Emscripten.clang"
  },
  "schemaVersion": "3.4.16",
  "updatedAt": "2024-12-26T14:16:40.601Z",
  "devdoc": {
    "kind": "dev",
    "methods": {},
    "version": 1
  },
  "userdoc": {
    "kind": "user",
    "methods": {},
    "version": 1
  }
}