{
  "contractName": "SupplyChain",
  "abi": [
    {
      "inputs": [],
      "stateMutability": "nonpayable",
      "type": "constructor"
    },
    {
      "anonymous": false,
      "inputs": [
        {
          "indexed": true,
          "internalType": "bytes32",
          "name": "transactionHash",
          "type": "bytes32"
        },
        {
          "indexed": true,
          "internalType": "address",
          "name": "exporter",
          "type": "address"
        },
        {
          "indexed": true,
          "internalType": "address",
          "name": "recipient",
          "type": "address"
        }
      ],
      "name": "ItemExported",
      "type": "event"
    },
    {
      "anonymous": false,
      "inputs": [
        {
          "indexed": true,
          "internalType": "bytes32",
          "name": "transactionHash",
          "type": "bytes32"
        },
        {
          "indexed": false,
          "internalType": "string",
          "name": "newStatus",
          "type": "string"
        },
        {
          "indexed": false,
          "internalType": "uint256",
          "name": "timestamp",
          "type": "uint256"
        }
      ],
      "name": "StatusUpdated",
      "type": "event"
    },
    {
      "anonymous": false,
      "inputs": [
        {
          "indexed": false,
          "internalType": "uint256",
          "name": "timestamp",
          "type": "uint256"
        }
      ],
      "name": "TimeUpdated",
      "type": "event"
    },
    {
      "inputs": [
        {
          "internalType": "address",
          "name": "wallet",
          "type": "address"
        },
        {
          "internalType": "bytes32",
          "name": "userSecret",
          "type": "bytes32"
        }
      ],
      "name": "deriveWallet",
      "outputs": [
        {
          "internalType": "bytes32",
          "name": "",
          "type": "bytes32"
        }
      ],
      "stateMutability": "pure",
      "type": "function",
      "constant": true
    },
    {
      "inputs": [
        {
          "internalType": "bytes32",
          "name": "derivedWallet",
          "type": "bytes32"
        }
      ],
      "name": "getAsset",
      "outputs": [
        {
          "internalType": "bytes32[]",
          "name": "",
          "type": "bytes32[]"
        }
      ],
      "stateMutability": "view",
      "type": "function",
      "constant": true
    },
    {
      "inputs": [
        {
          "internalType": "bytes32",
          "name": "derivedWallet",
          "type": "bytes32"
        }
      ],
      "name": "getInbox",
      "outputs": [
        {
          "internalType": "bytes32[]",
          "name": "",
          "type": "bytes32[]"
        }
      ],
      "stateMutability": "view",
      "type": "function",
      "constant": true
    },
    {
      "inputs": [],
      "name": "lastUpdatedTime",
      "outputs": [
        {
          "internalType": "uint256",
          "name": "",
          "type": "uint256"
        }
      ],
      "stateMutability": "view",
      "type": "function",
      "constant": true
    },
    {
      "inputs": [],
      "name": "oracle",
      "outputs": [
        {
          "internalType": "address",
          "name": "",
          "type": "address"
        }
      ],
      "stateMutability": "view",
      "type": "function",
      "constant": true
    },
    {
      "inputs": [
        {
          "internalType": "uint256",
          "name": "",
          "type": "uint256"
        }
      ],
      "name": "transactionHashes",
      "outputs": [
        {
          "internalType": "bytes32",
          "name": "",
          "type": "bytes32"
        }
      ],
      "stateMutability": "view",
      "type": "function",
      "constant": true
    },
    {
      "inputs": [
        {
          "internalType": "address",
          "name": "_oracle",
          "type": "address"
        }
      ],
      "name": "setOracle",
      "outputs": [],
      "stateMutability": "nonpayable",
      "type": "function"
    },
    {
      "inputs": [
        {
          "internalType": "string",
          "name": "product",
          "type": "string"
        },
        {
          "internalType": "uint256",
          "name": "qty",
          "type": "uint256"
        },
        {
          "internalType": "uint256",
          "name": "value",
          "type": "uint256"
        },
        {
          "internalType": "address",
          "name": "recipient",
          "type": "address"
        },
        {
          "internalType": "bytes32",
          "name": "derivedWallet",
          "type": "bytes32"
        }
      ],
      "name": "exportItem",
      "outputs": [
        {
          "internalType": "bytes32",
          "name": "",
          "type": "bytes32"
        }
      ],
      "stateMutability": "nonpayable",
      "type": "function"
    },
    {
      "inputs": [
        {
          "internalType": "bytes32",
          "name": "transactionHash",
          "type": "bytes32"
        },
        {
          "internalType": "bytes32",
          "name": "derivedWallet",
          "type": "bytes32"
        }
      ],
      "name": "confirmItem",
      "outputs": [],
      "stateMutability": "nonpayable",
      "type": "function"
    },
    {
      "inputs": [
        {
          "internalType": "bytes32",
          "name": "transactionHash",
          "type": "bytes32"
        }
      ],
      "name": "getItemDetails",
      "outputs": [
        {
          "components": [
            {
              "internalType": "string",
              "name": "product",
              "type": "string"
            },
            {
              "internalType": "uint256",
              "name": "qty",
              "type": "uint256"
            },
            {
              "internalType": "uint256",
              "name": "value",
              "type": "uint256"
            },
            {
              "internalType": "address",
              "name": "exporter",
              "type": "address"
            },
            {
              "internalType": "address",
              "name": "recipient",
              "type": "address"
            },
            {
              "internalType": "string",
              "name": "status",
              "type": "string"
            },
            {
              "internalType": "uint256[]",
              "name": "statusTimestamps",
              "type": "uint256[]"
            }
          ],
          "internalType": "struct SupplyChain.Item",
          "name": "",
          "type": "tuple"
        }
      ],
      "stateMutability": "view",
      "type": "function",
      "constant": true
    },
    {
      "inputs": [],
      "name": "updateTime",
      "outputs": [],
      "stateMutability": "nonpayable",
      "type": "function"
    },
    {
      "inputs": [],
      "name": "getTime",
      "outputs": [
        {
          "internalType": "uint256",
          "name": "",
          "type": "uint256"
        }
      ],
      "stateMutability": "view",
      "type": "function",
      "constant": true
    }
  ],
  "bytecode": "0x608060405234801561001057600080fd5b5033600360006101000a81548173ffffffffffffffffffffffffffffffffffffffff021916908373ffffffffffffffffffffffffffffffffffffffff16021790555042600481905550611edd806100686000396000f3fe608060405234801561001057600080fd5b50600436106100b45760003560e01c80639e9516c4116100715780639e9516c4146101a15780639ea0003f146101d1578063bf856895146101ed578063d1e3d1201461020b578063dc5550901461023b578063f7ae3e7714610245576100b4565b8063213dafcd146100b95780632cc3ce80146100e9578063557ed1ba1461011957806362583025146101375780637adbf973146101675780637dc0d1d014610183575b600080fd5b6100d360048036038101906100ce9190611338565b610275565b6040516100e091906119b7565b60405180910390f35b61010360048036038101906100fe9190611244565b610299565b6040516101109190611995565b60405180910390f35b610121610304565b60405161012e9190611b02565b60405180910390f35b610151600480360381019061014c91906112a9565b61030e565b60405161015e91906119b7565b60405180910390f35b610181600480360381019061017c91906111df565b610636565b005b61018b61070a565b604051610198919061197a565b60405180910390f35b6101bb60048036038101906101b69190611244565b610730565b6040516101c89190611995565b60405180910390f35b6101eb60048036038101906101e6919061126d565b61079a565b005b6101f56109a3565b6040516102029190611b02565b60405180910390f35b61022560048036038101906102209190611244565b6109a9565b6040516102329190611ae0565b60405180910390f35b610243610d38565b005b61025f600480360381019061025a9190611208565b610e08565b60405161026c91906119b7565b60405180910390f35b6005818154811061028557600080fd5b906000526020600020016000915090505481565b6060600160008381526020019081526020016000208054806020026020016040519081016040528092919081815260200182805480156102f857602002820191906000526020600020905b8154815260200190600101908083116102e4575b50505050509050919050565b6000600454905090565b60008073ffffffffffffffffffffffffffffffffffffffff168373ffffffffffffffffffffffffffffffffffffffff16141561037f576040517f08c379a0000000000000000000000000000000000000000000000000000000008152600401610376906119f2565b60405180910390fd5b600033844289898960405160200161039c969594939291906118cb565b604051602081830303815290604052805190602001209050600073ffffffffffffffffffffffffffffffffffffffff166002600083815260200190815260200160002060030160009054906101000a900473ffffffffffffffffffffffffffffffffffffffff1673ffffffffffffffffffffffffffffffffffffffff1614610459576040517f08c379a000000000000000000000000000000000000000000000000000000000815260040161045090611a60565b60405180910390fd5b60006002600083815260200190815260200160002090508781600001908051906020019061048892919061102c565b50868160010181905550858160020181905550338160030160006101000a81548173ffffffffffffffffffffffffffffffffffffffff021916908373ffffffffffffffffffffffffffffffffffffffff160217905550848160040160006101000a81548173ffffffffffffffffffffffffffffffffffffffff021916908373ffffffffffffffffffffffffffffffffffffffff1602179055506040518060400160405280600881526020017f4558504f5254454400000000000000000000000000000000000000000000000081525081600501908051906020019061056e92919061102c565b50806006014290806001815401808255809150506001900390600052602060002001600090919091909150556105a48483610e3b565b60058290806001815401808255809150506001900390600052602060002001600090919091909150558473ffffffffffffffffffffffffffffffffffffffff163373ffffffffffffffffffffffffffffffffffffffff16837f8cabda4ff5d88802c4200cd965df85fe466ae1fc1e011594df1b44d023c2357f60405160405180910390a4819250505095945050505050565b600360009054906101000a900473ffffffffffffffffffffffffffffffffffffffff1673ffffffffffffffffffffffffffffffffffffffff163373ffffffffffffffffffffffffffffffffffffffff16146106c6576040517f08c379a00000000000000000000000000000000000000000000000000000000081526004016106bd90611ac0565b60405180910390fd5b80600360006101000a81548173ffffffffffffffffffffffffffffffffffffffff021916908373ffffffffffffffffffffffffffffffffffffffff16021790555050565b600360009054906101000a900473ffffffffffffffffffffffffffffffffffffffff1681565b606060008083815260200190815260200160002080548060200260200160405190810160405280929190818152602001828054801561078e57602002820191906000526020600020905b81548152602001906001019080831161077a575b50505050509050919050565b60006002600084815260200190815260200160002090503373ffffffffffffffffffffffffffffffffffffffff168160040160009054906101000a900473ffffffffffffffffffffffffffffffffffffffff1673ffffffffffffffffffffffffffffffffffffffff1614610843576040517f08c379a000000000000000000000000000000000000000000000000000000000815260040161083a906119d2565b60405180910390fd5b6040518060400160405280600881526020017f4558504f5254454400000000000000000000000000000000000000000000000081525080519060200120816005016040516108919190611963565b6040518091039020146108d9576040517f08c379a00000000000000000000000000000000000000000000000000000000081526004016108d090611a80565b60405180910390fd5b6040518060400160405280600881526020017f494d504f5254454400000000000000000000000000000000000000000000000081525081600501908051906020019061092692919061102c565b508060060142908060018154018082558091505060019003906000526020600020016000909190919091505561095c8284610e78565b6109668284610fee565b827f6f2d58d35fe763ab9b31dd965e80a2ba8746ed797ec9e928ac99c40f0e9e8600426040516109969190611a32565b60405180910390a2505050565b60045481565b6109b16110b2565b6000600260008481526020019081526020016000206040518060e00160405290816000820180546109e190611d04565b80601f0160208091040260200160405190810160405280929190818152602001828054610a0d90611d04565b8015610a5a5780601f10610a2f57610100808354040283529160200191610a5a565b820191906000526020600020905b815481529060010190602001808311610a3d57829003601f168201915b5050505050815260200160018201548152602001600282015481526020016003820160009054906101000a900473ffffffffffffffffffffffffffffffffffffffff1673ffffffffffffffffffffffffffffffffffffffff1673ffffffffffffffffffffffffffffffffffffffff1681526020016004820160009054906101000a900473ffffffffffffffffffffffffffffffffffffffff1673ffffffffffffffffffffffffffffffffffffffff1673ffffffffffffffffffffffffffffffffffffffff168152602001600582018054610b3390611d04565b80601f0160208091040260200160405190810160405280929190818152602001828054610b5f90611d04565b8015610bac5780601f10610b8157610100808354040283529160200191610bac565b820191906000526020600020905b815481529060010190602001808311610b8f57829003601f168201915b5050505050815260200160068201805480602002602001604051908101604052809291908181526020018280548015610c0457602002820191906000526020600020905b815481526020019060010190808311610bf0575b5050505050815250509050600073ffffffffffffffffffffffffffffffffffffffff16816060015173ffffffffffffffffffffffffffffffffffffffff161415610c83576040517f08c379a0000000000000000000000000000000000000000000000000000000008152600401610c7a90611a12565b60405180910390fd5b806060015173ffffffffffffffffffffffffffffffffffffffff163373ffffffffffffffffffffffffffffffffffffffff161480610cf05750806080015173ffffffffffffffffffffffffffffffffffffffff163373ffffffffffffffffffffffffffffffffffffffff16145b610d2f576040517f08c379a0000000000000000000000000000000000000000000000000000000008152600401610d2690611aa0565b60405180910390fd5b80915050919050565b600360009054906101000a900473ffffffffffffffffffffffffffffffffffffffff1673ffffffffffffffffffffffffffffffffffffffff163373ffffffffffffffffffffffffffffffffffffffff1614610dc8576040517f08c379a0000000000000000000000000000000000000000000000000000000008152600401610dbf90611ac0565b60405180910390fd5b426004819055507f89c93b2d508150920890ffe8618ab7811923d95fa8770ecb495ca54cb15c716942604051610dfe9190611b02565b60405180910390a1565b60008282604051602001610e1d929190611937565b60405160208183030381529060405280519060200120905092915050565b6000808381526020019081526020016000208190806001815401808255809150506001900390600052602060002001600090919091909150555050565b6000806000848152602001908152602001600020905060005b8180549050811015610fe85782828281548110610ed7577f4e487b7100000000000000000000000000000000000000000000000000000000600052603260045260246000fd5b90600052602060002001541415610fd5578160018380549050610efa9190611c48565b81548110610f31577f4e487b7100000000000000000000000000000000000000000000000000000000600052603260045260246000fd5b9060005260206000200154828281548110610f75577f4e487b7100000000000000000000000000000000000000000000000000000000600052603260045260246000fd5b906000526020600020018190555081805480610fba577f4e487b7100000000000000000000000000000000000000000000000000000000600052603160045260246000fd5b60019003818190600052602060002001600090559055610fe8565b8080610fe090611d36565b915050610e91565b50505050565b600160008381526020019081526020016000208190806001815401808255809150506001900390600052602060002001600090919091909150555050565b82805461103890611d04565b90600052602060002090601f01602090048101928261105a57600085556110a1565b82601f1061107357805160ff19168380011785556110a1565b828001600101855582156110a1579182015b828111156110a0578251825591602001919060010190611085565b5b5090506110ae919061111b565b5090565b6040518060e00160405280606081526020016000815260200160008152602001600073ffffffffffffffffffffffffffffffffffffffff168152602001600073ffffffffffffffffffffffffffffffffffffffff16815260200160608152602001606081525090565b5b8082111561113457600081600090555060010161111c565b5090565b600061114b61114684611b4e565b611b1d565b90508281526020810184848401111561116357600080fd5b61116e848285611cc2565b509392505050565b60008135905061118581611e62565b92915050565b60008135905061119a81611e79565b92915050565b600082601f8301126111b157600080fd5b81356111c1848260208601611138565b91505092915050565b6000813590506111d981611e90565b92915050565b6000602082840312156111f157600080fd5b60006111ff84828501611176565b91505092915050565b6000806040838503121561121b57600080fd5b600061122985828601611176565b925050602061123a8582860161118b565b9150509250929050565b60006020828403121561125657600080fd5b60006112648482850161118b565b91505092915050565b6000806040838503121561128057600080fd5b600061128e8582860161118b565b925050602061129f8582860161118b565b9150509250929050565b600080600080600060a086880312156112c157600080fd5b600086013567ffffffffffffffff8111156112db57600080fd5b6112e7888289016111a0565b95505060206112f8888289016111ca565b9450506040611309888289016111ca565b935050606061131a88828901611176565b925050608061132b8882890161118b565b9150509295509295909350565b60006020828403121561134a57600080fd5b6000611358848285016111ca565b91505092915050565b600061136d8383611482565b60208301905092915050565b60006113858383611896565b60208301905092915050565b61139a81611c7c565b82525050565b6113a981611c7c565b82525050565b6113c06113bb82611c7c565b611d7f565b82525050565b60006113d182611bb3565b6113db8185611bee565b93506113e683611b7e565b8060005b838110156114175781516113fe8882611361565b975061140983611bd4565b9250506001810190506113ea565b5085935050505092915050565b600061142f82611bbe565b6114398185611bff565b935061144483611b8e565b8060005b8381101561147557815161145c8882611379565b975061146783611be1565b925050600181019050611448565b5085935050505092915050565b61148b81611c8e565b82525050565b61149a81611c8e565b82525050565b6114b16114ac82611c8e565b611d91565b82525050565b600081546114c481611d04565b6114ce8186611c10565b945060018216600081146114e957600181146114fa5761152d565b60ff1983168652818601935061152d565b61150385611b9e565b60005b8381101561152557815481890152600182019150602081019050611506565b838801955050505b50505092915050565b600061154182611bc9565b61154b8185611c1b565b935061155b818560208601611cd1565b61156481611e44565b840191505092915050565b600061157a82611bc9565b6115848185611c3d565b9350611594818560208601611cd1565b80840191505092915050565b60006115ad602883611c2c565b91507f4f6e6c792074686520726563697069656e742063616e20636f6e6669726d207460008301527f686973206974656d0000000000000000000000000000000000000000000000006020830152604082019050919050565b6000611613602083611c2c565b91507f526563697069656e7420616464726573732063616e6e6f74206265207a65726f6000830152602082019050919050565b6000611653601383611c2c565b91507f4974656d20646f6573206e6f74206578697374000000000000000000000000006000830152602082019050919050565b6000611693600883611c2c565b91507f494d504f525445440000000000000000000000000000000000000000000000006000830152602082019050919050565b60006116d3601383611c2c565b91507f4974656d20616c726561647920657869737473000000000000000000000000006000830152602082019050919050565b6000611713601e83611c2c565b91507f4974656d206973206e6f7420696e204558504f525445442073746174757300006000830152602082019050919050565b6000611753602a83611c2c565b91507f4e6f7420617574686f72697a656420746f20766965772074686973206974656d60008301527f27732064657461696c73000000000000000000000000000000000000000000006020830152604082019050919050565b60006117b9600e83611c2c565b91507f4e6f7420617574686f72697a65640000000000000000000000000000000000006000830152602082019050919050565b600060e08301600083015184820360008601526118098282611536565b915050602083015161181e6020860182611896565b5060408301516118316040860182611896565b5060608301516118446060860182611391565b5060808301516118576080860182611391565b5060a083015184820360a086015261186f8282611536565b91505060c083015184820360c08601526118898282611424565b9150508091505092915050565b61189f81611cb8565b82525050565b6118ae81611cb8565b82525050565b6118c56118c082611cb8565b611dad565b82525050565b60006118d782896113af565b6014820191506118e782886113af565b6014820191506118f782876118b4565b602082019150611907828661156f565b915061191382856118b4565b60208201915061192382846118b4565b602082019150819050979650505050505050565b600061194382856113af565b60148201915061195382846114a0565b6020820191508190509392505050565b600061196f82846114b7565b915081905092915050565b600060208201905061198f60008301846113a0565b92915050565b600060208201905081810360008301526119af81846113c6565b905092915050565b60006020820190506119cc6000830184611491565b92915050565b600060208201905081810360008301526119eb816115a0565b9050919050565b60006020820190508181036000830152611a0b81611606565b9050919050565b60006020820190508181036000830152611a2b81611646565b9050919050565b60006040820190508181036000830152611a4b81611686565b9050611a5a60208301846118a5565b92915050565b60006020820190508181036000830152611a79816116c6565b9050919050565b60006020820190508181036000830152611a9981611706565b9050919050565b60006020820190508181036000830152611ab981611746565b9050919050565b60006020820190508181036000830152611ad9816117ac565b9050919050565b60006020820190508181036000830152611afa81846117ec565b905092915050565b6000602082019050611b1760008301846118a5565b92915050565b6000604051905081810181811067ffffffffffffffff82111715611b4457611b43611e15565b5b8060405250919050565b600067ffffffffffffffff821115611b6957611b68611e15565b5b601f19601f8301169050602081019050919050565b6000819050602082019050919050565b6000819050602082019050919050565b60008190508160005260206000209050919050565b600081519050919050565b600081519050919050565b600081519050919050565b6000602082019050919050565b6000602082019050919050565b600082825260208201905092915050565b600082825260208201905092915050565b600081905092915050565b600082825260208201905092915050565b600082825260208201905092915050565b600081905092915050565b6000611c5382611cb8565b9150611c5e83611cb8565b925082821015611c7157611c70611db7565b5b828203905092915050565b6000611c8782611c98565b9050919050565b6000819050919050565b600073ffffffffffffffffffffffffffffffffffffffff82169050919050565b6000819050919050565b82818337600083830152505050565b60005b83811015611cef578082015181840152602081019050611cd4565b83811115611cfe576000848401525b50505050565b60006002820490506001821680611d1c57607f821691505b60208210811415611d3057611d2f611de6565b5b50919050565b6000611d4182611cb8565b91507fffffffffffffffffffffffffffffffffffffffffffffffffffffffffffffffff821415611d7457611d73611db7565b5b600182019050919050565b6000611d8a82611d9b565b9050919050565b6000819050919050565b6000611da682611e55565b9050919050565b6000819050919050565b7f4e487b7100000000000000000000000000000000000000000000000000000000600052601160045260246000fd5b7f4e487b7100000000000000000000000000000000000000000000000000000000600052602260045260246000fd5b7f4e487b7100000000000000000000000000000000000000000000000000000000600052604160045260246000fd5b6000601f19601f8301169050919050565b60008160601b9050919050565b611e6b81611c7c565b8114611e7657600080fd5b50565b611e8281611c8e565b8114611e8d57600080fd5b50565b611e9981611cb8565b8114611ea457600080fd5b5056fea26469706673582212202a976518265fb16ce0cec1fbc8e16acc1c0ce4852545e2b1bb34a09ba801cabc64736f6c63430008000033",
  "immutableReferences": {},
  "source": "// SPDX-License-Identifier: MIT\npragma solidity ^0.8.0;\n\nimport \"./DerivedWallet.sol\";\n\ncontract SupplyChain is DerivedWallet {\n    struct Item {\n        string product;\n        uint256 qty;\n        uint256 value;\n        address exporter;\n        address recipient; // Original Ethereum wallet\n        string status; // EXPORTED, IMPORTED, CANCELLED\n        uint256[] statusTimestamps;\n    }\n\n    mapping(bytes32 => Item) private items; // transactionHash => Item\n    address public oracle;\n    uint256 public lastUpdatedTime;\n    bytes32[] public transactionHashes;\n\n    event ItemExported(bytes32 indexed transactionHash, address indexed exporter, address indexed recipient);\n    event StatusUpdated(bytes32 indexed transactionHash, string newStatus, uint256 timestamp);\n    event TimeUpdated(uint256 timestamp);\n\n    constructor() {\n        oracle = msg.sender;\n        lastUpdatedTime = block.timestamp;\n    }\n\n    modifier onlyOracle() {\n        require(msg.sender == oracle, \"Not authorized\");\n        _;\n    }\n\n    function setOracle(address _oracle) public onlyOracle {\n        oracle = _oracle;\n    }\n\n    function exportItem(\n        string memory product,\n        uint256 qty,\n        uint256 value,\n        address recipient,\n        bytes32 derivedWallet\n    ) public returns (bytes32) {\n        require(recipient != address(0), \"Recipient address cannot be zero\");\n\n        bytes32 transactionHash = keccak256(\n            abi.encodePacked(msg.sender, recipient, block.timestamp, product, qty, value)\n        );\n\n        require(items[transactionHash].exporter == address(0), \"Item already exists\");\n\n        Item storage newItem = items[transactionHash];\n        newItem.product = product;\n        newItem.qty = qty;\n        newItem.value = value;\n        newItem.exporter = msg.sender;\n        newItem.recipient = recipient;\n        newItem.status = \"EXPORTED\";\n        newItem.statusTimestamps.push(block.timestamp);\n\n        addToInbox(derivedWallet, transactionHash);\n\n        transactionHashes.push(transactionHash);\n\n        emit ItemExported(transactionHash, msg.sender, recipient);\n        return transactionHash;\n    }\n\n    function confirmItem(bytes32 transactionHash, bytes32 derivedWallet) public {\n        Item storage item = items[transactionHash];\n        require(item.recipient == msg.sender, \"Only the recipient can confirm this item\");\n        require(\n            keccak256(bytes(item.status)) == keccak256(bytes(\"EXPORTED\")),\n            \"Item is not in EXPORTED status\"\n        );\n\n        item.status = \"IMPORTED\";\n        item.statusTimestamps.push(block.timestamp);\n\n        removeFromInbox(derivedWallet, transactionHash);\n        addToAsset(derivedWallet, transactionHash);\n\n        emit StatusUpdated(transactionHash, \"IMPORTED\", block.timestamp);\n    }\n\n    function getItemDetails(bytes32 transactionHash) public view returns (Item memory) {\n        Item memory item = items[transactionHash];\n        require(item.exporter != address(0), \"Item does not exist\");\n        require(\n            msg.sender == item.exporter || msg.sender == item.recipient,\n            \"Not authorized to view this item's details\"\n        );\n        return item;\n    }\n\n    function updateTime() public onlyOracle {\n        lastUpdatedTime = block.timestamp;\n        emit TimeUpdated(block.timestamp);\n    }\n\n    function getTime() public view returns (uint256) {\n        return lastUpdatedTime;\n    }\n}",
  "sourcePath": "/Users/nicholasliem/Desktop/Repository/Personal/Blockchain/contract/contracts/SupplyChain.sol",
  "compiler": {
    "name": "solc",
    "version": "0.8.0+commit.c7dfd78e.Emscripten.clang"
  },
  "schemaVersion": "3.4.16",
  "updatedAt": "2024-12-26T15:11:57.747Z",
  "networkType": "ethereum",
  "devdoc": {
    "kind": "dev",
    "methods": {},
    "version": 1
  },
  "userdoc": {
    "kind": "user",
    "methods": {},
    "version": 1
  }
}