{
  "contractName": "SupplyChain",
  "abi": [
    {
      "inputs": [],
      "stateMutability": "nonpayable",
      "type": "constructor"
    },
    {
      "anonymous": false,
      "inputs": [
        {
          "indexed": true,
          "internalType": "bytes32",
          "name": "transactionHash",
          "type": "bytes32"
        },
        {
          "indexed": true,
          "internalType": "address",
          "name": "exporter",
          "type": "address"
        },
        {
          "indexed": true,
          "internalType": "address",
          "name": "recipient",
          "type": "address"
        }
      ],
      "name": "ItemExported",
      "type": "event"
    },
    {
      "anonymous": false,
      "inputs": [
        {
          "indexed": true,
          "internalType": "bytes32",
          "name": "transactionHash",
          "type": "bytes32"
        },
        {
          "indexed": false,
          "internalType": "string",
          "name": "newStatus",
          "type": "string"
        },
        {
          "indexed": false,
          "internalType": "uint256",
          "name": "timestamp",
          "type": "uint256"
        }
      ],
      "name": "StatusUpdated",
      "type": "event"
    },
    {
      "anonymous": false,
      "inputs": [
        {
          "indexed": false,
          "internalType": "uint256",
          "name": "timestamp",
          "type": "uint256"
        }
      ],
      "name": "TimeUpdated",
      "type": "event"
    },
    {
      "inputs": [],
      "name": "lastUpdatedTime",
      "outputs": [
        {
          "internalType": "uint256",
          "name": "",
          "type": "uint256"
        }
      ],
      "stateMutability": "view",
      "type": "function",
      "constant": true
    },
    {
      "inputs": [],
      "name": "oracle",
      "outputs": [
        {
          "internalType": "address",
          "name": "",
          "type": "address"
        }
      ],
      "stateMutability": "view",
      "type": "function",
      "constant": true
    },
    {
      "inputs": [
        {
          "internalType": "uint256",
          "name": "",
          "type": "uint256"
        }
      ],
      "name": "transactionHashes",
      "outputs": [
        {
          "internalType": "bytes32",
          "name": "",
          "type": "bytes32"
        }
      ],
      "stateMutability": "view",
      "type": "function",
      "constant": true
    },
    {
      "inputs": [
        {
          "internalType": "address",
          "name": "_oracle",
          "type": "address"
        }
      ],
      "name": "setOracle",
      "outputs": [],
      "stateMutability": "nonpayable",
      "type": "function"
    },
    {
      "inputs": [
        {
          "internalType": "address",
          "name": "user",
          "type": "address"
        }
      ],
      "name": "getInbox",
      "outputs": [
        {
          "internalType": "bytes32[]",
          "name": "",
          "type": "bytes32[]"
        }
      ],
      "stateMutability": "view",
      "type": "function",
      "constant": true
    },
    {
      "inputs": [
        {
          "internalType": "address",
          "name": "user",
          "type": "address"
        }
      ],
      "name": "getAssets",
      "outputs": [
        {
          "internalType": "bytes32[]",
          "name": "",
          "type": "bytes32[]"
        }
      ],
      "stateMutability": "view",
      "type": "function",
      "constant": true
    },
    {
      "inputs": [
        {
          "internalType": "string",
          "name": "product",
          "type": "string"
        },
        {
          "internalType": "uint256",
          "name": "qty",
          "type": "uint256"
        },
        {
          "internalType": "uint256",
          "name": "value",
          "type": "uint256"
        },
        {
          "internalType": "address",
          "name": "recipient",
          "type": "address"
        },
        {
          "internalType": "string",
          "name": "exporter_currency",
          "type": "string"
        },
        {
          "internalType": "string",
          "name": "recipient_currency",
          "type": "string"
        }
      ],
      "name": "exportItem",
      "outputs": [
        {
          "internalType": "bytes32",
          "name": "",
          "type": "bytes32"
        }
      ],
      "stateMutability": "nonpayable",
      "type": "function"
    },
    {
      "inputs": [
        {
          "internalType": "bytes32",
          "name": "transactionHash",
          "type": "bytes32"
        }
      ],
      "name": "confirmItem",
      "outputs": [],
      "stateMutability": "nonpayable",
      "type": "function"
    },
    {
      "inputs": [
        {
          "internalType": "bytes32",
          "name": "transactionHash",
          "type": "bytes32"
        }
      ],
      "name": "getItemDetails",
      "outputs": [
        {
          "components": [
            {
              "internalType": "string",
              "name": "product",
              "type": "string"
            },
            {
              "internalType": "uint256",
              "name": "qty",
              "type": "uint256"
            },
            {
              "internalType": "uint256",
              "name": "value",
              "type": "uint256"
            },
            {
              "internalType": "address",
              "name": "exporter",
              "type": "address"
            },
            {
              "internalType": "address",
              "name": "recipient",
              "type": "address"
            },
            {
              "internalType": "string",
              "name": "exporter_currency",
              "type": "string"
            },
            {
              "internalType": "string",
              "name": "recipient_currency",
              "type": "string"
            },
            {
              "internalType": "string",
              "name": "status",
              "type": "string"
            },
            {
              "internalType": "uint256[]",
              "name": "statusTimestamps",
              "type": "uint256[]"
            }
          ],
          "internalType": "struct SupplyChain.Item",
          "name": "",
          "type": "tuple"
        }
      ],
      "stateMutability": "view",
      "type": "function",
      "constant": true
    },
    {
      "inputs": [],
      "name": "updateTime",
      "outputs": [],
      "stateMutability": "nonpayable",
      "type": "function"
    },
    {
      "inputs": [],
      "name": "getTime",
      "outputs": [
        {
          "internalType": "uint256",
          "name": "",
          "type": "uint256"
        }
      ],
      "stateMutability": "view",
      "type": "function",
      "constant": true
    }
  ],
  "bytecode": "0x608060405234801561001057600080fd5b5033600360006101000a81548173ffffffffffffffffffffffffffffffffffffffff021916908373ffffffffffffffffffffffffffffffffffffffff16021790555042600481905550612462806100686000396000f3fe608060405234801561001057600080fd5b50600436106100a95760003560e01c80637dc0d1d0116100715780637dc0d1d0146101785780638b784a7114610196578063bf856895146101c6578063d1e3d120146101e4578063dc55509014610214578063fc9ed2501461021e576100a9565b806302201681146100ae578063213dafcd146100de578063557ed1ba1461010e578063742978da1461012c5780637adbf9731461015c575b600080fd5b6100c860048036038101906100c39190611604565b61023a565b6040516100d59190611ec4565b60405180910390f35b6100f860048036038101906100f39190611727565b610341565b6040516101059190611ee6565b60405180910390f35b610116610365565b6040516101239190612091565b60405180910390f35b61014660048036038101906101419190611604565b61036f565b6040516101539190611ec4565b60405180910390f35b61017660048036038101906101719190611604565b610476565b005b61018061054a565b60405161018d9190611ea9565b60405180910390f35b6101b060048036038101906101ab9190611656565b610570565b6040516101bd9190611ee6565b60405180910390f35b6101ce6108cd565b6040516101db9190612091565b60405180910390f35b6101fe60048036038101906101f9919061162d565b6108d3565b60405161020b919061206f565b60405180910390f35b61021c610d86565b005b6102386004803603810190610233919061162d565b610e56565b005b6060818073ffffffffffffffffffffffffffffffffffffffff163373ffffffffffffffffffffffffffffffffffffffff16146102ab576040517f08c379a00000000000000000000000000000000000000000000000000000000081526004016102a29061204f565b60405180910390fd5b600160008473ffffffffffffffffffffffffffffffffffffffff1673ffffffffffffffffffffffffffffffffffffffff16815260200190815260200160002080548060200260200160405190810160405280929190818152602001828054801561033457602002820191906000526020600020905b815481526020019060010190808311610320575b5050505050915050919050565b6005818154811061035157600080fd5b906000526020600020016000915090505481565b6000600454905090565b6060818073ffffffffffffffffffffffffffffffffffffffff163373ffffffffffffffffffffffffffffffffffffffff16146103e0576040517f08c379a00000000000000000000000000000000000000000000000000000000081526004016103d79061204f565b60405180910390fd5b600260008473ffffffffffffffffffffffffffffffffffffffff1673ffffffffffffffffffffffffffffffffffffffff16815260200190815260200160002080548060200260200160405190810160405280929190818152602001828054801561046957602002820191906000526020600020905b815481526020019060010190808311610455575b5050505050915050919050565b600360009054906101000a900473ffffffffffffffffffffffffffffffffffffffff1673ffffffffffffffffffffffffffffffffffffffff163373ffffffffffffffffffffffffffffffffffffffff1614610506576040517f08c379a00000000000000000000000000000000000000000000000000000000081526004016104fd9061204f565b60405180910390fd5b80600360006101000a81548173ffffffffffffffffffffffffffffffffffffffff021916908373ffffffffffffffffffffffffffffffffffffffff16021790555050565b600360009054906101000a900473ffffffffffffffffffffffffffffffffffffffff1681565b60008073ffffffffffffffffffffffffffffffffffffffff168473ffffffffffffffffffffffffffffffffffffffff1614156105e1576040517f08c379a00000000000000000000000000000000000000000000000000000000081526004016105d890611f81565b60405180910390fd5b60003385428a8a8a8989604051602001610602989796959493929190611e0c565b604051602081830303815290604052805190602001209050600073ffffffffffffffffffffffffffffffffffffffff1660008083815260200190815260200160002060030160009054906101000a900473ffffffffffffffffffffffffffffffffffffffff1673ffffffffffffffffffffffffffffffffffffffff16146106be576040517f08c379a00000000000000000000000000000000000000000000000000000000081526004016106b590611fef565b60405180910390fd5b60008060008381526020019081526020016000209050888160000190805190602001906106ec929190611442565b50878160010181905550868160020181905550338160030160006101000a81548173ffffffffffffffffffffffffffffffffffffffff021916908373ffffffffffffffffffffffffffffffffffffffff160217905550858160040160006101000a81548173ffffffffffffffffffffffffffffffffffffffff021916908373ffffffffffffffffffffffffffffffffffffffff1602179055506040518060400160405280600881526020017f4558504f525445440000000000000000000000000000000000000000000000008152508160070190805190602001906107d2929190611442565b508060080142908060018154018082558091505060019003906000526020600020016000909190919091505584816005019080519060200190610816929190611442565b508381600601908051906020019061082f929190611442565b5061083a8683611081565b60058290806001815401808255809150506001900390600052602060002001600090919091909150558573ffffffffffffffffffffffffffffffffffffffff163373ffffffffffffffffffffffffffffffffffffffff16837f8cabda4ff5d88802c4200cd965df85fe466ae1fc1e011594df1b44d023c2357f60405160405180910390a481925050509695505050505050565b60045481565b6108db6114c8565b60008060008481526020019081526020016000206040518061012001604052908160008201805461090b90612293565b80601f016020809104026020016040519081016040528092919081815260200182805461093790612293565b80156109845780601f1061095957610100808354040283529160200191610984565b820191906000526020600020905b81548152906001019060200180831161096757829003601f168201915b5050505050815260200160018201548152602001600282015481526020016003820160009054906101000a900473ffffffffffffffffffffffffffffffffffffffff1673ffffffffffffffffffffffffffffffffffffffff1673ffffffffffffffffffffffffffffffffffffffff1681526020016004820160009054906101000a900473ffffffffffffffffffffffffffffffffffffffff1673ffffffffffffffffffffffffffffffffffffffff1673ffffffffffffffffffffffffffffffffffffffff168152602001600582018054610a5d90612293565b80601f0160208091040260200160405190810160405280929190818152602001828054610a8990612293565b8015610ad65780601f10610aab57610100808354040283529160200191610ad6565b820191906000526020600020905b815481529060010190602001808311610ab957829003601f168201915b50505050508152602001600682018054610aef90612293565b80601f0160208091040260200160405190810160405280929190818152602001828054610b1b90612293565b8015610b685780601f10610b3d57610100808354040283529160200191610b68565b820191906000526020600020905b815481529060010190602001808311610b4b57829003601f168201915b50505050508152602001600782018054610b8190612293565b80601f0160208091040260200160405190810160405280929190818152602001828054610bad90612293565b8015610bfa5780601f10610bcf57610100808354040283529160200191610bfa565b820191906000526020600020905b815481529060010190602001808311610bdd57829003601f168201915b5050505050815260200160088201805480602002602001604051908101604052809291908181526020018280548015610c5257602002820191906000526020600020905b815481526020019060010190808311610c3e575b5050505050815250509050600073ffffffffffffffffffffffffffffffffffffffff16816060015173ffffffffffffffffffffffffffffffffffffffff161415610cd1576040517f08c379a0000000000000000000000000000000000000000000000000000000008152600401610cc890611fa1565b60405180910390fd5b806060015173ffffffffffffffffffffffffffffffffffffffff163373ffffffffffffffffffffffffffffffffffffffff161480610d3e5750806080015173ffffffffffffffffffffffffffffffffffffffff163373ffffffffffffffffffffffffffffffffffffffff16145b610d7d576040517f08c379a0000000000000000000000000000000000000000000000000000000008152600401610d749061202f565b60405180910390fd5b80915050919050565b600360009054906101000a900473ffffffffffffffffffffffffffffffffffffffff1673ffffffffffffffffffffffffffffffffffffffff163373ffffffffffffffffffffffffffffffffffffffff1614610e16576040517f08c379a0000000000000000000000000000000000000000000000000000000008152600401610e0d9061204f565b60405180910390fd5b426004819055507f89c93b2d508150920890ffe8618ab7811923d95fa8770ecb495ca54cb15c716942604051610e4c9190612091565b60405180910390a1565b600080600083815260200190815260200160002090503373ffffffffffffffffffffffffffffffffffffffff168160040160009054906101000a900473ffffffffffffffffffffffffffffffffffffffff1673ffffffffffffffffffffffffffffffffffffffff1614610efe576040517f08c379a0000000000000000000000000000000000000000000000000000000008152600401610ef590611f41565b60405180910390fd5b6040518060400160405280600881526020017f4558504f525445440000000000000000000000000000000000000000000000008152508051906020012081600701604051610f4c9190611e92565b604051809103902014610f94576040517f08c379a0000000000000000000000000000000000000000000000000000000008152600401610f8b9061200f565b60405180910390fd5b6040518060400160405280600881526020017f494d504f52544544000000000000000000000000000000000000000000000000815250816007019080519060200190610fe1929190611442565b508060080142908060018154018082558091505060019003906000526020600020016000909190919091505561103b8160040160009054906101000a900473ffffffffffffffffffffffffffffffffffffffff1683611159565b611045338361136a565b817f6f2d58d35fe763ab9b31dd965e80a2ba8746ed797ec9e928ac99c40f0e9e8600426040516110759190611fc1565b60405180910390a25050565b8173ffffffffffffffffffffffffffffffffffffffff163373ffffffffffffffffffffffffffffffffffffffff16146110ef576040517f08c379a00000000000000000000000000000000000000000000000000000000081526004016110e690611f01565b60405180910390fd5b600160008373ffffffffffffffffffffffffffffffffffffffff1673ffffffffffffffffffffffffffffffffffffffff1681526020019081526020016000208190806001815401808255809150506001900390600052602060002001600090919091909150555050565b8173ffffffffffffffffffffffffffffffffffffffff163373ffffffffffffffffffffffffffffffffffffffff16146111c7576040517f08c379a00000000000000000000000000000000000000000000000000000000081526004016111be90611f21565b60405180910390fd5b6000600160008473ffffffffffffffffffffffffffffffffffffffff1673ffffffffffffffffffffffffffffffffffffffff168152602001908152602001600020905060005b81805490508110156113645782828281548110611253577f4e487b7100000000000000000000000000000000000000000000000000000000600052603260045260246000fd5b9060005260206000200154141561135157816001838054905061127691906121d7565b815481106112ad577f4e487b7100000000000000000000000000000000000000000000000000000000600052603260045260246000fd5b90600052602060002001548282815481106112f1577f4e487b7100000000000000000000000000000000000000000000000000000000600052603260045260246000fd5b906000526020600020018190555081805480611336577f4e487b7100000000000000000000000000000000000000000000000000000000600052603160045260246000fd5b60019003818190600052602060002001600090559055611364565b808061135c906122c5565b91505061120d565b50505050565b8173ffffffffffffffffffffffffffffffffffffffff163373ffffffffffffffffffffffffffffffffffffffff16146113d8576040517f08c379a00000000000000000000000000000000000000000000000000000000081526004016113cf90611f61565b60405180910390fd5b600260008373ffffffffffffffffffffffffffffffffffffffff1673ffffffffffffffffffffffffffffffffffffffff1681526020019081526020016000208190806001815401808255809150506001900390600052602060002001600090919091909150555050565b82805461144e90612293565b90600052602060002090601f01602090048101928261147057600085556114b7565b82601f1061148957805160ff19168380011785556114b7565b828001600101855582156114b7579182015b828111156114b657825182559160200191906001019061149b565b5b5090506114c49190611540565b5090565b604051806101200160405280606081526020016000815260200160008152602001600073ffffffffffffffffffffffffffffffffffffffff168152602001600073ffffffffffffffffffffffffffffffffffffffff168152602001606081526020016060815260200160608152602001606081525090565b5b80821115611559576000816000905550600101611541565b5090565b600061157061156b846120dd565b6120ac565b90508281526020810184848401111561158857600080fd5b611593848285612251565b509392505050565b6000813590506115aa816123e7565b92915050565b6000813590506115bf816123fe565b92915050565b600082601f8301126115d657600080fd5b81356115e684826020860161155d565b91505092915050565b6000813590506115fe81612415565b92915050565b60006020828403121561161657600080fd5b60006116248482850161159b565b91505092915050565b60006020828403121561163f57600080fd5b600061164d848285016115b0565b91505092915050565b60008060008060008060c0878903121561166f57600080fd5b600087013567ffffffffffffffff81111561168957600080fd5b61169589828a016115c5565b96505060206116a689828a016115ef565b95505060406116b789828a016115ef565b94505060606116c889828a0161159b565b935050608087013567ffffffffffffffff8111156116e557600080fd5b6116f189828a016115c5565b92505060a087013567ffffffffffffffff81111561170e57600080fd5b61171a89828a016115c5565b9150509295509295509295565b60006020828403121561173957600080fd5b6000611747848285016115ef565b91505092915050565b600061175c8383611871565b60208301905092915050565b60006117748383611dd7565b60208301905092915050565b6117898161220b565b82525050565b6117988161220b565b82525050565b6117af6117aa8261220b565b61230e565b82525050565b60006117c082612142565b6117ca818561217d565b93506117d58361210d565b8060005b838110156118065781516117ed8882611750565b97506117f883612163565b9250506001810190506117d9565b5085935050505092915050565b600061181e8261214d565b611828818561218e565b93506118338361211d565b8060005b8381101561186457815161184b8882611768565b975061185683612170565b925050600181019050611837565b5085935050505092915050565b61187a8161221d565b82525050565b6118898161221d565b82525050565b6000815461189c81612293565b6118a6818661219f565b945060018216600081146118c157600181146118d257611905565b60ff19831686528186019350611905565b6118db8561212d565b60005b838110156118fd578154818901526001820191506020810190506118de565b838801955050505b50505092915050565b600061191982612158565b61192381856121aa565b9350611933818560208601612260565b61193c816123c9565b840191505092915050565b600061195282612158565b61195c81856121cc565b935061196c818560208601612260565b80840191505092915050565b60006119856023836121bb565b91507f4e6f7420617574686f72697a656420746f2061646420746f207468697320696e60008301527f626f7800000000000000000000000000000000000000000000000000000000006020830152604082019050919050565b60006119eb6028836121bb565b91507f4e6f7420617574686f72697a656420746f2072656d6f76652066726f6d20746860008301527f697320696e626f780000000000000000000000000000000000000000000000006020830152604082019050919050565b6000611a516028836121bb565b91507f4f6e6c792074686520726563697069656e742063616e20636f6e6669726d207460008301527f686973206974656d0000000000000000000000000000000000000000000000006020830152604082019050919050565b6000611ab76028836121bb565b91507f4e6f7420617574686f72697a656420746f2061646420746f207468697320617360008301527f736574206c6973740000000000000000000000000000000000000000000000006020830152604082019050919050565b6000611b1d6020836121bb565b91507f526563697069656e7420616464726573732063616e6e6f74206265207a65726f6000830152602082019050919050565b6000611b5d6013836121bb565b91507f4974656d20646f6573206e6f74206578697374000000000000000000000000006000830152602082019050919050565b6000611b9d6008836121bb565b91507f494d504f525445440000000000000000000000000000000000000000000000006000830152602082019050919050565b6000611bdd6013836121bb565b91507f4974656d20616c726561647920657869737473000000000000000000000000006000830152602082019050919050565b6000611c1d601e836121bb565b91507f4974656d206973206e6f7420696e204558504f525445442073746174757300006000830152602082019050919050565b6000611c5d602a836121bb565b91507f4e6f7420617574686f72697a656420746f20766965772074686973206974656d60008301527f27732064657461696c73000000000000000000000000000000000000000000006020830152604082019050919050565b6000611cc3600e836121bb565b91507f4e6f7420617574686f72697a65640000000000000000000000000000000000006000830152602082019050919050565b6000610120830160008301518482036000860152611d14828261190e565b9150506020830151611d296020860182611dd7565b506040830151611d3c6040860182611dd7565b506060830151611d4f6060860182611780565b506080830151611d626080860182611780565b5060a083015184820360a0860152611d7a828261190e565b91505060c083015184820360c0860152611d94828261190e565b91505060e083015184820360e0860152611dae828261190e565b915050610100830151848203610100860152611dca8282611813565b9150508091505092915050565b611de081612247565b82525050565b611def81612247565b82525050565b611e06611e0182612247565b612332565b82525050565b6000611e18828b61179e565b601482019150611e28828a61179e565b601482019150611e388289611df5565b602082019150611e488288611947565b9150611e548287611df5565b602082019150611e648286611df5565b602082019150611e748285611947565b9150611e808284611947565b91508190509998505050505050505050565b6000611e9e828461188f565b915081905092915050565b6000602082019050611ebe600083018461178f565b92915050565b60006020820190508181036000830152611ede81846117b5565b905092915050565b6000602082019050611efb6000830184611880565b92915050565b60006020820190508181036000830152611f1a81611978565b9050919050565b60006020820190508181036000830152611f3a816119de565b9050919050565b60006020820190508181036000830152611f5a81611a44565b9050919050565b60006020820190508181036000830152611f7a81611aaa565b9050919050565b60006020820190508181036000830152611f9a81611b10565b9050919050565b60006020820190508181036000830152611fba81611b50565b9050919050565b60006040820190508181036000830152611fda81611b90565b9050611fe96020830184611de6565b92915050565b6000602082019050818103600083015261200881611bd0565b9050919050565b6000602082019050818103600083015261202881611c10565b9050919050565b6000602082019050818103600083015261204881611c50565b9050919050565b6000602082019050818103600083015261206881611cb6565b9050919050565b600060208201905081810360008301526120898184611cf6565b905092915050565b60006020820190506120a66000830184611de6565b92915050565b6000604051905081810181811067ffffffffffffffff821117156120d3576120d261239a565b5b8060405250919050565b600067ffffffffffffffff8211156120f8576120f761239a565b5b601f19601f8301169050602081019050919050565b6000819050602082019050919050565b6000819050602082019050919050565b60008190508160005260206000209050919050565b600081519050919050565b600081519050919050565b600081519050919050565b6000602082019050919050565b6000602082019050919050565b600082825260208201905092915050565b600082825260208201905092915050565b600081905092915050565b600082825260208201905092915050565b600082825260208201905092915050565b600081905092915050565b60006121e282612247565b91506121ed83612247565b925082821015612200576121ff61233c565b5b828203905092915050565b600061221682612227565b9050919050565b6000819050919050565b600073ffffffffffffffffffffffffffffffffffffffff82169050919050565b6000819050919050565b82818337600083830152505050565b60005b8381101561227e578082015181840152602081019050612263565b8381111561228d576000848401525b50505050565b600060028204905060018216806122ab57607f821691505b602082108114156122bf576122be61236b565b5b50919050565b60006122d082612247565b91507fffffffffffffffffffffffffffffffffffffffffffffffffffffffffffffffff8214156123035761230261233c565b5b600182019050919050565b600061231982612320565b9050919050565b600061232b826123da565b9050919050565b6000819050919050565b7f4e487b7100000000000000000000000000000000000000000000000000000000600052601160045260246000fd5b7f4e487b7100000000000000000000000000000000000000000000000000000000600052602260045260246000fd5b7f4e487b7100000000000000000000000000000000000000000000000000000000600052604160045260246000fd5b6000601f19601f8301169050919050565b60008160601b9050919050565b6123f08161220b565b81146123fb57600080fd5b50565b6124078161221d565b811461241257600080fd5b50565b61241e81612247565b811461242957600080fd5b5056fea2646970667358221220c944c7a8b3235625ba70b1e274bbb0a163af04621d7761d56ef35ece73d3b75164736f6c63430008000033",
  "immutableReferences": {},
  "source": "// SPDX-License-Identifier: MIT\npragma solidity ^0.8.0;\n\ncontract SupplyChain {\n    struct Item {\n        string product;\n        uint256 qty;\n        uint256 value;\n        address exporter;\n        address recipient; // Original Ethereum wallet\n        string exporter_currency;\n        string recipient_currency;\n        string status; // EXPORTED, IMPORTED, CANCELLED\n        uint256[] statusTimestamps;\n    }\n    mapping(bytes32 => Item) private items; // transactionHash => Item\n    mapping(address => bytes32[]) private userInbox;\n    mapping(address => bytes32[]) private userAssets;\n    address public oracle;\n    uint256 public lastUpdatedTime;\n    bytes32[] public transactionHashes;\n\n    event ItemExported(\n        bytes32 indexed transactionHash,\n        address indexed exporter,\n        address indexed recipient\n    );\n    event StatusUpdated(\n        bytes32 indexed transactionHash,\n        string newStatus,\n        uint256 timestamp\n    );\n    event TimeUpdated(uint256 timestamp);\n\n    constructor() {\n        oracle = msg.sender;\n        lastUpdatedTime = block.timestamp;\n    }\n\n    modifier onlyOracle() {\n        require(msg.sender == oracle, \"Not authorized\");\n        _;\n    }\n\n    function setOracle(address _oracle) public onlyOracle {\n        oracle = _oracle;\n    }\n\n    modifier onlyOwner(address user) {\n        require(msg.sender == user, \"Not authorized\");\n        _;\n    }\n\n    function getInbox(\n        address user\n    ) public view onlyOwner(user) returns (bytes32[] memory) {\n        return userInbox[user];\n    }\n\n    function getAssets(\n        address user\n    ) public view onlyOwner(user) returns (bytes32[] memory) {\n        return userAssets[user];\n    }\n\n    function exportItem(\n        string memory product,\n        uint256 qty,\n        uint256 value,\n        address recipient,\n        string memory exporter_currency,\n        string memory recipient_currency\n    ) public returns (bytes32) {\n        require(recipient != address(0), \"Recipient address cannot be zero\");\n\n        bytes32 transactionHash = keccak256(\n            abi.encodePacked(\n                msg.sender,\n                recipient,\n                block.timestamp,\n                product,\n                qty,\n                value,\n                exporter_currency, \n                recipient_currency\n            )\n        );\n\n        require(\n            items[transactionHash].exporter == address(0),\n            \"Item already exists\"\n        );\n\n        Item storage newItem = items[transactionHash];\n        newItem.product = product;\n        newItem.qty = qty;\n        newItem.value = value;\n        newItem.exporter = msg.sender;\n        newItem.recipient = recipient;\n        newItem.status = \"EXPORTED\";\n        newItem.statusTimestamps.push(block.timestamp);\n        newItem.exporter_currency = exporter_currency;\n        newItem.recipient_currency = recipient_currency;\n\n        addToInbox(recipient, transactionHash);\n\n        transactionHashes.push(transactionHash);\n\n        emit ItemExported(transactionHash, msg.sender, recipient);\n        return transactionHash;\n    }\n\n    function confirmItem(bytes32 transactionHash) public {\n        Item storage item = items[transactionHash];\n        require(\n            item.recipient == msg.sender,\n            \"Only the recipient can confirm this item\"\n        );\n        require(\n            keccak256(bytes(item.status)) == keccak256(bytes(\"EXPORTED\")),\n            \"Item is not in EXPORTED status\"\n        );\n\n        item.status = \"IMPORTED\";\n        item.statusTimestamps.push(block.timestamp);\n\n        removeFromInbox(item.recipient, transactionHash);\n        addToAsset(msg.sender, transactionHash);\n\n        emit StatusUpdated(transactionHash, \"IMPORTED\", block.timestamp);\n    }\n\n    function getItemDetails(\n        bytes32 transactionHash\n    ) public view returns (Item memory) {\n        Item memory item = items[transactionHash];\n        require(item.exporter != address(0), \"Item does not exist\");\n        require(\n            msg.sender == item.exporter || msg.sender == item.recipient,\n            \"Not authorized to view this item's details\"\n        );\n        return item;\n    }\n\n    function addToInbox(address user, bytes32 transactionHash) internal {\n        require(msg.sender == user, \"Not authorized to add to this inbox\");\n        userInbox[user].push(transactionHash);\n    }\n\n    function removeFromInbox(address user, bytes32 transactionHash) internal {\n        require(msg.sender == user, \"Not authorized to remove from this inbox\");\n        bytes32[] storage inboxList = userInbox[user];\n        for (uint256 i = 0; i < inboxList.length; i++) {\n            if (inboxList[i] == transactionHash) {\n                inboxList[i] = inboxList[inboxList.length - 1];\n                inboxList.pop();\n                break;\n            }\n        }\n    }\n\n    function addToAsset(address user, bytes32 transactionHash) internal {\n        require(msg.sender == user, \"Not authorized to add to this asset list\");\n        userAssets[user].push(transactionHash);\n    }\n\n    function updateTime() public onlyOracle {\n        lastUpdatedTime = block.timestamp;\n        emit TimeUpdated(block.timestamp);\n    }\n\n    function getTime() public view returns (uint256) {\n        return lastUpdatedTime;\n    }\n}\n",
  "sourcePath": "/Users/natthankrish/Kuliah/IF4035/new/BlockTradeChain/contract/contracts/SupplyChain.sol",
  "compiler": {
    "name": "solc",
    "version": "0.8.0+commit.c7dfd78e.Emscripten.clang"
  },
  "schemaVersion": "3.4.16",
  "updatedAt": "2024-12-28T15:51:09.097Z",
  "networkType": "ethereum",
  "devdoc": {
    "kind": "dev",
    "methods": {},
    "version": 1
  },
  "userdoc": {
    "kind": "user",
    "methods": {},
    "version": 1
  }
}