{
  "contractName": "SupplyChain",
  "abi": [
    {
      "inputs": [],
      "stateMutability": "nonpayable",
      "type": "constructor"
    },
    {
      "anonymous": false,
      "inputs": [
        {
          "indexed": false,
          "internalType": "string",
          "name": "fromCurrency",
          "type": "string"
        },
        {
          "indexed": false,
          "internalType": "string",
          "name": "toCurrency",
          "type": "string"
        },
        {
          "indexed": false,
          "internalType": "uint256",
          "name": "rate",
          "type": "uint256"
        },
        {
          "indexed": false,
          "internalType": "uint256",
          "name": "timestamp",
          "type": "uint256"
        }
      ],
      "name": "ExchangeRateUpdated",
      "type": "event"
    },
    {
      "anonymous": false,
      "inputs": [
        {
          "indexed": true,
          "internalType": "bytes32",
          "name": "transactionHash",
          "type": "bytes32"
        },
        {
          "indexed": true,
          "internalType": "address",
          "name": "exporter",
          "type": "address"
        },
        {
          "indexed": true,
          "internalType": "address",
          "name": "recipient",
          "type": "address"
        }
      ],
      "name": "ItemExported",
      "type": "event"
    },
    {
      "anonymous": false,
      "inputs": [
        {
          "indexed": true,
          "internalType": "bytes32",
          "name": "transactionHash",
          "type": "bytes32"
        },
        {
          "indexed": false,
          "internalType": "string",
          "name": "newStatus",
          "type": "string"
        },
        {
          "indexed": false,
          "internalType": "uint256",
          "name": "timestamp",
          "type": "uint256"
        }
      ],
      "name": "StatusUpdated",
      "type": "event"
    },
    {
      "anonymous": false,
      "inputs": [
        {
          "indexed": false,
          "internalType": "uint256",
          "name": "timestamp",
          "type": "uint256"
        }
      ],
      "name": "TimeUpdated",
      "type": "event"
    },
    {
      "inputs": [
        {
          "internalType": "string",
          "name": "",
          "type": "string"
        },
        {
          "internalType": "string",
          "name": "",
          "type": "string"
        }
      ],
      "name": "exchangeRates",
      "outputs": [
        {
          "internalType": "uint256",
          "name": "rate",
          "type": "uint256"
        },
        {
          "internalType": "uint256",
          "name": "timestamp",
          "type": "uint256"
        }
      ],
      "stateMutability": "view",
      "type": "function",
      "constant": true
    },
    {
      "inputs": [],
      "name": "lastUpdatedTime",
      "outputs": [
        {
          "internalType": "uint256",
          "name": "",
          "type": "uint256"
        }
      ],
      "stateMutability": "view",
      "type": "function",
      "constant": true
    },
    {
      "inputs": [],
      "name": "oracle",
      "outputs": [
        {
          "internalType": "address",
          "name": "",
          "type": "address"
        }
      ],
      "stateMutability": "view",
      "type": "function",
      "constant": true
    },
    {
      "inputs": [
        {
          "internalType": "uint256",
          "name": "",
          "type": "uint256"
        }
      ],
      "name": "transactionHashes",
      "outputs": [
        {
          "internalType": "bytes32",
          "name": "",
          "type": "bytes32"
        }
      ],
      "stateMutability": "view",
      "type": "function",
      "constant": true
    },
    {
      "inputs": [
        {
          "internalType": "address",
          "name": "_oracle",
          "type": "address"
        }
      ],
      "name": "setOracle",
      "outputs": [],
      "stateMutability": "nonpayable",
      "type": "function"
    },
    {
      "inputs": [
        {
          "internalType": "address",
          "name": "user",
          "type": "address"
        }
      ],
      "name": "getInbox",
      "outputs": [
        {
          "internalType": "bytes32[]",
          "name": "",
          "type": "bytes32[]"
        }
      ],
      "stateMutability": "view",
      "type": "function",
      "constant": true
    },
    {
      "inputs": [
        {
          "internalType": "address",
          "name": "user",
          "type": "address"
        }
      ],
      "name": "getAssets",
      "outputs": [
        {
          "internalType": "bytes32[]",
          "name": "",
          "type": "bytes32[]"
        }
      ],
      "stateMutability": "view",
      "type": "function",
      "constant": true
    },
    {
      "inputs": [
        {
          "internalType": "string",
          "name": "fromCurrency",
          "type": "string"
        },
        {
          "internalType": "string",
          "name": "toCurrency",
          "type": "string"
        },
        {
          "internalType": "uint256",
          "name": "rate",
          "type": "uint256"
        }
      ],
      "name": "updateExchangeRate",
      "outputs": [],
      "stateMutability": "nonpayable",
      "type": "function"
    },
    {
      "inputs": [
        {
          "internalType": "string",
          "name": "product",
          "type": "string"
        },
        {
          "internalType": "uint256",
          "name": "qty",
          "type": "uint256"
        },
        {
          "internalType": "uint256",
          "name": "value",
          "type": "uint256"
        },
        {
          "internalType": "address",
          "name": "recipient",
          "type": "address"
        },
        {
          "internalType": "string",
          "name": "exporterCurrency",
          "type": "string"
        },
        {
          "internalType": "string",
          "name": "recipientCurrency",
          "type": "string"
        }
      ],
      "name": "exportItem",
      "outputs": [
        {
          "internalType": "bytes32",
          "name": "",
          "type": "bytes32"
        }
      ],
      "stateMutability": "nonpayable",
      "type": "function"
    },
    {
      "inputs": [
        {
          "internalType": "bytes32",
          "name": "transactionHash",
          "type": "bytes32"
        }
      ],
      "name": "confirmItem",
      "outputs": [],
      "stateMutability": "nonpayable",
      "type": "function"
    },
    {
      "inputs": [
        {
          "internalType": "bytes32",
          "name": "transactionHash",
          "type": "bytes32"
        }
      ],
      "name": "denyItem",
      "outputs": [],
      "stateMutability": "nonpayable",
      "type": "function"
    },
    {
      "inputs": [
        {
          "internalType": "bytes32",
          "name": "transactionHash",
          "type": "bytes32"
        }
      ],
      "name": "getItemDetails",
      "outputs": [
        {
          "components": [
            {
              "internalType": "string",
              "name": "product",
              "type": "string"
            },
            {
              "internalType": "uint256",
              "name": "qty",
              "type": "uint256"
            },
            {
              "internalType": "uint256",
              "name": "value",
              "type": "uint256"
            },
            {
              "internalType": "address",
              "name": "exporter",
              "type": "address"
            },
            {
              "internalType": "address",
              "name": "recipient",
              "type": "address"
            },
            {
              "internalType": "string",
              "name": "exporterCurrency",
              "type": "string"
            },
            {
              "internalType": "string",
              "name": "recipientCurrency",
              "type": "string"
            },
            {
              "internalType": "uint256",
              "name": "exchangeRate",
              "type": "uint256"
            },
            {
              "internalType": "uint256",
              "name": "exchangeRateTimestamp",
              "type": "uint256"
            },
            {
              "internalType": "string",
              "name": "status",
              "type": "string"
            },
            {
              "internalType": "uint256[]",
              "name": "statusTimestamps",
              "type": "uint256[]"
            }
          ],
          "internalType": "struct SupplyChain.Item",
          "name": "",
          "type": "tuple"
        }
      ],
      "stateMutability": "view",
      "type": "function",
      "constant": true
    },
    {
      "inputs": [],
      "name": "updateTime",
      "outputs": [],
      "stateMutability": "nonpayable",
      "type": "function"
    },
    {
      "inputs": [],
      "name": "getTime",
      "outputs": [
        {
          "internalType": "uint256",
          "name": "",
          "type": "uint256"
        }
      ],
      "stateMutability": "view",
      "type": "function",
      "constant": true
    }
  ],
  "bytecode": "0x608060405234801561001057600080fd5b5033600460006101000a81548173ffffffffffffffffffffffffffffffffffffffff021916908373ffffffffffffffffffffffffffffffffffffffff16021790555042600581905550612c54806100686000396000f3fe608060405234801561001057600080fd5b50600436106100ea5760003560e01c80638b784a711161008c578063d1e3d12011610066578063d1e3d12014610272578063dc555090146102a2578063f98520bd146102ac578063fc9ed250146102c8576100ea565b80638b784a7114610208578063a49e5f2c14610238578063bf85689514610254576100ea565b806362860a2b116100c857806362860a2b1461016d578063742978da1461019e5780637adbf973146101ce5780637dc0d1d0146101ea576100ea565b806302201681146100ef578063213dafcd1461011f578063557ed1ba1461014f575b600080fd5b61010960048036038101906101049190611b21565b6102e4565b60405161011691906125ec565b60405180910390f35b61013960048036038101906101349190611d2f565b6103eb565b604051610146919061260e565b60405180910390f35b61015761040f565b604051610164919061285a565b60405180910390f35b61018760048036038101906101829190611b73565b610419565b604051610195929190612875565b60405180910390f35b6101b860048036038101906101b39190611b21565b610476565b6040516101c591906125ec565b60405180910390f35b6101e860048036038101906101e39190611b21565b61057d565b005b6101f2610651565b6040516101ff91906125d1565b60405180910390f35b610222600480360381019061021d9190611c5e565b610677565b60405161022f919061260e565b60405180910390f35b610252600480360381019061024d9190611b4a565b610a6f565b005b61025c610c90565b604051610269919061285a565b60405180910390f35b61028c60048036038101906102879190611b4a565b610c96565b6040516102999190612838565b60405180910390f35b6102aa61115d565b005b6102c660048036038101906102c19190611bdf565b61122d565b005b6102e260048036038101906102dd9190611b4a565b611365565b005b6060818073ffffffffffffffffffffffffffffffffffffffff163373ffffffffffffffffffffffffffffffffffffffff1614610355576040517f08c379a000000000000000000000000000000000000000000000000000000000815260040161034c90612818565b60405180910390fd5b600160008473ffffffffffffffffffffffffffffffffffffffff1673ffffffffffffffffffffffffffffffffffffffff1681526020019081526020016000208054806020026020016040519081016040528092919081815260200182805480156103de57602002820191906000526020600020905b8154815260200190600101908083116103ca575b5050505050915050919050565b600681815481106103fb57600080fd5b906000526020600020016000915090505481565b6000600554905090565b60038280516020810182018051848252602083016020850120818352809550505050505081805160208101820180518482526020830160208501208183528095505050505050600091509150508060000154908060010154905082565b6060818073ffffffffffffffffffffffffffffffffffffffff163373ffffffffffffffffffffffffffffffffffffffff16146104e7576040517f08c379a00000000000000000000000000000000000000000000000000000000081526004016104de90612818565b60405180910390fd5b600260008473ffffffffffffffffffffffffffffffffffffffff1673ffffffffffffffffffffffffffffffffffffffff16815260200190815260200160002080548060200260200160405190810160405280929190818152602001828054801561057057602002820191906000526020600020905b81548152602001906001019080831161055c575b5050505050915050919050565b600460009054906101000a900473ffffffffffffffffffffffffffffffffffffffff1673ffffffffffffffffffffffffffffffffffffffff163373ffffffffffffffffffffffffffffffffffffffff161461060d576040517f08c379a000000000000000000000000000000000000000000000000000000000815260040161060490612818565b60405180910390fd5b80600460006101000a81548173ffffffffffffffffffffffffffffffffffffffff021916908373ffffffffffffffffffffffffffffffffffffffff16021790555050565b600460009054906101000a900473ffffffffffffffffffffffffffffffffffffffff1681565b60008073ffffffffffffffffffffffffffffffffffffffff168473ffffffffffffffffffffffffffffffffffffffff1614156106e8576040517f08c379a00000000000000000000000000000000000000000000000000000000081526004016106df9061274a565b60405180910390fd5b60006003846040516106fa91906125ba565b90815260200160405180910390208360405161071691906125ba565b9081526020016040518091039020604051806040016040529081600082015481526020016001820154815250509050600081600001511415610768576001816000018181525050428160200181815250505b60003386428b8b8b8a8a60405160200161078998979695949392919061251d565b604051602081830303815290604052805190602001209050600073ffffffffffffffffffffffffffffffffffffffff1660008083815260200190815260200160002060030160009054906101000a900473ffffffffffffffffffffffffffffffffffffffff1673ffffffffffffffffffffffffffffffffffffffff1614610845576040517f08c379a000000000000000000000000000000000000000000000000000000000815260040161083c906127b8565b60405180910390fd5b6000806000838152602001908152602001600020905089816000019080519060200190610873929190611951565b50888160010181905550878160020181905550338160030160006101000a81548173ffffffffffffffffffffffffffffffffffffffff021916908373ffffffffffffffffffffffffffffffffffffffff160217905550868160040160006101000a81548173ffffffffffffffffffffffffffffffffffffffff021916908373ffffffffffffffffffffffffffffffffffffffff16021790555085816005019080519060200190610924929190611951565b508481600601908051906020019061093d929190611951565b5082600001518160070181905550826020015181600801819055506040518060400160405280600881526020017f4558504f525445440000000000000000000000000000000000000000000000008152508160090190805190602001906109a5929190611951565b5080600a014290806001815401808255809150506001900390600052602060002001600090919091909150556109db8783611590565b60068290806001815401808255809150506001900390600052602060002001600090919091909150558673ffffffffffffffffffffffffffffffffffffffff163373ffffffffffffffffffffffffffffffffffffffff16837f8cabda4ff5d88802c4200cd965df85fe466ae1fc1e011594df1b44d023c2357f60405160405180910390a48193505050509695505050505050565b600080600083815260200190815260200160002090503373ffffffffffffffffffffffffffffffffffffffff168160040160009054906101000a900473ffffffffffffffffffffffffffffffffffffffff1673ffffffffffffffffffffffffffffffffffffffff1614610b17576040517f08c379a0000000000000000000000000000000000000000000000000000000008152600401610b0e906126ca565b60405180910390fd5b6040518060400160405280600881526020017f4558504f525445440000000000000000000000000000000000000000000000008152508051906020012081600901604051610b6591906125a3565b604051809103902014610bad576040517f08c379a0000000000000000000000000000000000000000000000000000000008152600401610ba4906127d8565b60405180910390fd5b6040518060400160405280600981526020017f43414e43454c4c45440000000000000000000000000000000000000000000000815250816009019080519060200190610bfa929190611951565b5080600a01429080600181540180825580915050600190039060005260206000200160009091909190915055610c548160040160009054906101000a900473ffffffffffffffffffffffffffffffffffffffff1683611668565b817f6f2d58d35fe763ab9b31dd965e80a2ba8746ed797ec9e928ac99c40f0e9e860042604051610c84919061269c565b60405180910390a25050565b60055481565b610c9e6119d7565b600080600084815260200190815260200160002060405180610160016040529081600082018054610cce90612a85565b80601f0160208091040260200160405190810160405280929190818152602001828054610cfa90612a85565b8015610d475780601f10610d1c57610100808354040283529160200191610d47565b820191906000526020600020905b815481529060010190602001808311610d2a57829003601f168201915b5050505050815260200160018201548152602001600282015481526020016003820160009054906101000a900473ffffffffffffffffffffffffffffffffffffffff1673ffffffffffffffffffffffffffffffffffffffff1673ffffffffffffffffffffffffffffffffffffffff1681526020016004820160009054906101000a900473ffffffffffffffffffffffffffffffffffffffff1673ffffffffffffffffffffffffffffffffffffffff1673ffffffffffffffffffffffffffffffffffffffff168152602001600582018054610e2090612a85565b80601f0160208091040260200160405190810160405280929190818152602001828054610e4c90612a85565b8015610e995780601f10610e6e57610100808354040283529160200191610e99565b820191906000526020600020905b815481529060010190602001808311610e7c57829003601f168201915b50505050508152602001600682018054610eb290612a85565b80601f0160208091040260200160405190810160405280929190818152602001828054610ede90612a85565b8015610f2b5780601f10610f0057610100808354040283529160200191610f2b565b820191906000526020600020905b815481529060010190602001808311610f0e57829003601f168201915b505050505081526020016007820154815260200160088201548152602001600982018054610f5890612a85565b80601f0160208091040260200160405190810160405280929190818152602001828054610f8490612a85565b8015610fd15780601f10610fa657610100808354040283529160200191610fd1565b820191906000526020600020905b815481529060010190602001808311610fb457829003601f168201915b50505050508152602001600a820180548060200260200160405190810160405280929190818152602001828054801561102957602002820191906000526020600020905b815481526020019060010190808311611015575b5050505050815250509050600073ffffffffffffffffffffffffffffffffffffffff16816060015173ffffffffffffffffffffffffffffffffffffffff1614156110a8576040517f08c379a000000000000000000000000000000000000000000000000000000000815260040161109f9061276a565b60405180910390fd5b806060015173ffffffffffffffffffffffffffffffffffffffff163373ffffffffffffffffffffffffffffffffffffffff1614806111155750806080015173ffffffffffffffffffffffffffffffffffffffff163373ffffffffffffffffffffffffffffffffffffffff16145b611154576040517f08c379a000000000000000000000000000000000000000000000000000000000815260040161114b906127f8565b60405180910390fd5b80915050919050565b600460009054906101000a900473ffffffffffffffffffffffffffffffffffffffff1673ffffffffffffffffffffffffffffffffffffffff163373ffffffffffffffffffffffffffffffffffffffff16146111ed576040517f08c379a00000000000000000000000000000000000000000000000000000000081526004016111e490612818565b60405180910390fd5b426005819055507f89c93b2d508150920890ffe8618ab7811923d95fa8770ecb495ca54cb15c716942604051611223919061285a565b60405180910390a1565b600460009054906101000a900473ffffffffffffffffffffffffffffffffffffffff1673ffffffffffffffffffffffffffffffffffffffff163373ffffffffffffffffffffffffffffffffffffffff16146112bd576040517f08c379a00000000000000000000000000000000000000000000000000000000081526004016112b490612818565b60405180910390fd5b6040518060400160405280828152602001428152506003846040516112e291906125ba565b9081526020016040518091039020836040516112fe91906125ba565b908152602001604051809103902060008201518160000155602082015181600101559050507f4532b706ba3a37dd34d2e2925367e85e209dc5877d276229a34ea1452dc9a628838383426040516113589493929190612629565b60405180910390a1505050565b600080600083815260200190815260200160002090503373ffffffffffffffffffffffffffffffffffffffff168160040160009054906101000a900473ffffffffffffffffffffffffffffffffffffffff1673ffffffffffffffffffffffffffffffffffffffff161461140d576040517f08c379a00000000000000000000000000000000000000000000000000000000081526004016114049061270a565b60405180910390fd5b6040518060400160405280600881526020017f4558504f52544544000000000000000000000000000000000000000000000000815250805190602001208160090160405161145b91906125a3565b6040518091039020146114a3576040517f08c379a000000000000000000000000000000000000000000000000000000000815260040161149a906127d8565b60405180910390fd5b6040518060400160405280600881526020017f494d504f525445440000000000000000000000000000000000000000000000008152508160090190805190602001906114f0929190611951565b5080600a0142908060018154018082558091505060019003906000526020600020016000909190919091505561154a8160040160009054906101000a900473ffffffffffffffffffffffffffffffffffffffff1683611668565b6115543383611879565b817f6f2d58d35fe763ab9b31dd965e80a2ba8746ed797ec9e928ac99c40f0e9e860042604051611584919061278a565b60405180910390a25050565b8173ffffffffffffffffffffffffffffffffffffffff163373ffffffffffffffffffffffffffffffffffffffff16146115fe576040517f08c379a00000000000000000000000000000000000000000000000000000000081526004016115f59061267c565b60405180910390fd5b600160008373ffffffffffffffffffffffffffffffffffffffff1673ffffffffffffffffffffffffffffffffffffffff1681526020019081526020016000208190806001815401808255809150506001900390600052602060002001600090919091909150555050565b8173ffffffffffffffffffffffffffffffffffffffff163373ffffffffffffffffffffffffffffffffffffffff16146116d6576040517f08c379a00000000000000000000000000000000000000000000000000000000081526004016116cd906126ea565b60405180910390fd5b6000600160008473ffffffffffffffffffffffffffffffffffffffff1673ffffffffffffffffffffffffffffffffffffffff168152602001908152602001600020905060005b81805490508110156118735782828281548110611762577f4e487b7100000000000000000000000000000000000000000000000000000000600052603260045260246000fd5b9060005260206000200154141561186057816001838054905061178591906129c9565b815481106117bc577f4e487b7100000000000000000000000000000000000000000000000000000000600052603260045260246000fd5b9060005260206000200154828281548110611800577f4e487b7100000000000000000000000000000000000000000000000000000000600052603260045260246000fd5b906000526020600020018190555081805480611845577f4e487b7100000000000000000000000000000000000000000000000000000000600052603160045260246000fd5b60019003818190600052602060002001600090559055611873565b808061186b90612ab7565b91505061171c565b50505050565b8173ffffffffffffffffffffffffffffffffffffffff163373ffffffffffffffffffffffffffffffffffffffff16146118e7576040517f08c379a00000000000000000000000000000000000000000000000000000000081526004016118de9061272a565b60405180910390fd5b600260008373ffffffffffffffffffffffffffffffffffffffff1673ffffffffffffffffffffffffffffffffffffffff1681526020019081526020016000208190806001815401808255809150506001900390600052602060002001600090919091909150555050565b82805461195d90612a85565b90600052602060002090601f01602090048101928261197f57600085556119c6565b82601f1061199857805160ff19168380011785556119c6565b828001600101855582156119c6579182015b828111156119c55782518255916020019190600101906119aa565b5b5090506119d39190611a5d565b5090565b604051806101600160405280606081526020016000815260200160008152602001600073ffffffffffffffffffffffffffffffffffffffff168152602001600073ffffffffffffffffffffffffffffffffffffffff1681526020016060815260200160608152602001600081526020016000815260200160608152602001606081525090565b5b80821115611a76576000816000905550600101611a5e565b5090565b6000611a8d611a88846128cf565b61289e565b905082815260208101848484011115611aa557600080fd5b611ab0848285612a43565b509392505050565b600081359050611ac781612bd9565b92915050565b600081359050611adc81612bf0565b92915050565b600082601f830112611af357600080fd5b8135611b03848260208601611a7a565b91505092915050565b600081359050611b1b81612c07565b92915050565b600060208284031215611b3357600080fd5b6000611b4184828501611ab8565b91505092915050565b600060208284031215611b5c57600080fd5b6000611b6a84828501611acd565b91505092915050565b60008060408385031215611b8657600080fd5b600083013567ffffffffffffffff811115611ba057600080fd5b611bac85828601611ae2565b925050602083013567ffffffffffffffff811115611bc957600080fd5b611bd585828601611ae2565b9150509250929050565b600080600060608486031215611bf457600080fd5b600084013567ffffffffffffffff811115611c0e57600080fd5b611c1a86828701611ae2565b935050602084013567ffffffffffffffff811115611c3757600080fd5b611c4386828701611ae2565b9250506040611c5486828701611b0c565b9150509250925092565b60008060008060008060c08789031215611c7757600080fd5b600087013567ffffffffffffffff811115611c9157600080fd5b611c9d89828a01611ae2565b9650506020611cae89828a01611b0c565b9550506040611cbf89828a01611b0c565b9450506060611cd089828a01611ab8565b935050608087013567ffffffffffffffff811115611ced57600080fd5b611cf989828a01611ae2565b92505060a087013567ffffffffffffffff811115611d1657600080fd5b611d2289828a01611ae2565b9150509295509295509295565b600060208284031215611d4157600080fd5b6000611d4f84828501611b0c565b91505092915050565b6000611d648383611e79565b60208301905092915050565b6000611d7c83836124e8565b60208301905092915050565b611d91816129fd565b82525050565b611da0816129fd565b82525050565b611db7611db2826129fd565b612b00565b82525050565b6000611dc882612934565b611dd2818561296f565b9350611ddd836128ff565b8060005b83811015611e0e578151611df58882611d58565b9750611e0083612955565b925050600181019050611de1565b5085935050505092915050565b6000611e268261293f565b611e308185612980565b9350611e3b8361290f565b8060005b83811015611e6c578151611e538882611d70565b9750611e5e83612962565b925050600181019050611e3f565b5085935050505092915050565b611e8281612a0f565b82525050565b611e9181612a0f565b82525050565b60008154611ea481612a85565b611eae8186612991565b94506001821660008114611ec95760018114611eda57611f0d565b60ff19831686528186019350611f0d565b611ee38561291f565b60005b83811015611f0557815481890152600182019150602081019050611ee6565b838801955050505b50505092915050565b6000611f218261294a565b611f2b818561299c565b9350611f3b818560208601612a52565b611f4481612bbb565b840191505092915050565b6000611f5a8261294a565b611f6481856129ad565b9350611f74818560208601612a52565b611f7d81612bbb565b840191505092915050565b6000611f938261294a565b611f9d81856129be565b9350611fad818560208601612a52565b80840191505092915050565b6000611fc66023836129ad565b91507f4e6f7420617574686f72697a656420746f2061646420746f207468697320696e60008301527f626f7800000000000000000000000000000000000000000000000000000000006020830152604082019050919050565b600061202c6009836129ad565b91507f43414e43454c4c454400000000000000000000000000000000000000000000006000830152602082019050919050565b600061206c6025836129ad565b91507f4f6e6c792074686520726563697069656e742063616e2064656e79207468697360008301527f206974656d0000000000000000000000000000000000000000000000000000006020830152604082019050919050565b60006120d26028836129ad565b91507f4e6f7420617574686f72697a656420746f2072656d6f76652066726f6d20746860008301527f697320696e626f780000000000000000000000000000000000000000000000006020830152604082019050919050565b60006121386028836129ad565b91507f4f6e6c792074686520726563697069656e742063616e20636f6e6669726d207460008301527f686973206974656d0000000000000000000000000000000000000000000000006020830152604082019050919050565b600061219e6028836129ad565b91507f4e6f7420617574686f72697a656420746f2061646420746f207468697320617360008301527f736574206c6973740000000000000000000000000000000000000000000000006020830152604082019050919050565b60006122046020836129ad565b91507f526563697069656e7420616464726573732063616e6e6f74206265207a65726f6000830152602082019050919050565b60006122446013836129ad565b91507f4974656d20646f6573206e6f74206578697374000000000000000000000000006000830152602082019050919050565b60006122846008836129ad565b91507f494d504f525445440000000000000000000000000000000000000000000000006000830152602082019050919050565b60006122c46013836129ad565b91507f4974656d20616c726561647920657869737473000000000000000000000000006000830152602082019050919050565b6000612304601e836129ad565b91507f4974656d206973206e6f7420696e204558504f525445442073746174757300006000830152602082019050919050565b6000612344602a836129ad565b91507f4e6f7420617574686f72697a656420746f20766965772074686973206974656d60008301527f27732064657461696c73000000000000000000000000000000000000000000006020830152604082019050919050565b60006123aa600e836129ad565b91507f4e6f7420617574686f72697a65640000000000000000000000000000000000006000830152602082019050919050565b60006101608301600083015184820360008601526123fb8282611f16565b915050602083015161241060208601826124e8565b50604083015161242360408601826124e8565b5060608301516124366060860182611d88565b5060808301516124496080860182611d88565b5060a083015184820360a08601526124618282611f16565b91505060c083015184820360c086015261247b8282611f16565b91505060e083015161249060e08601826124e8565b506101008301516124a56101008601826124e8565b506101208301518482036101208601526124bf8282611f16565b9150506101408301518482036101408601526124db8282611e1b565b9150508091505092915050565b6124f181612a39565b82525050565b61250081612a39565b82525050565b61251761251282612a39565b612b24565b82525050565b6000612529828b611da6565b601482019150612539828a611da6565b6014820191506125498289612506565b6020820191506125598288611f88565b91506125658287612506565b6020820191506125758286612506565b6020820191506125858285611f88565b91506125918284611f88565b91508190509998505050505050505050565b60006125af8284611e97565b915081905092915050565b60006125c68284611f88565b915081905092915050565b60006020820190506125e66000830184611d97565b92915050565b600060208201905081810360008301526126068184611dbd565b905092915050565b60006020820190506126236000830184611e88565b92915050565b600060808201905081810360008301526126438187611f4f565b905081810360208301526126578186611f4f565b905061266660408301856124f7565b61267360608301846124f7565b95945050505050565b6000602082019050818103600083015261269581611fb9565b9050919050565b600060408201905081810360008301526126b58161201f565b90506126c460208301846124f7565b92915050565b600060208201905081810360008301526126e38161205f565b9050919050565b60006020820190508181036000830152612703816120c5565b9050919050565b600060208201905081810360008301526127238161212b565b9050919050565b6000602082019050818103600083015261274381612191565b9050919050565b60006020820190508181036000830152612763816121f7565b9050919050565b6000602082019050818103600083015261278381612237565b9050919050565b600060408201905081810360008301526127a381612277565b90506127b260208301846124f7565b92915050565b600060208201905081810360008301526127d1816122b7565b9050919050565b600060208201905081810360008301526127f1816122f7565b9050919050565b6000602082019050818103600083015261281181612337565b9050919050565b600060208201905081810360008301526128318161239d565b9050919050565b6000602082019050818103600083015261285281846123dd565b905092915050565b600060208201905061286f60008301846124f7565b92915050565b600060408201905061288a60008301856124f7565b61289760208301846124f7565b9392505050565b6000604051905081810181811067ffffffffffffffff821117156128c5576128c4612b8c565b5b8060405250919050565b600067ffffffffffffffff8211156128ea576128e9612b8c565b5b601f19601f8301169050602081019050919050565b6000819050602082019050919050565b6000819050602082019050919050565b60008190508160005260206000209050919050565b600081519050919050565b600081519050919050565b600081519050919050565b6000602082019050919050565b6000602082019050919050565b600082825260208201905092915050565b600082825260208201905092915050565b600081905092915050565b600082825260208201905092915050565b600082825260208201905092915050565b600081905092915050565b60006129d482612a39565b91506129df83612a39565b9250828210156129f2576129f1612b2e565b5b828203905092915050565b6000612a0882612a19565b9050919050565b6000819050919050565b600073ffffffffffffffffffffffffffffffffffffffff82169050919050565b6000819050919050565b82818337600083830152505050565b60005b83811015612a70578082015181840152602081019050612a55565b83811115612a7f576000848401525b50505050565b60006002820490506001821680612a9d57607f821691505b60208210811415612ab157612ab0612b5d565b5b50919050565b6000612ac282612a39565b91507fffffffffffffffffffffffffffffffffffffffffffffffffffffffffffffffff821415612af557612af4612b2e565b5b600182019050919050565b6000612b0b82612b12565b9050919050565b6000612b1d82612bcc565b9050919050565b6000819050919050565b7f4e487b7100000000000000000000000000000000000000000000000000000000600052601160045260246000fd5b7f4e487b7100000000000000000000000000000000000000000000000000000000600052602260045260246000fd5b7f4e487b7100000000000000000000000000000000000000000000000000000000600052604160045260246000fd5b6000601f19601f8301169050919050565b60008160601b9050919050565b612be2816129fd565b8114612bed57600080fd5b50565b612bf981612a0f565b8114612c0457600080fd5b50565b612c1081612a39565b8114612c1b57600080fd5b5056fea264697066735822122088a312b153edb27a1a986463df4587406eff70c038d2fef0353f99c9aac5f91e64736f6c63430008000033",
  "immutableReferences": {},
  "source": "// SPDX-License-Identifier: MIT\npragma solidity ^0.8.0;\n\ncontract SupplyChain {\n    struct ExchangeRate {\n        uint256 rate;\n        uint256 timestamp;\n    }\n    struct Item {\n        string product;\n        uint256 qty;\n        uint256 value;\n        address exporter;\n        address recipient; // Original Ethereum wallet\n        string exporterCurrency;\n        string recipientCurrency;\n        uint256 exchangeRate;\n        uint256 exchangeRateTimestamp;\n        string status; // EXPORTED, IMPORTED, CANCELLED\n        uint256[] statusTimestamps;\n    }\n    mapping(bytes32 => Item) private items; // transactionHash => Item\n    mapping(address => bytes32[]) private userInbox;\n    mapping(address => bytes32[]) private userAssets;\n    mapping(string => mapping(string => ExchangeRate)) public exchangeRates; // fromCurrency => toCurrency => ExchangeRate\n    address public oracle;\n    uint256 public lastUpdatedTime;\n    bytes32[] public transactionHashes;\n\n    event ItemExported(\n        bytes32 indexed transactionHash,\n        address indexed exporter,\n        address indexed recipient\n    );\n    event StatusUpdated(\n        bytes32 indexed transactionHash,\n        string newStatus,\n        uint256 timestamp\n    );\n    event ExchangeRateUpdated(\n        string fromCurrency,\n        string toCurrency,\n        uint256 rate,\n        uint256 timestamp\n    );\n    event TimeUpdated(uint256 timestamp);\n\n    constructor() {\n        oracle = msg.sender;\n        lastUpdatedTime = block.timestamp;\n    }\n\n    modifier onlyOracle() {\n        require(msg.sender == oracle, \"Not authorized\");\n        _;\n    }\n\n    function setOracle(address _oracle) public onlyOracle {\n        oracle = _oracle;\n    }\n\n    modifier onlyOwner(address user) {\n        require(msg.sender == user, \"Not authorized\");\n        _;\n    }\n\n    function getInbox(\n        address user\n    ) public view onlyOwner(user) returns (bytes32[] memory) {\n        return userInbox[user];\n    }\n\n    function getAssets(\n        address user\n    ) public view onlyOwner(user) returns (bytes32[] memory) {\n        return userAssets[user];\n    }\n\n    function updateExchangeRate(\n        string memory fromCurrency,\n        string memory toCurrency,\n        uint256 rate\n    ) public onlyOracle {\n        exchangeRates[fromCurrency][toCurrency] = ExchangeRate(\n            rate,\n            block.timestamp\n        );\n        emit ExchangeRateUpdated(\n            fromCurrency,\n            toCurrency,\n            rate,\n            block.timestamp\n        );\n    }\n\n    function exportItem(\n        string memory product,\n        uint256 qty,\n        uint256 value,\n        address recipient,\n        string memory exporterCurrency,\n        string memory recipientCurrency\n    ) public returns (bytes32) {\n        require(recipient != address(0), \"Recipient address cannot be zero\");\n\n        // Get the current exchange rate\n        ExchangeRate memory rate = exchangeRates[exporterCurrency][recipientCurrency];\n        if (rate.rate == 0) {\n            rate.rate = 1;\n            rate.timestamp = block.timestamp;\n        }\n\n        bytes32 transactionHash = keccak256(\n            abi.encodePacked(\n                msg.sender,\n                recipient,\n                block.timestamp,\n                product,\n                qty,\n                value,\n                exporterCurrency,\n                recipientCurrency\n            )\n        );\n\n        require(\n            items[transactionHash].exporter == address(0),\n            \"Item already exists\"\n        );\n\n        Item storage newItem = items[transactionHash];\n        newItem.product = product;\n        newItem.qty = qty;\n        newItem.value = value;\n        newItem.exporter = msg.sender;\n        newItem.recipient = recipient;\n        newItem.exporterCurrency = exporterCurrency;\n        newItem.recipientCurrency = recipientCurrency;\n        newItem.exchangeRate = rate.rate;\n        newItem.exchangeRateTimestamp = rate.timestamp;\n        newItem.status = \"EXPORTED\";\n        newItem.statusTimestamps.push(block.timestamp);\n\n        addToInbox(recipient, transactionHash);\n\n        transactionHashes.push(transactionHash);\n\n        emit ItemExported(transactionHash, msg.sender, recipient);\n        return transactionHash;\n    }\n\n    function confirmItem(bytes32 transactionHash) public {\n        Item storage item = items[transactionHash];\n        require(\n            item.recipient == msg.sender,\n            \"Only the recipient can confirm this item\"\n        );\n        require(\n            keccak256(bytes(item.status)) == keccak256(bytes(\"EXPORTED\")),\n            \"Item is not in EXPORTED status\"\n        );\n\n        item.status = \"IMPORTED\";\n        item.statusTimestamps.push(block.timestamp);\n\n        removeFromInbox(item.recipient, transactionHash);\n        addToAsset(msg.sender, transactionHash);\n\n        emit StatusUpdated(transactionHash, \"IMPORTED\", block.timestamp);\n    }\n\n    function denyItem(bytes32 transactionHash) public {\n        Item storage item = items[transactionHash];\n        require(\n            item.recipient == msg.sender,\n            \"Only the recipient can deny this item\"\n        );\n        require(\n            keccak256(bytes(item.status)) == keccak256(bytes(\"EXPORTED\")),\n            \"Item is not in EXPORTED status\"\n        );\n\n        item.status = \"CANCELLED\";\n        item.statusTimestamps.push(block.timestamp);\n\n        removeFromInbox(item.recipient, transactionHash);\n\n        emit StatusUpdated(transactionHash, \"CANCELLED\", block.timestamp);\n    }\n\n    function getItemDetails(\n        bytes32 transactionHash\n    ) public view returns (Item memory) {\n        Item memory item = items[transactionHash];\n        require(item.exporter != address(0), \"Item does not exist\");\n        require(\n            msg.sender == item.exporter || msg.sender == item.recipient,\n            \"Not authorized to view this item's details\"\n        );\n        return item;\n    }\n\n    function addToInbox(address user, bytes32 transactionHash) internal {\n        require(msg.sender == user, \"Not authorized to add to this inbox\");\n        userInbox[user].push(transactionHash);\n    }\n\n    function removeFromInbox(address user, bytes32 transactionHash) internal {\n        require(msg.sender == user, \"Not authorized to remove from this inbox\");\n        bytes32[] storage inboxList = userInbox[user];\n        for (uint256 i = 0; i < inboxList.length; i++) {\n            if (inboxList[i] == transactionHash) {\n                inboxList[i] = inboxList[inboxList.length - 1];\n                inboxList.pop();\n                break;\n            }\n        }\n    }\n\n    function addToAsset(address user, bytes32 transactionHash) internal {\n        require(msg.sender == user, \"Not authorized to add to this asset list\");\n        userAssets[user].push(transactionHash);\n    }\n\n    function updateTime() public onlyOracle {\n        lastUpdatedTime = block.timestamp;\n        emit TimeUpdated(block.timestamp);\n    }\n\n    function getTime() public view returns (uint256) {\n        return lastUpdatedTime;\n    }\n}\n",
  "sourcePath": "/Users/nicholasliem/Desktop/Repository/Personal/Blockchain/contract/contracts/SupplyChain.sol",
  "compiler": {
    "name": "solc",
    "version": "0.8.0+commit.c7dfd78e.Emscripten.clang"
  },
  "schemaVersion": "3.4.16",
  "updatedAt": "2024-12-28T16:29:39.924Z",
  "networkType": "ethereum",
  "devdoc": {
    "kind": "dev",
    "methods": {},
    "version": 1
  },
  "userdoc": {
    "kind": "user",
    "methods": {},
    "version": 1
  }
}