{
  "contractName": "SupplyChain",
  "abi": [
    {
      "inputs": [],
      "stateMutability": "nonpayable",
      "type": "constructor"
    },
    {
      "anonymous": false,
      "inputs": [
        {
          "indexed": false,
          "internalType": "uint256",
          "name": "itemId",
          "type": "uint256"
        },
        {
          "indexed": false,
          "internalType": "string",
          "name": "name",
          "type": "string"
        },
        {
          "indexed": false,
          "internalType": "string",
          "name": "status",
          "type": "string"
        }
      ],
      "name": "ItemAdded",
      "type": "event"
    },
    {
      "anonymous": false,
      "inputs": [
        {
          "indexed": false,
          "internalType": "uint256",
          "name": "itemId",
          "type": "uint256"
        },
        {
          "indexed": false,
          "internalType": "string",
          "name": "newStatus",
          "type": "string"
        }
      ],
      "name": "StatusUpdated",
      "type": "event"
    },
    {
      "anonymous": false,
      "inputs": [
        {
          "indexed": false,
          "internalType": "uint256",
          "name": "timestamp",
          "type": "uint256"
        }
      ],
      "name": "TimeUpdated",
      "type": "event"
    },
    {
      "inputs": [
        {
          "internalType": "uint256",
          "name": "",
          "type": "uint256"
        }
      ],
      "name": "items",
      "outputs": [
        {
          "internalType": "string",
          "name": "name",
          "type": "string"
        },
        {
          "internalType": "string",
          "name": "status",
          "type": "string"
        }
      ],
      "stateMutability": "view",
      "type": "function",
      "constant": true
    },
    {
      "inputs": [],
      "name": "lastUpdatedTime",
      "outputs": [
        {
          "internalType": "uint256",
          "name": "",
          "type": "uint256"
        }
      ],
      "stateMutability": "view",
      "type": "function",
      "constant": true
    },
    {
      "inputs": [],
      "name": "oracle",
      "outputs": [
        {
          "internalType": "address",
          "name": "",
          "type": "address"
        }
      ],
      "stateMutability": "view",
      "type": "function",
      "constant": true
    },
    {
      "inputs": [
        {
          "internalType": "address",
          "name": "_oracle",
          "type": "address"
        }
      ],
      "name": "setOracle",
      "outputs": [],
      "stateMutability": "nonpayable",
      "type": "function"
    },
    {
      "inputs": [
        {
          "internalType": "uint256",
          "name": "itemId",
          "type": "uint256"
        },
        {
          "internalType": "string",
          "name": "name",
          "type": "string"
        },
        {
          "internalType": "string",
          "name": "status",
          "type": "string"
        }
      ],
      "name": "addItem",
      "outputs": [],
      "stateMutability": "nonpayable",
      "type": "function"
    },
    {
      "inputs": [
        {
          "internalType": "uint256",
          "name": "itemId",
          "type": "uint256"
        },
        {
          "internalType": "string",
          "name": "newStatus",
          "type": "string"
        }
      ],
      "name": "updateStatus",
      "outputs": [],
      "stateMutability": "nonpayable",
      "type": "function"
    },
    {
      "inputs": [
        {
          "internalType": "uint256",
          "name": "itemId",
          "type": "uint256"
        }
      ],
      "name": "getItem",
      "outputs": [
        {
          "internalType": "string",
          "name": "",
          "type": "string"
        },
        {
          "internalType": "string",
          "name": "",
          "type": "string"
        }
      ],
      "stateMutability": "view",
      "type": "function",
      "constant": true
    },
    {
      "inputs": [
        {
          "internalType": "uint256",
          "name": "_time",
          "type": "uint256"
        }
      ],
      "name": "updateTime",
      "outputs": [],
      "stateMutability": "nonpayable",
      "type": "function"
    },
    {
      "inputs": [],
      "name": "getTime",
      "outputs": [
        {
          "internalType": "uint256",
          "name": "",
          "type": "uint256"
        }
      ],
      "stateMutability": "view",
      "type": "function",
      "constant": true
    }
  ],
  "bytecode": "0x608060405234801561001057600080fd5b50336000806101000a81548173ffffffffffffffffffffffffffffffffffffffff021916908373ffffffffffffffffffffffffffffffffffffffff16021790555042600181905550610ed9806100676000396000f3fe608060405234801561001057600080fd5b50600436106100935760003560e01c80637dc0d1d0116100665780637dc0d1d01461011f578063bf8568951461013d578063bfb231d21461015b578063cb5442121461018c578063d1b34dd8146101a857610093565b80633129e77314610098578063557ed1ba146100c95780636c59bd0c146100e75780637adbf97314610103575b600080fd5b6100b260048036038101906100ad919061095e565b6101c4565b6040516100c0929190610bb2565b60405180910390f35b6100d1610386565b6040516100de9190610c49565b60405180910390f35b61010160048036038101906100fc919061095e565b610390565b005b61011d60048036038101906101189190610935565b61045f565b005b610127610530565b6040516101349190610b97565b60405180910390f35b610145610554565b6040516101529190610c49565b60405180910390f35b6101756004803603810190610170919061095e565b61055a565b604051610183929190610bb2565b60405180910390f35b6101a660048036038101906101a191906109db565b61068e565b005b6101c260048036038101906101bd9190610987565b610733565b005b60608060006002600085815260200190815260200160002060000180546101ea90610dd4565b90501161022c576040517f08c379a000000000000000000000000000000000000000000000000000000000815260040161022390610c09565b60405180910390fd5b60006002600085815260200190815260200160002060405180604001604052908160008201805461025c90610dd4565b80601f016020809104026020016040519081016040528092919081815260200182805461028890610dd4565b80156102d55780601f106102aa576101008083540402835291602001916102d5565b820191906000526020600020905b8154815290600101906020018083116102b857829003601f168201915b505050505081526020016001820180546102ee90610dd4565b80601f016020809104026020016040519081016040528092919081815260200182805461031a90610dd4565b80156103675780601f1061033c57610100808354040283529160200191610367565b820191906000526020600020905b81548152906001019060200180831161034a57829003601f168201915b5050505050815250509050806000015181602001519250925050915091565b6000600154905090565b60008054906101000a900473ffffffffffffffffffffffffffffffffffffffff1673ffffffffffffffffffffffffffffffffffffffff163373ffffffffffffffffffffffffffffffffffffffff161461041e576040517f08c379a000000000000000000000000000000000000000000000000000000000815260040161041590610c29565b60405180910390fd5b806001819055507f89c93b2d508150920890ffe8618ab7811923d95fa8770ecb495ca54cb15c7169816040516104549190610c49565b60405180910390a150565b60008054906101000a900473ffffffffffffffffffffffffffffffffffffffff1673ffffffffffffffffffffffffffffffffffffffff163373ffffffffffffffffffffffffffffffffffffffff16146104ed576040517f08c379a00000000000000000000000000000000000000000000000000000000081526004016104e490610be9565b60405180910390fd5b806000806101000a81548173ffffffffffffffffffffffffffffffffffffffff021916908373ffffffffffffffffffffffffffffffffffffffff16021790555050565b60008054906101000a900473ffffffffffffffffffffffffffffffffffffffff1681565b60015481565b600260205280600052604060002060009150905080600001805461057d90610dd4565b80601f01602080910402602001604051908101604052809291908181526020018280546105a990610dd4565b80156105f65780601f106105cb576101008083540402835291602001916105f6565b820191906000526020600020905b8154815290600101906020018083116105d957829003601f168201915b50505050509080600101805461060b90610dd4565b80601f016020809104026020016040519081016040528092919081815260200182805461063790610dd4565b80156106845780601f1061065957610100808354040283529160200191610684565b820191906000526020600020905b81548152906001019060200180831161066757829003601f168201915b5050505050905082565b6040518060400160405280838152602001828152506002600085815260200190815260200160002060008201518160000190805190602001906106d2929190610800565b5060208201518160010190805190602001906106ef929190610800565b509050507f9a2ee66360acc47ed8f7c49b2492e1777a6fed40c18be4eddb5b242f7098a4af83838360405161072693929190610c94565b60405180910390a1505050565b600060026000848152602001908152602001600020600001805461075690610dd4565b905011610798576040517f08c379a000000000000000000000000000000000000000000000000000000000815260040161078f90610c09565b60405180910390fd5b806002600084815260200190815260200160002060010190805190602001906107c2929190610800565b507fdc280875b120650ffe3edf5f724f07fd086361a32c2a387fe34b495f5679e77d82826040516107f4929190610c64565b60405180910390a15050565b82805461080c90610dd4565b90600052602060002090601f01602090048101928261082e5760008555610875565b82601f1061084757805160ff1916838001178555610875565b82800160010185558215610875579182015b82811115610874578251825591602001919060010190610859565b5b5090506108829190610886565b5090565b5b8082111561089f576000816000905550600101610887565b5090565b60006108b66108b184610d0a565b610cd9565b9050828152602081018484840111156108ce57600080fd5b6108d9848285610d92565b509392505050565b6000813590506108f081610e75565b92915050565b600082601f83011261090757600080fd5b81356109178482602086016108a3565b91505092915050565b60008135905061092f81610e8c565b92915050565b60006020828403121561094757600080fd5b6000610955848285016108e1565b91505092915050565b60006020828403121561097057600080fd5b600061097e84828501610920565b91505092915050565b6000806040838503121561099a57600080fd5b60006109a885828601610920565b925050602083013567ffffffffffffffff8111156109c557600080fd5b6109d1858286016108f6565b9150509250929050565b6000806000606084860312156109f057600080fd5b60006109fe86828701610920565b935050602084013567ffffffffffffffff811115610a1b57600080fd5b610a27868287016108f6565b925050604084013567ffffffffffffffff811115610a4457600080fd5b610a50868287016108f6565b9150509250925092565b610a6381610d56565b82525050565b6000610a7482610d3a565b610a7e8185610d45565b9350610a8e818560208601610da1565b610a9781610e64565b840191505092915050565b6000610aaf602f83610d45565b91507f4f6e6c79207468652063757272656e74206f7261636c652063616e206173736960008301527f676e2061206e6577206f7261636c6500000000000000000000000000000000006020830152604082019050919050565b6000610b15601383610d45565b91507f4974656d20646f6573206e6f74206578697374000000000000000000000000006000830152602082019050919050565b6000610b55600e83610d45565b91507f4e6f7420617574686f72697a65640000000000000000000000000000000000006000830152602082019050919050565b610b9181610d88565b82525050565b6000602082019050610bac6000830184610a5a565b92915050565b60006040820190508181036000830152610bcc8185610a69565b90508181036020830152610be08184610a69565b90509392505050565b60006020820190508181036000830152610c0281610aa2565b9050919050565b60006020820190508181036000830152610c2281610b08565b9050919050565b60006020820190508181036000830152610c4281610b48565b9050919050565b6000602082019050610c5e6000830184610b88565b92915050565b6000604082019050610c796000830185610b88565b8181036020830152610c8b8184610a69565b90509392505050565b6000606082019050610ca96000830186610b88565b8181036020830152610cbb8185610a69565b90508181036040830152610ccf8184610a69565b9050949350505050565b6000604051905081810181811067ffffffffffffffff82111715610d0057610cff610e35565b5b8060405250919050565b600067ffffffffffffffff821115610d2557610d24610e35565b5b601f19601f8301169050602081019050919050565b600081519050919050565b600082825260208201905092915050565b6000610d6182610d68565b9050919050565b600073ffffffffffffffffffffffffffffffffffffffff82169050919050565b6000819050919050565b82818337600083830152505050565b60005b83811015610dbf578082015181840152602081019050610da4565b83811115610dce576000848401525b50505050565b60006002820490506001821680610dec57607f821691505b60208210811415610e0057610dff610e06565b5b50919050565b7f4e487b7100000000000000000000000000000000000000000000000000000000600052602260045260246000fd5b7f4e487b7100000000000000000000000000000000000000000000000000000000600052604160045260246000fd5b6000601f19601f8301169050919050565b610e7e81610d56565b8114610e8957600080fd5b50565b610e9581610d88565b8114610ea057600080fd5b5056fea26469706673582212201bd50012280d505e34f9bb6f304ce743081648c4c94a70e6435964a08467c6b164736f6c63430008000033",
  "immutableReferences": {},
  "source": "// SPDX-License-Identifier: MIT\npragma solidity ^0.8.0;\n\ncontract SupplyChain {\n    struct Item {\n        string name;\n        string status;\n    }\n\n    address public oracle;\n    uint256 public lastUpdatedTime;\n\n    // set the deployer of the contract as the oracle\n    constructor() {\n        oracle = msg.sender;\n        lastUpdatedTime = block.timestamp;\n    }\n\n    modifier onlyOracle() {\n        require(msg.sender == oracle, \"Not authorized\");\n        _;\n    }\n\n    function setOracle(address _oracle) public {\n        require(msg.sender == oracle, \"Only the current oracle can assign a new oracle\");\n        oracle = _oracle;\n    }\n\n    mapping(uint256 => Item) public items;\n\n    event ItemAdded(uint256 itemId, string name, string status);\n    event StatusUpdated(uint256 itemId, string newStatus);\n    event TimeUpdated(uint256 timestamp);\n\n    function addItem(uint256 itemId, string memory name, string memory status) public {\n        items[itemId] = Item(name, status);\n        emit ItemAdded(itemId, name, status);\n    }\n\n    function updateStatus(uint256 itemId, string memory newStatus) public {\n        require(bytes(items[itemId].name).length > 0, \"Item does not exist\");\n        items[itemId].status = newStatus;\n        emit StatusUpdated(itemId, newStatus);\n    }\n\n    function getItem(uint256 itemId) public view returns (string memory, string memory) {\n        require(bytes(items[itemId].name).length > 0, \"Item does not exist\");\n        Item memory item = items[itemId];\n        return (item.name, item.status);\n    }\n\n    function updateTime(uint256 _time) public onlyOracle {\n        lastUpdatedTime = _time;\n        emit TimeUpdated(_time);\n    }\n\n    function getTime() public view returns (uint256) {\n        return lastUpdatedTime;\n    }\n}",
  "sourcePath": "/Users/nicholasliem/Desktop/Repository/Personal/Blockchain/contract/contracts/SupplyChain.sol",
  "compiler": {
    "name": "solc",
    "version": "0.8.0+commit.c7dfd78e.Emscripten.clang"
  },
  "schemaVersion": "3.4.16",
  "updatedAt": "2024-12-25T15:42:38.105Z",
  "networkType": "ethereum",
  "devdoc": {
    "kind": "dev",
    "methods": {},
    "version": 1
  },
  "userdoc": {
    "kind": "user",
    "methods": {},
    "version": 1
  }
}