{
  "contractName": "SupplyChain",
  "abi": [
    {
      "inputs": [],
      "stateMutability": "nonpayable",
      "type": "constructor"
    },
    {
      "anonymous": false,
      "inputs": [
        {
          "indexed": false,
          "internalType": "uint256",
          "name": "itemId",
          "type": "uint256"
        },
        {
          "indexed": false,
          "internalType": "string",
          "name": "name",
          "type": "string"
        },
        {
          "indexed": false,
          "internalType": "string",
          "name": "status",
          "type": "string"
        }
      ],
      "name": "ItemAdded",
      "type": "event"
    },
    {
      "anonymous": false,
      "inputs": [
        {
          "indexed": false,
          "internalType": "uint256",
          "name": "itemId",
          "type": "uint256"
        },
        {
          "indexed": false,
          "internalType": "string",
          "name": "newStatus",
          "type": "string"
        }
      ],
      "name": "StatusUpdated",
      "type": "event"
    },
    {
      "inputs": [
        {
          "internalType": "uint256",
          "name": "",
          "type": "uint256"
        }
      ],
      "name": "items",
      "outputs": [
        {
          "internalType": "string",
          "name": "name",
          "type": "string"
        },
        {
          "internalType": "string",
          "name": "status",
          "type": "string"
        }
      ],
      "stateMutability": "view",
      "type": "function",
      "constant": true
    },
    {
      "inputs": [],
      "name": "oracle",
      "outputs": [
        {
          "internalType": "address",
          "name": "",
          "type": "address"
        }
      ],
      "stateMutability": "view",
      "type": "function",
      "constant": true
    },
    {
      "inputs": [
        {
          "internalType": "address",
          "name": "_oracle",
          "type": "address"
        }
      ],
      "name": "setOracle",
      "outputs": [],
      "stateMutability": "nonpayable",
      "type": "function"
    },
    {
      "inputs": [
        {
          "internalType": "uint256",
          "name": "itemId",
          "type": "uint256"
        },
        {
          "internalType": "string",
          "name": "name",
          "type": "string"
        },
        {
          "internalType": "string",
          "name": "status",
          "type": "string"
        }
      ],
      "name": "addItem",
      "outputs": [],
      "stateMutability": "nonpayable",
      "type": "function"
    },
    {
      "inputs": [
        {
          "internalType": "uint256",
          "name": "itemId",
          "type": "uint256"
        },
        {
          "internalType": "string",
          "name": "newStatus",
          "type": "string"
        }
      ],
      "name": "updateStatus",
      "outputs": [],
      "stateMutability": "nonpayable",
      "type": "function"
    },
    {
      "inputs": [
        {
          "internalType": "uint256",
          "name": "itemId",
          "type": "uint256"
        }
      ],
      "name": "getItem",
      "outputs": [
        {
          "internalType": "string",
          "name": "",
          "type": "string"
        },
        {
          "internalType": "string",
          "name": "",
          "type": "string"
        }
      ],
      "stateMutability": "view",
      "type": "function",
      "constant": true
    }
  ],
  "bytecode": "0x608060405234801561001057600080fd5b50336000806101000a81548173ffffffffffffffffffffffffffffffffffffffff021916908373ffffffffffffffffffffffffffffffffffffffff160217905550610cf6806100606000396000f3fe608060405234801561001057600080fd5b50600436106100625760003560e01c80633129e773146100675780637adbf973146100985780637dc0d1d0146100b4578063bfb231d2146100d2578063cb54421214610103578063d1b34dd81461011f575b600080fd5b610081600480360381019061007c91906107f6565b61013b565b60405161008f929190610a0a565b60405180910390f35b6100b260048036038101906100ad91906107cd565b6102fd565b005b6100bc6103ce565b6040516100c991906109ef565b60405180910390f35b6100ec60048036038101906100e791906107f6565b6103f2565b6040516100fa929190610a0a565b60405180910390f35b61011d60048036038101906101189190610873565b610526565b005b6101396004803603810190610134919061081f565b6105cb565b005b606080600060016000858152602001908152602001600020600001805461016190610bf1565b9050116101a3576040517f08c379a000000000000000000000000000000000000000000000000000000000815260040161019a90610a61565b60405180910390fd5b6000600160008581526020019081526020016000206040518060400160405290816000820180546101d390610bf1565b80601f01602080910402602001604051908101604052809291908181526020018280546101ff90610bf1565b801561024c5780601f106102215761010080835404028352916020019161024c565b820191906000526020600020905b81548152906001019060200180831161022f57829003601f168201915b5050505050815260200160018201805461026590610bf1565b80601f016020809104026020016040519081016040528092919081815260200182805461029190610bf1565b80156102de5780601f106102b3576101008083540402835291602001916102de565b820191906000526020600020905b8154815290600101906020018083116102c157829003601f168201915b5050505050815250509050806000015181602001519250925050915091565b60008054906101000a900473ffffffffffffffffffffffffffffffffffffffff1673ffffffffffffffffffffffffffffffffffffffff163373ffffffffffffffffffffffffffffffffffffffff161461038b576040517f08c379a000000000000000000000000000000000000000000000000000000000815260040161038290610a41565b60405180910390fd5b806000806101000a81548173ffffffffffffffffffffffffffffffffffffffff021916908373ffffffffffffffffffffffffffffffffffffffff16021790555050565b60008054906101000a900473ffffffffffffffffffffffffffffffffffffffff1681565b600160205280600052604060002060009150905080600001805461041590610bf1565b80601f016020809104026020016040519081016040528092919081815260200182805461044190610bf1565b801561048e5780601f106104635761010080835404028352916020019161048e565b820191906000526020600020905b81548152906001019060200180831161047157829003601f168201915b5050505050908060010180546104a390610bf1565b80601f01602080910402602001604051908101604052809291908181526020018280546104cf90610bf1565b801561051c5780601f106104f15761010080835404028352916020019161051c565b820191906000526020600020905b8154815290600101906020018083116104ff57829003601f168201915b5050505050905082565b60405180604001604052808381526020018281525060016000858152602001908152602001600020600082015181600001908051906020019061056a929190610698565b506020820151816001019080519060200190610587929190610698565b509050507f9a2ee66360acc47ed8f7c49b2492e1777a6fed40c18be4eddb5b242f7098a4af8383836040516105be93929190610ab1565b60405180910390a1505050565b60006001600084815260200190815260200160002060000180546105ee90610bf1565b905011610630576040517f08c379a000000000000000000000000000000000000000000000000000000000815260040161062790610a61565b60405180910390fd5b8060016000848152602001908152602001600020600101908051906020019061065a929190610698565b507fdc280875b120650ffe3edf5f724f07fd086361a32c2a387fe34b495f5679e77d828260405161068c929190610a81565b60405180910390a15050565b8280546106a490610bf1565b90600052602060002090601f0160209004810192826106c6576000855561070d565b82601f106106df57805160ff191683800117855561070d565b8280016001018555821561070d579182015b8281111561070c5782518255916020019190600101906106f1565b5b50905061071a919061071e565b5090565b5b8082111561073757600081600090555060010161071f565b5090565b600061074e61074984610b27565b610af6565b90508281526020810184848401111561076657600080fd5b610771848285610baf565b509392505050565b60008135905061078881610c92565b92915050565b600082601f83011261079f57600080fd5b81356107af84826020860161073b565b91505092915050565b6000813590506107c781610ca9565b92915050565b6000602082840312156107df57600080fd5b60006107ed84828501610779565b91505092915050565b60006020828403121561080857600080fd5b6000610816848285016107b8565b91505092915050565b6000806040838503121561083257600080fd5b6000610840858286016107b8565b925050602083013567ffffffffffffffff81111561085d57600080fd5b6108698582860161078e565b9150509250929050565b60008060006060848603121561088857600080fd5b6000610896868287016107b8565b935050602084013567ffffffffffffffff8111156108b357600080fd5b6108bf8682870161078e565b925050604084013567ffffffffffffffff8111156108dc57600080fd5b6108e88682870161078e565b9150509250925092565b6108fb81610b73565b82525050565b600061090c82610b57565b6109168185610b62565b9350610926818560208601610bbe565b61092f81610c81565b840191505092915050565b6000610947602f83610b62565b91507f4f6e6c79207468652063757272656e74206f7261636c652063616e206173736960008301527f676e2061206e6577206f7261636c6500000000000000000000000000000000006020830152604082019050919050565b60006109ad601383610b62565b91507f4974656d20646f6573206e6f74206578697374000000000000000000000000006000830152602082019050919050565b6109e981610ba5565b82525050565b6000602082019050610a0460008301846108f2565b92915050565b60006040820190508181036000830152610a248185610901565b90508181036020830152610a388184610901565b90509392505050565b60006020820190508181036000830152610a5a8161093a565b9050919050565b60006020820190508181036000830152610a7a816109a0565b9050919050565b6000604082019050610a9660008301856109e0565b8181036020830152610aa88184610901565b90509392505050565b6000606082019050610ac660008301866109e0565b8181036020830152610ad88185610901565b90508181036040830152610aec8184610901565b9050949350505050565b6000604051905081810181811067ffffffffffffffff82111715610b1d57610b1c610c52565b5b8060405250919050565b600067ffffffffffffffff821115610b4257610b41610c52565b5b601f19601f8301169050602081019050919050565b600081519050919050565b600082825260208201905092915050565b6000610b7e82610b85565b9050919050565b600073ffffffffffffffffffffffffffffffffffffffff82169050919050565b6000819050919050565b82818337600083830152505050565b60005b83811015610bdc578082015181840152602081019050610bc1565b83811115610beb576000848401525b50505050565b60006002820490506001821680610c0957607f821691505b60208210811415610c1d57610c1c610c23565b5b50919050565b7f4e487b7100000000000000000000000000000000000000000000000000000000600052602260045260246000fd5b7f4e487b7100000000000000000000000000000000000000000000000000000000600052604160045260246000fd5b6000601f19601f8301169050919050565b610c9b81610b73565b8114610ca657600080fd5b50565b610cb281610ba5565b8114610cbd57600080fd5b5056fea2646970667358221220af4a121a5e010e409b3a04cff6ca7f8a27e698664a8127eb51c8ecdf144a93f964736f6c63430008000033",
  "immutableReferences": {},
  "source": "// SPDX-License-Identifier: MIT\npragma solidity ^0.8.0;\n\ncontract SupplyChain {\n    struct Item {\n        string name;\n        string status;\n    }\n\n    address public oracle;\n\n    // set the deployer of the contract as the oracle\n    constructor() {\n        oracle = msg.sender;\n    }\n\n    modifier onlyOracle() {\n        require(msg.sender == oracle, \"Not authorized\");\n        _;\n    }\n\n    function setOracle(address _oracle) public {\n        require(msg.sender == oracle, \"Only the current oracle can assign a new oracle\");\n        oracle = _oracle;\n    }\n\n    mapping(uint256 => Item) public items;\n\n    event ItemAdded(uint256 itemId, string name, string status);\n    event StatusUpdated(uint256 itemId, string newStatus);\n\n    function addItem(uint256 itemId, string memory name, string memory status) public {\n        items[itemId] = Item(name, status);\n        emit ItemAdded(itemId, name, status);\n    }\n\n    function updateStatus(uint256 itemId, string memory newStatus) public {\n        require(bytes(items[itemId].name).length > 0, \"Item does not exist\");\n        items[itemId].status = newStatus;\n        emit StatusUpdated(itemId, newStatus);\n    }\n\n    function getItem(uint256 itemId) public view returns (string memory, string memory) {\n        require(bytes(items[itemId].name).length > 0, \"Item does not exist\");\n        Item memory item = items[itemId];\n        return (item.name, item.status);\n    }\n}",
  "sourcePath": "/Users/nicholasliem/Desktop/Repository/Personal/Blockchain/contract/contracts/SupplyChain.sol",
  "compiler": {
    "name": "solc",
    "version": "0.8.0+commit.c7dfd78e.Emscripten.clang"
  },
  "schemaVersion": "3.4.16",
  "updatedAt": "2024-12-25T14:26:49.751Z",
  "networkType": "ethereum",
  "devdoc": {
    "kind": "dev",
    "methods": {},
    "version": 1
  },
  "userdoc": {
    "kind": "user",
    "methods": {},
    "version": 1
  }
}